{
  "_format": "hh-sol-artifact-1",
  "contractName": "SimpleVoting",
  "sourceName": "contracts/SimpleVoting.sol",
  "abi": [
    {
      "inputs": [],
      "stateMutability": "nonpayable",
      "type": "constructor"
    },
    {
      "anonymous": false,
      "inputs": [
        {
          "indexed": false,
          "internalType": "string",
          "name": "message",
          "type": "string"
        }
      ],
      "name": "CreateCandidate",
      "type": "event"
    },
    {
      "anonymous": false,
      "inputs": [
        {
          "indexed": false,
          "internalType": "string",
          "name": "message",
          "type": "string"
        },
        {
          "indexed": false,
          "internalType": "uint256",
          "name": "_role",
          "type": "uint256"
        }
      ],
      "name": "CreateMultipleStakeHolders",
      "type": "event"
    },
    {
      "anonymous": false,
      "inputs": [
        {
          "indexed": false,
          "internalType": "string",
          "name": "message",
          "type": "string"
        },
        {
          "indexed": false,
          "internalType": "address",
          "name": "_address",
          "type": "address"
        },
        {
          "indexed": false,
          "internalType": "uint256",
          "name": "_role",
          "type": "uint256"
        }
      ],
      "name": "CreateStakeholder",
      "type": "event"
    },
    {
      "anonymous": false,
      "inputs": [
        {
          "indexed": false,
          "internalType": "string",
          "name": "message",
          "type": "string"
        }
      ],
      "name": "Vote",
      "type": "event"
    },
    {
      "inputs": [
        {
          "internalType": "uint256",
          "name": "",
          "type": "uint256"
        }
      ],
      "name": "BODList",
      "outputs": [
        {
          "internalType": "address",
          "name": "",
          "type": "address"
        }
      ],
      "stateMutability": "view",
      "type": "function"
    },
    {
      "inputs": [
        {
          "internalType": "uint256",
          "name": "",
          "type": "uint256"
        }
      ],
      "name": "candidatesList",
      "outputs": [
        {
          "internalType": "uint256",
          "name": "candidateID",
          "type": "uint256"
        },
        {
          "internalType": "string",
          "name": "candidateName",
          "type": "string"
        },
        {
          "internalType": "address",
          "name": "registeredAddress",
          "type": "address"
        },
        {
          "internalType": "uint8",
          "name": "totalVotesReceived",
          "type": "uint8"
        },
        {
          "internalType": "uint8",
          "name": "votesReceivedBOD",
          "type": "uint8"
        },
        {
          "internalType": "uint8",
          "name": "votesReceivedTeachers",
          "type": "uint8"
        },
        {
          "internalType": "uint8",
          "name": "votesReceivedStudents",
          "type": "uint8"
        },
        {
          "internalType": "bool",
          "name": "receivedChairmansVote",
          "type": "bool"
        }
      ],
      "stateMutability": "view",
      "type": "function"
    },
    {
      "inputs": [],
      "name": "chairman",
      "outputs": [
        {
          "internalType": "address",
          "name": "",
          "type": "address"
        }
      ],
      "stateMutability": "view",
      "type": "function"
    },
    {
      "inputs": [
        {
          "internalType": "string",
          "name": "_candidateName",
          "type": "string"
        }
      ],
      "name": "createCandidate",
      "outputs": [],
      "stateMutability": "nonpayable",
      "type": "function"
    },
    {
      "inputs": [
        {
          "internalType": "address[]",
          "name": "_addressArray",
          "type": "address[]"
        },
        {
          "internalType": "uint256",
          "name": "_role",
          "type": "uint256"
        }
      ],
      "name": "createMultipleStakeHolders",
      "outputs": [],
      "stateMutability": "nonpayable",
      "type": "function"
    },
    {
      "inputs": [
        {
          "internalType": "address",
          "name": "_address",
          "type": "address"
        },
        {
          "internalType": "uint256",
          "name": "_role",
          "type": "uint256"
        }
      ],
      "name": "createStakeHolder",
      "outputs": [],
      "stateMutability": "nonpayable",
      "type": "function"
    },
    {
      "inputs": [],
      "name": "getListOfBOD",
      "outputs": [
        {
          "internalType": "address[]",
          "name": "",
          "type": "address[]"
        }
      ],
      "stateMutability": "view",
      "type": "function"
    },
    {
      "inputs": [],
      "name": "getListOfCandidates",
      "outputs": [
        {
          "components": [
            {
              "internalType": "uint256",
              "name": "candidateID",
              "type": "uint256"
            },
            {
              "internalType": "string",
              "name": "candidateName",
              "type": "string"
            },
            {
              "internalType": "address",
              "name": "registeredAddress",
              "type": "address"
            },
            {
              "internalType": "uint8",
              "name": "totalVotesReceived",
              "type": "uint8"
            },
            {
              "internalType": "uint8",
              "name": "votesReceivedBOD",
              "type": "uint8"
            },
            {
              "internalType": "uint8",
              "name": "votesReceivedTeachers",
              "type": "uint8"
            },
            {
              "internalType": "uint8",
              "name": "votesReceivedStudents",
              "type": "uint8"
            },
            {
              "internalType": "bool",
              "name": "receivedChairmansVote",
              "type": "bool"
            }
          ],
          "internalType": "struct SimpleVoting.Candidate[]",
          "name": "",
          "type": "tuple[]"
        }
      ],
      "stateMutability": "view",
      "type": "function"
    },
    {
      "inputs": [],
      "name": "getListOfStakeHolders",
      "outputs": [
        {
          "internalType": "address[]",
          "name": "",
          "type": "address[]"
        }
      ],
      "stateMutability": "view",
      "type": "function"
    },
    {
      "inputs": [],
      "name": "getListOfStudents",
      "outputs": [
        {
          "internalType": "address[]",
          "name": "",
          "type": "address[]"
        }
      ],
      "stateMutability": "view",
      "type": "function"
    },
    {
      "inputs": [],
      "name": "getListOfTeachers",
      "outputs": [
        {
          "internalType": "address[]",
          "name": "",
          "type": "address[]"
        }
      ],
      "stateMutability": "view",
      "type": "function"
    },
    {
      "inputs": [
        {
          "internalType": "address",
          "name": "_address",
          "type": "address"
        }
      ],
      "name": "isAStakeholder",
      "outputs": [
        {
          "internalType": "bool",
          "name": "",
          "type": "bool"
        }
      ],
      "stateMutability": "view",
      "type": "function"
    },
    {
      "inputs": [],
      "name": "resultsActive",
      "outputs": [
        {
          "internalType": "bool",
          "name": "",
          "type": "bool"
        }
      ],
      "stateMutability": "view",
      "type": "function"
    },
    {
      "inputs": [
        {
          "internalType": "address",
          "name": "",
          "type": "address"
        }
      ],
      "name": "stakeholders",
      "outputs": [
        {
          "internalType": "enum SimpleVoting.Role",
          "name": "role",
          "type": "uint8"
        },
        {
          "internalType": "bool",
          "name": "hasVoted",
          "type": "bool"
        },
        {
          "internalType": "uint256",
          "name": "candidateChosen",
          "type": "uint256"
        },
        {
          "internalType": "address",
          "name": "registeredAddress",
          "type": "address"
        }
      ],
      "stateMutability": "view",
      "type": "function"
    },
    {
      "inputs": [
        {
          "internalType": "uint256",
          "name": "",
          "type": "uint256"
        }
      ],
      "name": "stakeholdersList",
      "outputs": [
        {
          "internalType": "address",
          "name": "",
          "type": "address"
        }
      ],
      "stateMutability": "view",
      "type": "function"
    },
    {
      "inputs": [
        {
          "internalType": "uint256",
          "name": "",
          "type": "uint256"
        }
      ],
      "name": "studentList",
      "outputs": [
        {
          "internalType": "address",
          "name": "",
          "type": "address"
        }
      ],
      "stateMutability": "view",
      "type": "function"
    },
    {
      "inputs": [
        {
          "internalType": "uint256",
          "name": "",
          "type": "uint256"
        }
      ],
      "name": "teachersList",
      "outputs": [
        {
          "internalType": "address",
          "name": "",
          "type": "address"
        }
      ],
      "stateMutability": "view",
      "type": "function"
    },
    {
      "inputs": [
        {
          "internalType": "string",
          "name": "_name",
          "type": "string"
        }
      ],
      "name": "toBytes",
      "outputs": [
        {
          "internalType": "bytes",
          "name": "",
          "type": "bytes"
        }
      ],
      "stateMutability": "pure",
      "type": "function"
    },
    {
      "inputs": [],
      "name": "toggleResult",
      "outputs": [
        {
          "internalType": "bool",
          "name": "",
          "type": "bool"
        }
      ],
      "stateMutability": "nonpayable",
      "type": "function"
    },
    {
      "inputs": [],
      "name": "toggleVoting",
      "outputs": [
        {
          "internalType": "bool",
          "name": "",
          "type": "bool"
        }
      ],
      "stateMutability": "nonpayable",
      "type": "function"
    },
    {
      "inputs": [
        {
          "internalType": "uint256",
          "name": "_candidateID",
          "type": "uint256"
        }
      ],
      "name": "vote",
      "outputs": [],
      "stateMutability": "nonpayable",
      "type": "function"
    },
    {
      "inputs": [],
      "name": "votingActive",
      "outputs": [
        {
          "internalType": "bool",
          "name": "",
          "type": "bool"
        }
      ],
      "stateMutability": "view",
      "type": "function"
    }
  ],
  "bytecode": "0x60806040523480156200001157600080fd5b50336000806101000a81548173ffffffffffffffffffffffffffffffffffffffff021916908373ffffffffffffffffffffffffffffffffffffffff1602179055506000600760006101000a81548160ff0219169083151502179055506000600760016101000a81548160ff0219169083151502179055506200009b336003620000a160201b60201c565b62000938565b60008054906101000a900473ffffffffffffffffffffffffffffffffffffffff1673ffffffffffffffffffffffffffffffffffffffff163373ffffffffffffffffffffffffffffffffffffffff161462000132576040517f08c379a0000000000000000000000000000000000000000000000000000000008152600401620001299062000875565b60405180910390fd5b604051806080016040528082600381111562000177577f4e487b7100000000000000000000000000000000000000000000000000000000600052602160045260246000fd5b6003811115620001b0577f4e487b7100000000000000000000000000000000000000000000000000000000600052602160045260246000fd5b8152602001600015158152602001600881526020013373ffffffffffffffffffffffffffffffffffffffff16815250600160008473ffffffffffffffffffffffffffffffffffffffff1673ffffffffffffffffffffffffffffffffffffffff16815260200190815260200160002060008201518160000160006101000a81548160ff0219169083600381111562000270577f4e487b7100000000000000000000000000000000000000000000000000000000600052602160045260246000fd5b021790555060208201518160000160016101000a81548160ff0219169083151502179055506040820151816001015560608201518160020160006101000a81548173ffffffffffffffffffffffffffffffffffffffff021916908373ffffffffffffffffffffffffffffffffffffffff1602179055509050506002829080600181540180825580915050600190039060005260206000200160009091909190916101000a81548173ffffffffffffffffffffffffffffffffffffffff021916908373ffffffffffffffffffffffffffffffffffffffff1602179055506000600381111562000387577f4e487b7100000000000000000000000000000000000000000000000000000000600052602160045260246000fd5b6003811115620003c0577f4e487b7100000000000000000000000000000000000000000000000000000000600052602160045260246000fd5b600160008473ffffffffffffffffffffffffffffffffffffffff1673ffffffffffffffffffffffffffffffffffffffff16815260200190815260200160002060000160009054906101000a900460ff16600381111562000449577f4e487b7100000000000000000000000000000000000000000000000000000000600052602160045260246000fd5b1415620004b4576003829080600181540180825580915050600190039060005260206000200160009091909190916101000a81548173ffffffffffffffffffffffffffffffffffffffff021916908373ffffffffffffffffffffffffffffffffffffffff1602179055505b60016003811115620004ef577f4e487b7100000000000000000000000000000000000000000000000000000000600052602160045260246000fd5b600381111562000528577f4e487b7100000000000000000000000000000000000000000000000000000000600052602160045260246000fd5b600160008473ffffffffffffffffffffffffffffffffffffffff1673ffffffffffffffffffffffffffffffffffffffff16815260200190815260200160002060000160009054906101000a900460ff166003811115620005b1577f4e487b7100000000000000000000000000000000000000000000000000000000600052602160045260246000fd5b14156200061c576004829080600181540180825580915050600190039060005260206000200160009091909190916101000a81548173ffffffffffffffffffffffffffffffffffffffff021916908373ffffffffffffffffffffffffffffffffffffffff1602179055505b6002600381111562000657577f4e487b7100000000000000000000000000000000000000000000000000000000600052602160045260246000fd5b600381111562000690577f4e487b7100000000000000000000000000000000000000000000000000000000600052602160045260246000fd5b600160008473ffffffffffffffffffffffffffffffffffffffff1673ffffffffffffffffffffffffffffffffffffffff16815260200190815260200160002060000160009054906101000a900460ff16600381111562000719577f4e487b7100000000000000000000000000000000000000000000000000000000600052602160045260246000fd5b141562000784576005829080600181540180825580915050600190039060005260206000200160009091909190916101000a81548173ffffffffffffffffffffffffffffffffffffffff021916908373ffffffffffffffffffffffffffffffffffffffff1602179055505b7f6d9f50ba080f54475d6e41f1df94474c2582e42ef60d63126f4a42e7b29028d88282604051620007b792919062000833565b60405180910390a15050565b620007ce81620008a8565b82525050565b6000620007e3601e8362000897565b9150620007f082620008e6565b602082019050919050565b60006200080a601a8362000897565b915062000817826200090f565b602082019050919050565b6200082d81620008dc565b82525050565b600060608201905081810360008301526200084e81620007d4565b90506200085f6020830185620007c3565b6200086e604083018462000822565b9392505050565b600060208201905081810360008301526200089081620007fb565b9050919050565b600082825260208201905092915050565b6000620008b582620008bc565b9050919050565b600073ffffffffffffffffffffffffffffffffffffffff82169050919050565b6000819050919050565b7f596f75206a75737420637265617465642061207374616b65686f6c6465720000600082015250565b7f4f6e6c792043686169726d616e2063616e20646f20746869732e000000000000600082015250565b6131c480620009486000396000f3fe608060405234801561001057600080fd5b50600436106101425760003560e01c806395890303116100b8578063af16dba71161007c578063af16dba714610367578063c07cfca914610385578063df2d5ec7146103b8578063e2cc2680146103ef578063f0c68c221461041f578063f8d18a7b1461043d57610142565b806395890303146102af5780639b5fd82f146102cd5780639f2e140e146102e9578063aae3bd4714610319578063ad39a1fa1461033757610142565b8063408e27271161010a578063408e2727146101d957806341157aff146101f757806348069060146102155780635fba7a56146102455780637df221e91461026157806387f7b9751461029157610142565b80630121b93f146101475780630e6474131461016357806315f6febd14610181578063207e8c901461019f5780632f3868ca146101bb575b600080fd5b610161600480360381019061015c9190612506565b61046d565b005b61016b610d56565b604051610178919061298b565b60405180910390f35b610189610de4565b604051610196919061298b565b60405180910390f35b6101b960048036038101906101b49190612435565b610e72565b005b6101c3611580565b6040516101d091906129ad565b60405180910390f35b6101e1611761565b6040516101ee91906129cf565b60405180910390f35b6101ff611774565b60405161020c919061298b565b60405180910390f35b61022f600480360381019061022a9190612506565b611802565b60405161023c9190612970565b60405180910390f35b61025f600480360381019061025a91906124c5565b611841565b005b61027b60048036038101906102769190612506565b611acb565b6040516102889190612970565b60405180910390f35b610299611b0a565b6040516102a69190612970565b60405180910390f35b6102b7611b2e565b6040516102c491906129cf565b60405180910390f35b6102e760048036038101906102e29190612471565b611b41565b005b61030360048036038101906102fe91906124c5565b611c74565b60405161031091906129ea565b60405180910390f35b610321611c9d565b60405161032e91906129cf565b60405180910390f35b610351600480360381019061034c9190612506565b611da6565b60405161035e9190612970565b60405180910390f35b61036f611de5565b60405161037c919061298b565b60405180910390f35b61039f600480360381019061039a919061240c565b611e73565b6040516103af9493929190612a0c565b60405180910390f35b6103d260048036038101906103cd9190612506565b611edd565b6040516103e6989796959493929190612b7b565b60405180910390f35b6104096004803603810190610404919061240c565b61201e565b60405161041691906129cf565b60405180910390f35b6104276120f9565b60405161043491906129cf565b60405180910390f35b61045760048036038101906104529190612506565b612202565b6040516104649190612970565b60405180910390f35b6104763361201e565b6104b5576040517f08c379a00000000000000000000000000000000000000000000000000000000081526004016104ac90612afb565b60405180910390fd5b60001515600160003373ffffffffffffffffffffffffffffffffffffffff1673ffffffffffffffffffffffffffffffffffffffff16815260200190815260200160002060000160019054906101000a900460ff1615151461054b576040517f08c379a000000000000000000000000000000000000000000000000000000000815260040161054290612b3b565b60405180910390fd5b60011515600760009054906101000a900460ff161515146105a1576040517f08c379a000000000000000000000000000000000000000000000000000000000815260040161059890612a51565b60405180910390fd5b60018060003373ffffffffffffffffffffffffffffffffffffffff1673ffffffffffffffffffffffffffffffffffffffff16815260200190815260200160002060000160016101000a81548160ff02191690831515021790555080600160003373ffffffffffffffffffffffffffffffffffffffff1673ffffffffffffffffffffffffffffffffffffffff1681526020019081526020016000206001018190555060016006828154811061067e577f4e487b7100000000000000000000000000000000000000000000000000000000600052603260045260246000fd5b906000526020600020906003020160020160149054906101000a900460ff166106a79190612d48565b600682815481106106e1577f4e487b7100000000000000000000000000000000000000000000000000000000600052603260045260246000fd5b906000526020600020906003020160020160146101000a81548160ff021916908360ff16021790555060006003811115610744577f4e487b7100000000000000000000000000000000000000000000000000000000600052602160045260246000fd5b600381111561077c577f4e487b7100000000000000000000000000000000000000000000000000000000600052602160045260246000fd5b600160003373ffffffffffffffffffffffffffffffffffffffff1673ffffffffffffffffffffffffffffffffffffffff16815260200190815260200160002060000160009054906101000a900460ff166003811115610804577f4e487b7100000000000000000000000000000000000000000000000000000000600052602160045260246000fd5b14156108d357600160068281548110610846577f4e487b7100000000000000000000000000000000000000000000000000000000600052603260045260246000fd5b906000526020600020906003020160020160159054906101000a900460ff1661086f9190612d48565b600682815481106108a9577f4e487b7100000000000000000000000000000000000000000000000000000000600052603260045260246000fd5b906000526020600020906003020160020160156101000a81548160ff021916908360ff1602179055505b6001600381111561090d577f4e487b7100000000000000000000000000000000000000000000000000000000600052602160045260246000fd5b6003811115610945577f4e487b7100000000000000000000000000000000000000000000000000000000600052602160045260246000fd5b600160003373ffffffffffffffffffffffffffffffffffffffff1673ffffffffffffffffffffffffffffffffffffffff16815260200190815260200160002060000160009054906101000a900460ff1660038111156109cd577f4e487b7100000000000000000000000000000000000000000000000000000000600052602160045260246000fd5b1415610a9c57600160068281548110610a0f577f4e487b7100000000000000000000000000000000000000000000000000000000600052603260045260246000fd5b906000526020600020906003020160020160169054906101000a900460ff16610a389190612d48565b60068281548110610a72577f4e487b7100000000000000000000000000000000000000000000000000000000600052603260045260246000fd5b906000526020600020906003020160020160166101000a81548160ff021916908360ff1602179055505b60026003811115610ad6577f4e487b7100000000000000000000000000000000000000000000000000000000600052602160045260246000fd5b6003811115610b0e577f4e487b7100000000000000000000000000000000000000000000000000000000600052602160045260246000fd5b600160003373ffffffffffffffffffffffffffffffffffffffff1673ffffffffffffffffffffffffffffffffffffffff16815260200190815260200160002060000160009054906101000a900460ff166003811115610b96577f4e487b7100000000000000000000000000000000000000000000000000000000600052602160045260246000fd5b1415610c6557600160068281548110610bd8577f4e487b7100000000000000000000000000000000000000000000000000000000600052603260045260246000fd5b906000526020600020906003020160020160179054906101000a900460ff16610c019190612d48565b60068281548110610c3b577f4e487b7100000000000000000000000000000000000000000000000000000000600052603260045260246000fd5b906000526020600020906003020160020160176101000a81548160ff021916908360ff1602179055505b60008054906101000a900473ffffffffffffffffffffffffffffffffffffffff1673ffffffffffffffffffffffffffffffffffffffff163373ffffffffffffffffffffffffffffffffffffffff161415610d1e57600160068281548110610cf5577f4e487b7100000000000000000000000000000000000000000000000000000000600052603260045260246000fd5b906000526020600020906003020160020160186101000a81548160ff0219169083151502179055505b7f323082d76bf7cc451f1200da2c10399cea01d7d9bc1e28142959fe8081a722fb604051610d4b90612b1b565b60405180910390a150565b60606004805480602002602001604051908101604052809291908181526020018280548015610dda57602002820191906000526020600020905b8160009054906101000a900473ffffffffffffffffffffffffffffffffffffffff1673ffffffffffffffffffffffffffffffffffffffff1681526020019060010190808311610d90575b5050505050905090565b60606005805480602002602001604051908101604052809291908181526020018280548015610e6857602002820191906000526020600020905b8160009054906101000a900473ffffffffffffffffffffffffffffffffffffffff1673ffffffffffffffffffffffffffffffffffffffff1681526020019060010190808311610e1e575b5050505050905090565b60008054906101000a900473ffffffffffffffffffffffffffffffffffffffff1673ffffffffffffffffffffffffffffffffffffffff163373ffffffffffffffffffffffffffffffffffffffff1614610f00576040517f08c379a0000000000000000000000000000000000000000000000000000000008152600401610ef790612b5b565b60405180910390fd5b6040518060800160405280826003811115610f44577f4e487b7100000000000000000000000000000000000000000000000000000000600052602160045260246000fd5b6003811115610f7c577f4e487b7100000000000000000000000000000000000000000000000000000000600052602160045260246000fd5b8152602001600015158152602001600881526020013373ffffffffffffffffffffffffffffffffffffffff16815250600160008473ffffffffffffffffffffffffffffffffffffffff1673ffffffffffffffffffffffffffffffffffffffff16815260200190815260200160002060008201518160000160006101000a81548160ff0219169083600381111561103b577f4e487b7100000000000000000000000000000000000000000000000000000000600052602160045260246000fd5b021790555060208201518160000160016101000a81548160ff0219169083151502179055506040820151816001015560608201518160020160006101000a81548173ffffffffffffffffffffffffffffffffffffffff021916908373ffffffffffffffffffffffffffffffffffffffff1602179055509050506002829080600181540180825580915050600190039060005260206000200160009091909190916101000a81548173ffffffffffffffffffffffffffffffffffffffff021916908373ffffffffffffffffffffffffffffffffffffffff16021790555060006003811115611151577f4e487b7100000000000000000000000000000000000000000000000000000000600052602160045260246000fd5b6003811115611189577f4e487b7100000000000000000000000000000000000000000000000000000000600052602160045260246000fd5b600160008473ffffffffffffffffffffffffffffffffffffffff1673ffffffffffffffffffffffffffffffffffffffff16815260200190815260200160002060000160009054906101000a900460ff166003811115611211577f4e487b7100000000000000000000000000000000000000000000000000000000600052602160045260246000fd5b141561127b576003829080600181540180825580915050600190039060005260206000200160009091909190916101000a81548173ffffffffffffffffffffffffffffffffffffffff021916908373ffffffffffffffffffffffffffffffffffffffff1602179055505b600160038111156112b5577f4e487b7100000000000000000000000000000000000000000000000000000000600052602160045260246000fd5b60038111156112ed577f4e487b7100000000000000000000000000000000000000000000000000000000600052602160045260246000fd5b600160008473ffffffffffffffffffffffffffffffffffffffff1673ffffffffffffffffffffffffffffffffffffffff16815260200190815260200160002060000160009054906101000a900460ff166003811115611375577f4e487b7100000000000000000000000000000000000000000000000000000000600052602160045260246000fd5b14156113df576004829080600181540180825580915050600190039060005260206000200160009091909190916101000a81548173ffffffffffffffffffffffffffffffffffffffff021916908373ffffffffffffffffffffffffffffffffffffffff1602179055505b60026003811115611419577f4e487b7100000000000000000000000000000000000000000000000000000000600052602160045260246000fd5b6003811115611451577f4e487b7100000000000000000000000000000000000000000000000000000000600052602160045260246000fd5b600160008473ffffffffffffffffffffffffffffffffffffffff1673ffffffffffffffffffffffffffffffffffffffff16815260200190815260200160002060000160009054906101000a900460ff1660038111156114d9577f4e487b7100000000000000000000000000000000000000000000000000000000600052602160045260246000fd5b1415611543576005829080600181540180825580915050600190039060005260206000200160009091909190916101000a81548173ffffffffffffffffffffffffffffffffffffffff021916908373ffffffffffffffffffffffffffffffffffffffff1602179055505b7f6d9f50ba080f54475d6e41f1df94474c2582e42ef60d63126f4a42e7b29028d88282604051611574929190612a71565b60405180910390a15050565b60606006805480602002602001604051908101604052809291908181526020016000905b82821015611758578382906000526020600020906003020160405180610100016040529081600082015481526020016001820180546115e290612e3b565b80601f016020809104026020016040519081016040528092919081815260200182805461160e90612e3b565b801561165b5780601f106116305761010080835404028352916020019161165b565b820191906000526020600020905b81548152906001019060200180831161163e57829003601f168201915b505050505081526020016002820160009054906101000a900473ffffffffffffffffffffffffffffffffffffffff1673ffffffffffffffffffffffffffffffffffffffff1673ffffffffffffffffffffffffffffffffffffffff1681526020016002820160149054906101000a900460ff1660ff1660ff1681526020016002820160159054906101000a900460ff1660ff1660ff1681526020016002820160169054906101000a900460ff1660ff1660ff1681526020016002820160179054906101000a900460ff1660ff1660ff1681526020016002820160189054906101000a900460ff161515151581525050815260200190600101906115a4565b50505050905090565b600760009054906101000a900460ff1681565b606060028054806020026020016040519081016040528092919081815260200182805480156117f857602002820191906000526020600020905b8160009054906101000a900473ffffffffffffffffffffffffffffffffffffffff1673ffffffffffffffffffffffffffffffffffffffff16815260200190600101908083116117ae575b5050505050905090565b6004818154811061181257600080fd5b906000526020600020016000915054906101000a900473ffffffffffffffffffffffffffffffffffffffff1681565b60008054906101000a900473ffffffffffffffffffffffffffffffffffffffff1673ffffffffffffffffffffffffffffffffffffffff163373ffffffffffffffffffffffffffffffffffffffff16146118cf576040517f08c379a00000000000000000000000000000000000000000000000000000000081526004016118c690612b5b565b60405180910390fd5b60008060068054905014156118e757600090506118f0565b60068054905090505b60066040518061010001604052808381526020018481526020013373ffffffffffffffffffffffffffffffffffffffff168152602001600060ff168152602001600060ff168152602001600060ff168152602001600060ff1681526020016000151581525090806001815401808255809150506001900390600052602060002090600302016000909190919091506000820151816000015560208201518160010190805190602001906119a4929190612241565b5060408201518160020160006101000a81548173ffffffffffffffffffffffffffffffffffffffff021916908373ffffffffffffffffffffffffffffffffffffffff16021790555060608201518160020160146101000a81548160ff021916908360ff16021790555060808201518160020160156101000a81548160ff021916908360ff16021790555060a08201518160020160166101000a81548160ff021916908360ff16021790555060c08201518160020160176101000a81548160ff021916908360ff16021790555060e08201518160020160186101000a81548160ff02191690831515021790555050507f4929aadd7c7b41b15265388dc832cccf47ec8b340cd9ede2295be66828c31974604051611abf90612aad565b60405180910390a15050565b60058181548110611adb57600080fd5b906000526020600020016000915054906101000a900473ffffffffffffffffffffffffffffffffffffffff1681565b60008054906101000a900473ffffffffffffffffffffffffffffffffffffffff1681565b600760019054906101000a900460ff1681565b60008054906101000a900473ffffffffffffffffffffffffffffffffffffffff1673ffffffffffffffffffffffffffffffffffffffff163373ffffffffffffffffffffffffffffffffffffffff1614611bcf576040517f08c379a0000000000000000000000000000000000000000000000000000000008152600401611bc690612b5b565b60405180910390fd5b60005b8251811015611c3857611c25838281518110611c17577f4e487b7100000000000000000000000000000000000000000000000000000000600052603260045260246000fd5b602002602001015183610e72565b8080611c3090612e9e565b915050611bd2565b507fb84c1989d3d20f80b21468c9fa33286565b98348a9528ba60a257eec94d5af0781604051611c689190612acd565b60405180910390a15050565b606081604051602001611c879190612959565b6040516020818303038152906040529050919050565b60008060009054906101000a900473ffffffffffffffffffffffffffffffffffffffff1673ffffffffffffffffffffffffffffffffffffffff163373ffffffffffffffffffffffffffffffffffffffff1614611d2e576040517f08c379a0000000000000000000000000000000000000000000000000000000008152600401611d2590612b5b565b60405180910390fd5b600760009054906101000a900460ff1615611d75576000600760006101000a81548160ff021916908315150217905550600760009054906101000a900460ff169050611da3565b6001600760006101000a81548160ff021916908315150217905550600760009054906101000a900460ff1690505b90565b60028181548110611db657600080fd5b906000526020600020016000915054906101000a900473ffffffffffffffffffffffffffffffffffffffff1681565b60606003805480602002602001604051908101604052809291908181526020018280548015611e6957602002820191906000526020600020905b8160009054906101000a900473ffffffffffffffffffffffffffffffffffffffff1673ffffffffffffffffffffffffffffffffffffffff1681526020019060010190808311611e1f575b5050505050905090565b60016020528060005260406000206000915090508060000160009054906101000a900460ff16908060000160019054906101000a900460ff16908060010154908060020160009054906101000a900473ffffffffffffffffffffffffffffffffffffffff16905084565b60068181548110611eed57600080fd5b9060005260206000209060030201600091509050806000015490806001018054611f1690612e3b565b80601f0160208091040260200160405190810160405280929190818152602001828054611f4290612e3b565b8015611f8f5780601f10611f6457610100808354040283529160200191611f8f565b820191906000526020600020905b815481529060010190602001808311611f7257829003601f168201915b5050505050908060020160009054906101000a900473ffffffffffffffffffffffffffffffffffffffff16908060020160149054906101000a900460ff16908060020160159054906101000a900460ff16908060020160169054906101000a900460ff16908060020160179054906101000a900460ff16908060020160189054906101000a900460ff16905088565b600080600090505b6002805490508160ff1610156120ee5760028160ff1681548110612073577f4e487b7100000000000000000000000000000000000000000000000000000000600052603260045260246000fd5b9060005260206000200160009054906101000a900473ffffffffffffffffffffffffffffffffffffffff1673ffffffffffffffffffffffffffffffffffffffff168373ffffffffffffffffffffffffffffffffffffffff1614156120db5760019150506120f4565b80806120e690612ee7565b915050612026565b50600090505b919050565b60008060009054906101000a900473ffffffffffffffffffffffffffffffffffffffff1673ffffffffffffffffffffffffffffffffffffffff163373ffffffffffffffffffffffffffffffffffffffff161461218a576040517f08c379a000000000000000000000000000000000000000000000000000000000815260040161218190612b5b565b60405180910390fd5b600760019054906101000a900460ff16156121d1576000600760016101000a81548160ff021916908315150217905550600760019054906101000a900460ff1690506121ff565b6001600760016101000a81548160ff021916908315150217905550600760019054906101000a900460ff1690505b90565b6003818154811061221257600080fd5b906000526020600020016000915054906101000a900473ffffffffffffffffffffffffffffffffffffffff1681565b82805461224d90612e3b565b90600052602060002090601f01602090048101928261226f57600085556122b6565b82601f1061228857805160ff19168380011785556122b6565b828001600101855582156122b6579182015b828111156122b557825182559160200191906001019061229a565b5b5090506122c391906122c7565b5090565b5b808211156122e05760008160009055506001016122c8565b5090565b60006122f76122f284612c25565b612c00565b9050808382526020820190508285602086028201111561231657600080fd5b60005b85811015612346578161232c888261238e565b845260208401935060208301925050600181019050612319565b5050509392505050565b600061236361235e84612c51565b612c00565b90508281526020810184848401111561237b57600080fd5b612386848285612df9565b509392505050565b60008135905061239d81613160565b92915050565b600082601f8301126123b457600080fd5b81356123c48482602086016122e4565b91505092915050565b600082601f8301126123de57600080fd5b81356123ee848260208601612350565b91505092915050565b60008135905061240681613177565b92915050565b60006020828403121561241e57600080fd5b600061242c8482850161238e565b91505092915050565b6000806040838503121561244857600080fd5b60006124568582860161238e565b9250506020612467858286016123f7565b9150509250929050565b6000806040838503121561248457600080fd5b600083013567ffffffffffffffff81111561249e57600080fd5b6124aa858286016123a3565b92505060206124bb858286016123f7565b9150509250929050565b6000602082840312156124d757600080fd5b600082013567ffffffffffffffff8111156124f157600080fd5b6124fd848285016123cd565b91505092915050565b60006020828403121561251857600080fd5b6000612526848285016123f7565b91505092915050565b600061253b838361255b565b60208301905092915050565b6000612553838361286d565b905092915050565b61256481612d7f565b82525050565b61257381612d7f565b82525050565b600061258482612ca2565b61258e8185612ce8565b935061259983612c82565b8060005b838110156125ca5781516125b1888261252f565b97506125bc83612cce565b92505060018101905061259d565b5085935050505092915050565b60006125e282612cad565b6125ec8185612cf9565b9350836020820285016125fe85612c92565b8060005b8581101561263a578484038952815161261b8582612547565b945061262683612cdb565b925060208a01995050600181019050612602565b50829750879550505050505092915050565b61265581612d91565b82525050565b61266481612d91565b82525050565b600061267582612cb8565b61267f8185612d0a565b935061268f818560208601612e08565b61269881612fcd565b840191505092915050565b6126ac81612de7565b82525050565b60006126bd82612cc3565b6126c78185612d1b565b93506126d7818560208601612e08565b6126e081612fcd565b840191505092915050565b60006126f682612cc3565b6127008185612d2c565b9350612710818560208601612e08565b61271981612fcd565b840191505092915050565b600061272f82612cc3565b6127398185612d3d565b9350612749818560208601612e08565b80840191505092915050565b6000612762601c83612d2c565b915061276d82612fde565b602082019050919050565b6000612785601e83612d2c565b915061279082613007565b602082019050919050565b60006127a8601e83612d2c565b91506127b382613030565b602082019050919050565b60006127cb602683612d2c565b91506127d682613059565b604082019050919050565b60006127ee601983612d2c565b91506127f9826130a8565b602082019050919050565b6000612811601a83612d2c565b915061281c826130d1565b602082019050919050565b6000612834601583612d2c565b915061283f826130fa565b602082019050919050565b6000612857601a83612d2c565b915061286282613123565b602082019050919050565b600061010083016000830151612886600086018261291d565b506020830151848203602086015261289e82826126b2565b91505060408301516128b3604086018261255b565b5060608301516128c6606086018261293b565b5060808301516128d9608086018261293b565b5060a08301516128ec60a086018261293b565b5060c08301516128ff60c086018261293b565b5060e083015161291260e086018261264c565b508091505092915050565b61292681612dd0565b82525050565b61293581612dd0565b82525050565b61294481612dda565b82525050565b61295381612dda565b82525050565b60006129658284612724565b915081905092915050565b6000602082019050612985600083018461256a565b92915050565b600060208201905081810360008301526129a58184612579565b905092915050565b600060208201905081810360008301526129c781846125d7565b905092915050565b60006020820190506129e4600083018461265b565b92915050565b60006020820190508181036000830152612a04818461266a565b905092915050565b6000608082019050612a2160008301876126a3565b612a2e602083018661265b565b612a3b604083018561292c565b612a48606083018461256a565b95945050505050565b60006020820190508181036000830152612a6a81612755565b9050919050565b60006060820190508181036000830152612a8a81612778565b9050612a99602083018561256a565b612aa6604083018461292c565b9392505050565b60006020820190508181036000830152612ac68161279b565b9050919050565b60006040820190508181036000830152612ae6816127be565b9050612af5602083018461292c565b92915050565b60006020820190508181036000830152612b14816127e1565b9050919050565b60006020820190508181036000830152612b3481612804565b9050919050565b60006020820190508181036000830152612b5481612827565b9050919050565b60006020820190508181036000830152612b748161284a565b9050919050565b600061010082019050612b91600083018b61292c565b8181036020830152612ba3818a6126eb565b9050612bb2604083018961256a565b612bbf606083018861294a565b612bcc608083018761294a565b612bd960a083018661294a565b612be660c083018561294a565b612bf360e083018461265b565b9998505050505050505050565b6000612c0a612c1b565b9050612c168282612e6d565b919050565b6000604051905090565b600067ffffffffffffffff821115612c4057612c3f612f9e565b5b602082029050602081019050919050565b600067ffffffffffffffff821115612c6c57612c6b612f9e565b5b612c7582612fcd565b9050602081019050919050565b6000819050602082019050919050565b6000819050602082019050919050565b600081519050919050565b600081519050919050565b600081519050919050565b600081519050919050565b6000602082019050919050565b6000602082019050919050565b600082825260208201905092915050565b600082825260208201905092915050565b600082825260208201905092915050565b600082825260208201905092915050565b600082825260208201905092915050565b600081905092915050565b6000612d5382612dda565b9150612d5e83612dda565b92508260ff03821115612d7457612d73612f11565b5b828201905092915050565b6000612d8a82612db0565b9050919050565b60008115159050919050565b6000819050612dab8261314c565b919050565b600073ffffffffffffffffffffffffffffffffffffffff82169050919050565b6000819050919050565b600060ff82169050919050565b6000612df282612d9d565b9050919050565b82818337600083830152505050565b60005b83811015612e26578082015181840152602081019050612e0b565b83811115612e35576000848401525b50505050565b60006002820490506001821680612e5357607f821691505b60208210811415612e6757612e66612f6f565b5b50919050565b612e7682612fcd565b810181811067ffffffffffffffff82111715612e9557612e94612f9e565b5b80604052505050565b6000612ea982612dd0565b91507fffffffffffffffffffffffffffffffffffffffffffffffffffffffffffffffff821415612edc57612edb612f11565b5b600182019050919050565b6000612ef282612dda565b915060ff821415612f0657612f05612f11565b5b600182019050919050565b7f4e487b7100000000000000000000000000000000000000000000000000000000600052601160045260246000fd5b7f4e487b7100000000000000000000000000000000000000000000000000000000600052602160045260246000fd5b7f4e487b7100000000000000000000000000000000000000000000000000000000600052602260045260246000fd5b7f4e487b7100000000000000000000000000000000000000000000000000000000600052604160045260246000fd5b6000601f19601f8301169050919050565b7f566f74696e672053657373696f6e206973206e6f742061637469766500000000600082015250565b7f596f75206a75737420637265617465642061207374616b65686f6c6465720000600082015250565b7f596f75206a7573742061646465642061206e65772063616e6469646174650000600082015250565b7f596f75206a7573742063726561746564206d756c7469706c65207374616b656860008201527f6f6c646572730000000000000000000000000000000000000000000000000000602082015250565b7f4973206e6f74207265676973746572656420746f20766f746500000000000000600082015250565b7f596f75206a75737420766f74656420612063616e646964617465000000000000600082015250565b7f596f75206861766520766f746564206265666f72650000000000000000000000600082015250565b7f4f6e6c792043686169726d616e2063616e20646f20746869732e000000000000600082015250565b6004811061315d5761315c612f40565b5b50565b61316981612d7f565b811461317457600080fd5b50565b61318081612dd0565b811461318b57600080fd5b5056fea26469706673582212208c46e5a93b9bded027b02a2d071c5a5000e6632983734b32137839a18834963364736f6c63430008040033",
  "linkReferences": {},
  "deployedLinkReferences": {}
}