{
	"contracts/1-data-types.sol": {
		"DataTypes": {
			"abi": [
				{
					"inputs": [],
					"name": "boolValue",
					"outputs": [
						{
							"internalType": "bool",
							"name": "",
							"type": "bool"
						}
					],
					"stateMutability": "view",
					"type": "function"
				},
				{
					"inputs": [],
					"name": "intValue",
					"outputs": [
						{
							"internalType": "int256",
							"name": "",
							"type": "int256"
						}
					],
					"stateMutability": "view",
					"type": "function"
				},
				{
					"inputs": [],
					"name": "stringValue",
					"outputs": [
						{
							"internalType": "string",
							"name": "",
							"type": "string"
						}
					],
					"stateMutability": "view",
					"type": "function"
				},
				{
					"inputs": [],
					"name": "uintVlue",
					"outputs": [
						{
							"internalType": "uint256",
							"name": "",
							"type": "uint256"
						}
					],
					"stateMutability": "view",
					"type": "function"
				}
			],
			"devdoc": {
				"kind": "dev",
				"methods": {},
				"version": 1
			},
			"evm": {
				"assembly": "    /* \"contracts/1-data-types.sol\":56:186  contract DataTypes{... */\n  mstore(0x40, 0x80)\n  callvalue\n  dup1\n  iszero\n  tag_1\n  jumpi\n  0x00\n  dup1\n  revert\ntag_1:\n  pop\n  dataSize(sub_0)\n  dup1\n  dataOffset(sub_0)\n  0x00\n  codecopy\n  0x00\n  return\nstop\n\nsub_0: assembly {\n        /* \"contracts/1-data-types.sol\":56:186  contract DataTypes{... */\n      mstore(0x40, 0x80)\n      callvalue\n      dup1\n      iszero\n      tag_1\n      jumpi\n      0x00\n      dup1\n      revert\n    tag_1:\n      pop\n      jumpi(tag_2, lt(calldatasize, 0x04))\n      shr(0xe0, calldataload(0x00))\n      dup1\n      0x0c4dae88\n      eq\n      tag_3\n      jumpi\n      dup1\n      0x7dc93929\n      eq\n      tag_4\n      jumpi\n      dup1\n      0x93af578d\n      eq\n      tag_5\n      jumpi\n      dup1\n      0x93b212fa\n      eq\n      tag_6\n      jumpi\n    tag_2:\n      0x00\n      dup1\n      revert\n        /* \"contracts/1-data-types.sol\":80:99  int public intValue */\n    tag_3:\n      tag_7\n      tag_8\n      jump\t// in\n    tag_7:\n      mload(0x40)\n      tag_9\n      swap2\n      swap1\n      tag_10\n      jump\t// in\n    tag_9:\n      mload(0x40)\n      dup1\n      swap2\n      sub\n      swap1\n      return\n        /* \"contracts/1-data-types.sol\":131:156  string public stringValue */\n    tag_4:\n      tag_11\n      tag_12\n      jump\t// in\n    tag_11:\n      mload(0x40)\n      tag_13\n      swap2\n      swap1\n      tag_14\n      jump\t// in\n    tag_13:\n      mload(0x40)\n      dup1\n      swap2\n      sub\n      swap1\n      return\n        /* \"contracts/1-data-types.sol\":162:183  bool public boolValue */\n    tag_5:\n      tag_15\n      tag_16\n      jump\t// in\n    tag_15:\n      mload(0x40)\n      tag_17\n      swap2\n      swap1\n      tag_18\n      jump\t// in\n    tag_17:\n      mload(0x40)\n      dup1\n      swap2\n      sub\n      swap1\n      return\n        /* \"contracts/1-data-types.sol\":105:125  uint public uintVlue */\n    tag_6:\n      tag_19\n      tag_20\n      jump\t// in\n    tag_19:\n      mload(0x40)\n      tag_21\n      swap2\n      swap1\n      tag_22\n      jump\t// in\n    tag_21:\n      mload(0x40)\n      dup1\n      swap2\n      sub\n      swap1\n      return\n        /* \"contracts/1-data-types.sol\":80:99  int public intValue */\n    tag_8:\n      sload(0x00)\n      dup2\n      jump\t// out\n        /* \"contracts/1-data-types.sol\":131:156  string public stringValue */\n    tag_12:\n      0x02\n      dup1\n      sload\n      tag_23\n      swap1\n      tag_24\n      jump\t// in\n    tag_23:\n      dup1\n      0x1f\n      add\n      0x20\n      dup1\n      swap2\n      div\n      mul\n      0x20\n      add\n      mload(0x40)\n      swap1\n      dup2\n      add\n      0x40\n      mstore\n      dup1\n      swap3\n      swap2\n      swap1\n      dup2\n      dup2\n      mstore\n      0x20\n      add\n      dup3\n      dup1\n      sload\n      tag_25\n      swap1\n      tag_24\n      jump\t// in\n    tag_25:\n      dup1\n      iszero\n      tag_26\n      jumpi\n      dup1\n      0x1f\n      lt\n      tag_27\n      jumpi\n      0x0100\n      dup1\n      dup4\n      sload\n      div\n      mul\n      dup4\n      mstore\n      swap2\n      0x20\n      add\n      swap2\n      jump(tag_26)\n    tag_27:\n      dup3\n      add\n      swap2\n      swap1\n      0x00\n      mstore\n      keccak256(0x00, 0x20)\n      swap1\n    tag_28:\n      dup2\n      sload\n      dup2\n      mstore\n      swap1\n      0x01\n      add\n      swap1\n      0x20\n      add\n      dup1\n      dup4\n      gt\n      tag_28\n      jumpi\n      dup3\n      swap1\n      sub\n      0x1f\n      and\n      dup3\n      add\n      swap2\n    tag_26:\n      pop\n      pop\n      pop\n      pop\n      pop\n      dup2\n      jump\t// out\n        /* \"contracts/1-data-types.sol\":162:183  bool public boolValue */\n    tag_16:\n      0x03\n      0x00\n      swap1\n      sload\n      swap1\n      0x0100\n      exp\n      swap1\n      div\n      0xff\n      and\n      dup2\n      jump\t// out\n        /* \"contracts/1-data-types.sol\":105:125  uint public uintVlue */\n    tag_20:\n      sload(0x01)\n      dup2\n      jump\t// out\n        /* \"#utility.yul\":7:83   */\n    tag_29:\n        /* \"#utility.yul\":43:50   */\n      0x00\n        /* \"#utility.yul\":72:77   */\n      dup2\n        /* \"#utility.yul\":61:77   */\n      swap1\n      pop\n        /* \"#utility.yul\":7:83   */\n      swap2\n      swap1\n      pop\n      jump\t// out\n        /* \"#utility.yul\":89:204   */\n    tag_30:\n        /* \"#utility.yul\":174:197   */\n      tag_44\n        /* \"#utility.yul\":191:196   */\n      dup2\n        /* \"#utility.yul\":174:197   */\n      tag_29\n      jump\t// in\n    tag_44:\n        /* \"#utility.yul\":169:172   */\n      dup3\n        /* \"#utility.yul\":162:198   */\n      mstore\n        /* \"#utility.yul\":89:204   */\n      pop\n      pop\n      jump\t// out\n        /* \"#utility.yul\":210:428   */\n    tag_10:\n        /* \"#utility.yul\":301:305   */\n      0x00\n        /* \"#utility.yul\":339:341   */\n      0x20\n        /* \"#utility.yul\":328:337   */\n      dup3\n        /* \"#utility.yul\":324:342   */\n      add\n        /* \"#utility.yul\":316:342   */\n      swap1\n      pop\n        /* \"#utility.yul\":352:421   */\n      tag_46\n        /* \"#utility.yul\":418:419   */\n      0x00\n        /* \"#utility.yul\":407:416   */\n      dup4\n        /* \"#utility.yul\":403:420   */\n      add\n        /* \"#utility.yul\":394:400   */\n      dup5\n        /* \"#utility.yul\":352:421   */\n      tag_30\n      jump\t// in\n    tag_46:\n        /* \"#utility.yul\":210:428   */\n      swap3\n      swap2\n      pop\n      pop\n      jump\t// out\n        /* \"#utility.yul\":434:533   */\n    tag_31:\n        /* \"#utility.yul\":486:492   */\n      0x00\n        /* \"#utility.yul\":520:525   */\n      dup2\n        /* \"#utility.yul\":514:526   */\n      mload\n        /* \"#utility.yul\":504:526   */\n      swap1\n      pop\n        /* \"#utility.yul\":434:533   */\n      swap2\n      swap1\n      pop\n      jump\t// out\n        /* \"#utility.yul\":539:708   */\n    tag_32:\n        /* \"#utility.yul\":623:634   */\n      0x00\n        /* \"#utility.yul\":657:663   */\n      dup3\n        /* \"#utility.yul\":652:655   */\n      dup3\n        /* \"#utility.yul\":645:664   */\n      mstore\n        /* \"#utility.yul\":697:701   */\n      0x20\n        /* \"#utility.yul\":692:695   */\n      dup3\n        /* \"#utility.yul\":688:702   */\n      add\n        /* \"#utility.yul\":673:702   */\n      swap1\n      pop\n        /* \"#utility.yul\":539:708   */\n      swap3\n      swap2\n      pop\n      pop\n      jump\t// out\n        /* \"#utility.yul\":714:960   */\n    tag_33:\n        /* \"#utility.yul\":795:796   */\n      0x00\n        /* \"#utility.yul\":805:918   */\n    tag_50:\n        /* \"#utility.yul\":819:825   */\n      dup4\n        /* \"#utility.yul\":816:817   */\n      dup2\n        /* \"#utility.yul\":813:826   */\n      lt\n        /* \"#utility.yul\":805:918   */\n      iszero\n      tag_52\n      jumpi\n        /* \"#utility.yul\":904:905   */\n      dup1\n        /* \"#utility.yul\":899:902   */\n      dup3\n        /* \"#utility.yul\":895:906   */\n      add\n        /* \"#utility.yul\":889:907   */\n      mload\n        /* \"#utility.yul\":885:886   */\n      dup2\n        /* \"#utility.yul\":880:883   */\n      dup5\n        /* \"#utility.yul\":876:887   */\n      add\n        /* \"#utility.yul\":869:908   */\n      mstore\n        /* \"#utility.yul\":841:843   */\n      0x20\n        /* \"#utility.yul\":838:839   */\n      dup2\n        /* \"#utility.yul\":834:844   */\n      add\n        /* \"#utility.yul\":829:844   */\n      swap1\n      pop\n        /* \"#utility.yul\":805:918   */\n      jump(tag_50)\n    tag_52:\n        /* \"#utility.yul\":952:953   */\n      0x00\n        /* \"#utility.yul\":943:949   */\n      dup5\n        /* \"#utility.yul\":938:941   */\n      dup5\n        /* \"#utility.yul\":934:950   */\n      add\n        /* \"#utility.yul\":927:954   */\n      mstore\n        /* \"#utility.yul\":776:960   */\n      pop\n        /* \"#utility.yul\":714:960   */\n      pop\n      pop\n      pop\n      jump\t// out\n        /* \"#utility.yul\":966:1068   */\n    tag_34:\n        /* \"#utility.yul\":1007:1013   */\n      0x00\n        /* \"#utility.yul\":1058:1060   */\n      0x1f\n        /* \"#utility.yul\":1054:1061   */\n      not\n        /* \"#utility.yul\":1049:1051   */\n      0x1f\n        /* \"#utility.yul\":1042:1047   */\n      dup4\n        /* \"#utility.yul\":1038:1052   */\n      add\n        /* \"#utility.yul\":1034:1062   */\n      and\n        /* \"#utility.yul\":1024:1062   */\n      swap1\n      pop\n        /* \"#utility.yul\":966:1068   */\n      swap2\n      swap1\n      pop\n      jump\t// out\n        /* \"#utility.yul\":1074:1451   */\n    tag_35:\n        /* \"#utility.yul\":1162:1165   */\n      0x00\n        /* \"#utility.yul\":1190:1229   */\n      tag_55\n        /* \"#utility.yul\":1223:1228   */\n      dup3\n        /* \"#utility.yul\":1190:1229   */\n      tag_31\n      jump\t// in\n    tag_55:\n        /* \"#utility.yul\":1245:1316   */\n      tag_56\n        /* \"#utility.yul\":1309:1315   */\n      dup2\n        /* \"#utility.yul\":1304:1307   */\n      dup6\n        /* \"#utility.yul\":1245:1316   */\n      tag_32\n      jump\t// in\n    tag_56:\n        /* \"#utility.yul\":1238:1316   */\n      swap4\n      pop\n        /* \"#utility.yul\":1325:1390   */\n      tag_57\n        /* \"#utility.yul\":1383:1389   */\n      dup2\n        /* \"#utility.yul\":1378:1381   */\n      dup6\n        /* \"#utility.yul\":1371:1375   */\n      0x20\n        /* \"#utility.yul\":1364:1369   */\n      dup7\n        /* \"#utility.yul\":1360:1376   */\n      add\n        /* \"#utility.yul\":1325:1390   */\n      tag_33\n      jump\t// in\n    tag_57:\n        /* \"#utility.yul\":1415:1444   */\n      tag_58\n        /* \"#utility.yul\":1437:1443   */\n      dup2\n        /* \"#utility.yul\":1415:1444   */\n      tag_34\n      jump\t// in\n    tag_58:\n        /* \"#utility.yul\":1410:1413   */\n      dup5\n        /* \"#utility.yul\":1406:1445   */\n      add\n        /* \"#utility.yul\":1399:1445   */\n      swap2\n      pop\n        /* \"#utility.yul\":1166:1451   */\n      pop\n        /* \"#utility.yul\":1074:1451   */\n      swap3\n      swap2\n      pop\n      pop\n      jump\t// out\n        /* \"#utility.yul\":1457:1770   */\n    tag_14:\n        /* \"#utility.yul\":1570:1574   */\n      0x00\n        /* \"#utility.yul\":1608:1610   */\n      0x20\n        /* \"#utility.yul\":1597:1606   */\n      dup3\n        /* \"#utility.yul\":1593:1611   */\n      add\n        /* \"#utility.yul\":1585:1611   */\n      swap1\n      pop\n        /* \"#utility.yul\":1657:1666   */\n      dup2\n        /* \"#utility.yul\":1651:1655   */\n      dup2\n        /* \"#utility.yul\":1647:1667   */\n      sub\n        /* \"#utility.yul\":1643:1644   */\n      0x00\n        /* \"#utility.yul\":1632:1641   */\n      dup4\n        /* \"#utility.yul\":1628:1645   */\n      add\n        /* \"#utility.yul\":1621:1668   */\n      mstore\n        /* \"#utility.yul\":1685:1763   */\n      tag_60\n        /* \"#utility.yul\":1758:1762   */\n      dup2\n        /* \"#utility.yul\":1749:1755   */\n      dup5\n        /* \"#utility.yul\":1685:1763   */\n      tag_35\n      jump\t// in\n    tag_60:\n        /* \"#utility.yul\":1677:1763   */\n      swap1\n      pop\n        /* \"#utility.yul\":1457:1770   */\n      swap3\n      swap2\n      pop\n      pop\n      jump\t// out\n        /* \"#utility.yul\":1776:1866   */\n    tag_36:\n        /* \"#utility.yul\":1810:1817   */\n      0x00\n        /* \"#utility.yul\":1853:1858   */\n      dup2\n        /* \"#utility.yul\":1846:1859   */\n      iszero\n        /* \"#utility.yul\":1839:1860   */\n      iszero\n        /* \"#utility.yul\":1828:1860   */\n      swap1\n      pop\n        /* \"#utility.yul\":1776:1866   */\n      swap2\n      swap1\n      pop\n      jump\t// out\n        /* \"#utility.yul\":1872:1981   */\n    tag_37:\n        /* \"#utility.yul\":1953:1974   */\n      tag_63\n        /* \"#utility.yul\":1968:1973   */\n      dup2\n        /* \"#utility.yul\":1953:1974   */\n      tag_36\n      jump\t// in\n    tag_63:\n        /* \"#utility.yul\":1948:1951   */\n      dup3\n        /* \"#utility.yul\":1941:1975   */\n      mstore\n        /* \"#utility.yul\":1872:1981   */\n      pop\n      pop\n      jump\t// out\n        /* \"#utility.yul\":1987:2197   */\n    tag_18:\n        /* \"#utility.yul\":2074:2078   */\n      0x00\n        /* \"#utility.yul\":2112:2114   */\n      0x20\n        /* \"#utility.yul\":2101:2110   */\n      dup3\n        /* \"#utility.yul\":2097:2115   */\n      add\n        /* \"#utility.yul\":2089:2115   */\n      swap1\n      pop\n        /* \"#utility.yul\":2125:2190   */\n      tag_65\n        /* \"#utility.yul\":2187:2188   */\n      0x00\n        /* \"#utility.yul\":2176:2185   */\n      dup4\n        /* \"#utility.yul\":2172:2189   */\n      add\n        /* \"#utility.yul\":2163:2169   */\n      dup5\n        /* \"#utility.yul\":2125:2190   */\n      tag_37\n      jump\t// in\n    tag_65:\n        /* \"#utility.yul\":1987:2197   */\n      swap3\n      swap2\n      pop\n      pop\n      jump\t// out\n        /* \"#utility.yul\":2203:2280   */\n    tag_38:\n        /* \"#utility.yul\":2240:2247   */\n      0x00\n        /* \"#utility.yul\":2269:2274   */\n      dup2\n        /* \"#utility.yul\":2258:2274   */\n      swap1\n      pop\n        /* \"#utility.yul\":2203:2280   */\n      swap2\n      swap1\n      pop\n      jump\t// out\n        /* \"#utility.yul\":2286:2404   */\n    tag_39:\n        /* \"#utility.yul\":2373:2397   */\n      tag_68\n        /* \"#utility.yul\":2391:2396   */\n      dup2\n        /* \"#utility.yul\":2373:2397   */\n      tag_38\n      jump\t// in\n    tag_68:\n        /* \"#utility.yul\":2368:2371   */\n      dup3\n        /* \"#utility.yul\":2361:2398   */\n      mstore\n        /* \"#utility.yul\":2286:2404   */\n      pop\n      pop\n      jump\t// out\n        /* \"#utility.yul\":2410:2632   */\n    tag_22:\n        /* \"#utility.yul\":2503:2507   */\n      0x00\n        /* \"#utility.yul\":2541:2543   */\n      0x20\n        /* \"#utility.yul\":2530:2539   */\n      dup3\n        /* \"#utility.yul\":2526:2544   */\n      add\n        /* \"#utility.yul\":2518:2544   */\n      swap1\n      pop\n        /* \"#utility.yul\":2554:2625   */\n      tag_70\n        /* \"#utility.yul\":2622:2623   */\n      0x00\n        /* \"#utility.yul\":2611:2620   */\n      dup4\n        /* \"#utility.yul\":2607:2624   */\n      add\n        /* \"#utility.yul\":2598:2604   */\n      dup5\n        /* \"#utility.yul\":2554:2625   */\n      tag_39\n      jump\t// in\n    tag_70:\n        /* \"#utility.yul\":2410:2632   */\n      swap3\n      swap2\n      pop\n      pop\n      jump\t// out\n        /* \"#utility.yul\":2638:2818   */\n    tag_40:\n        /* \"#utility.yul\":2686:2763   */\n      0x4e487b7100000000000000000000000000000000000000000000000000000000\n        /* \"#utility.yul\":2683:2684   */\n      0x00\n        /* \"#utility.yul\":2676:2764   */\n      mstore\n        /* \"#utility.yul\":2783:2787   */\n      0x22\n        /* \"#utility.yul\":2780:2781   */\n      0x04\n        /* \"#utility.yul\":2773:2788   */\n      mstore\n        /* \"#utility.yul\":2807:2811   */\n      0x24\n        /* \"#utility.yul\":2804:2805   */\n      0x00\n        /* \"#utility.yul\":2797:2812   */\n      revert\n        /* \"#utility.yul\":2824:3144   */\n    tag_24:\n        /* \"#utility.yul\":2868:2874   */\n      0x00\n        /* \"#utility.yul\":2905:2906   */\n      0x02\n        /* \"#utility.yul\":2899:2903   */\n      dup3\n        /* \"#utility.yul\":2895:2907   */\n      div\n        /* \"#utility.yul\":2885:2907   */\n      swap1\n      pop\n        /* \"#utility.yul\":2952:2953   */\n      0x01\n        /* \"#utility.yul\":2946:2950   */\n      dup3\n        /* \"#utility.yul\":2942:2954   */\n      and\n        /* \"#utility.yul\":2973:2991   */\n      dup1\n        /* \"#utility.yul\":2963:3044   */\n      tag_73\n      jumpi\n        /* \"#utility.yul\":3029:3033   */\n      0x7f\n        /* \"#utility.yul\":3021:3027   */\n      dup3\n        /* \"#utility.yul\":3017:3034   */\n      and\n        /* \"#utility.yul\":3007:3034   */\n      swap2\n      pop\n        /* \"#utility.yul\":2963:3044   */\n    tag_73:\n        /* \"#utility.yul\":3091:3093   */\n      0x20\n        /* \"#utility.yul\":3083:3089   */\n      dup3\n        /* \"#utility.yul\":3080:3094   */\n      lt\n        /* \"#utility.yul\":3060:3078   */\n      dup2\n        /* \"#utility.yul\":3057:3095   */\n      sub\n        /* \"#utility.yul\":3054:3138   */\n      tag_74\n      jumpi\n        /* \"#utility.yul\":3110:3128   */\n      tag_75\n      tag_40\n      jump\t// in\n    tag_75:\n        /* \"#utility.yul\":3054:3138   */\n    tag_74:\n        /* \"#utility.yul\":2875:3144   */\n      pop\n        /* \"#utility.yul\":2824:3144   */\n      swap2\n      swap1\n      pop\n      jump\t// out\n\n    auxdata: 0xa264697066735822122086d39a82d1632a34b477813d64fb56ecc893b8a3b89458489fca4f6fa760027964736f6c63430008130033\n}\n",
				"bytecode": {
					"linkReferences": {},
					"object": "608060405234801561001057600080fd5b5061035c806100206000396000f3fe608060405234801561001057600080fd5b506004361061004c5760003560e01c80630c4dae88146100515780637dc939291461006f57806393af578d1461008d57806393b212fa146100ab575b600080fd5b6100596100c9565b604051610066919061018f565b60405180910390f35b6100776100cf565b604051610084919061023a565b60405180910390f35b61009561015d565b6040516100a29190610277565b60405180910390f35b6100b3610170565b6040516100c091906102ab565b60405180910390f35b60005481565b600280546100dc906102f5565b80601f0160208091040260200160405190810160405280929190818152602001828054610108906102f5565b80156101555780601f1061012a57610100808354040283529160200191610155565b820191906000526020600020905b81548152906001019060200180831161013857829003601f168201915b505050505081565b600360009054906101000a900460ff1681565b60015481565b6000819050919050565b61018981610176565b82525050565b60006020820190506101a46000830184610180565b92915050565b600081519050919050565b600082825260208201905092915050565b60005b838110156101e45780820151818401526020810190506101c9565b60008484015250505050565b6000601f19601f8301169050919050565b600061020c826101aa565b61021681856101b5565b93506102268185602086016101c6565b61022f816101f0565b840191505092915050565b600060208201905081810360008301526102548184610201565b905092915050565b60008115159050919050565b6102718161025c565b82525050565b600060208201905061028c6000830184610268565b92915050565b6000819050919050565b6102a581610292565b82525050565b60006020820190506102c0600083018461029c565b92915050565b7f4e487b7100000000000000000000000000000000000000000000000000000000600052602260045260246000fd5b6000600282049050600182168061030d57607f821691505b6020821081036103205761031f6102c6565b5b5091905056fea264697066735822122086d39a82d1632a34b477813d64fb56ecc893b8a3b89458489fca4f6fa760027964736f6c63430008130033",
					"opcodes": "PUSH1 0x80 PUSH1 0x40 MSTORE CALLVALUE DUP1 ISZERO PUSH2 0x10 JUMPI PUSH1 0x0 DUP1 REVERT JUMPDEST POP PUSH2 0x35C DUP1 PUSH2 0x20 PUSH1 0x0 CODECOPY PUSH1 0x0 RETURN INVALID PUSH1 0x80 PUSH1 0x40 MSTORE CALLVALUE DUP1 ISZERO PUSH2 0x10 JUMPI PUSH1 0x0 DUP1 REVERT JUMPDEST POP PUSH1 0x4 CALLDATASIZE LT PUSH2 0x4C JUMPI PUSH1 0x0 CALLDATALOAD PUSH1 0xE0 SHR DUP1 PUSH4 0xC4DAE88 EQ PUSH2 0x51 JUMPI DUP1 PUSH4 0x7DC93929 EQ PUSH2 0x6F JUMPI DUP1 PUSH4 0x93AF578D EQ PUSH2 0x8D JUMPI DUP1 PUSH4 0x93B212FA EQ PUSH2 0xAB JUMPI JUMPDEST PUSH1 0x0 DUP1 REVERT JUMPDEST PUSH2 0x59 PUSH2 0xC9 JUMP JUMPDEST PUSH1 0x40 MLOAD PUSH2 0x66 SWAP2 SWAP1 PUSH2 0x18F JUMP JUMPDEST PUSH1 0x40 MLOAD DUP1 SWAP2 SUB SWAP1 RETURN JUMPDEST PUSH2 0x77 PUSH2 0xCF JUMP JUMPDEST PUSH1 0x40 MLOAD PUSH2 0x84 SWAP2 SWAP1 PUSH2 0x23A JUMP JUMPDEST PUSH1 0x40 MLOAD DUP1 SWAP2 SUB SWAP1 RETURN JUMPDEST PUSH2 0x95 PUSH2 0x15D JUMP JUMPDEST PUSH1 0x40 MLOAD PUSH2 0xA2 SWAP2 SWAP1 PUSH2 0x277 JUMP JUMPDEST PUSH1 0x40 MLOAD DUP1 SWAP2 SUB SWAP1 RETURN JUMPDEST PUSH2 0xB3 PUSH2 0x170 JUMP JUMPDEST PUSH1 0x40 MLOAD PUSH2 0xC0 SWAP2 SWAP1 PUSH2 0x2AB JUMP JUMPDEST PUSH1 0x40 MLOAD DUP1 SWAP2 SUB SWAP1 RETURN JUMPDEST PUSH1 0x0 SLOAD DUP2 JUMP JUMPDEST PUSH1 0x2 DUP1 SLOAD PUSH2 0xDC SWAP1 PUSH2 0x2F5 JUMP JUMPDEST DUP1 PUSH1 0x1F ADD PUSH1 0x20 DUP1 SWAP2 DIV MUL PUSH1 0x20 ADD PUSH1 0x40 MLOAD SWAP1 DUP2 ADD PUSH1 0x40 MSTORE DUP1 SWAP3 SWAP2 SWAP1 DUP2 DUP2 MSTORE PUSH1 0x20 ADD DUP3 DUP1 SLOAD PUSH2 0x108 SWAP1 PUSH2 0x2F5 JUMP JUMPDEST DUP1 ISZERO PUSH2 0x155 JUMPI DUP1 PUSH1 0x1F LT PUSH2 0x12A JUMPI PUSH2 0x100 DUP1 DUP4 SLOAD DIV MUL DUP4 MSTORE SWAP2 PUSH1 0x20 ADD SWAP2 PUSH2 0x155 JUMP JUMPDEST DUP3 ADD SWAP2 SWAP1 PUSH1 0x0 MSTORE PUSH1 0x20 PUSH1 0x0 KECCAK256 SWAP1 JUMPDEST DUP2 SLOAD DUP2 MSTORE SWAP1 PUSH1 0x1 ADD SWAP1 PUSH1 0x20 ADD DUP1 DUP4 GT PUSH2 0x138 JUMPI DUP3 SWAP1 SUB PUSH1 0x1F AND DUP3 ADD SWAP2 JUMPDEST POP POP POP POP POP DUP2 JUMP JUMPDEST PUSH1 0x3 PUSH1 0x0 SWAP1 SLOAD SWAP1 PUSH2 0x100 EXP SWAP1 DIV PUSH1 0xFF AND DUP2 JUMP JUMPDEST PUSH1 0x1 SLOAD DUP2 JUMP JUMPDEST PUSH1 0x0 DUP2 SWAP1 POP SWAP2 SWAP1 POP JUMP JUMPDEST PUSH2 0x189 DUP2 PUSH2 0x176 JUMP JUMPDEST DUP3 MSTORE POP POP JUMP JUMPDEST PUSH1 0x0 PUSH1 0x20 DUP3 ADD SWAP1 POP PUSH2 0x1A4 PUSH1 0x0 DUP4 ADD DUP5 PUSH2 0x180 JUMP JUMPDEST SWAP3 SWAP2 POP POP JUMP JUMPDEST PUSH1 0x0 DUP2 MLOAD SWAP1 POP SWAP2 SWAP1 POP JUMP JUMPDEST PUSH1 0x0 DUP3 DUP3 MSTORE PUSH1 0x20 DUP3 ADD SWAP1 POP SWAP3 SWAP2 POP POP JUMP JUMPDEST PUSH1 0x0 JUMPDEST DUP4 DUP2 LT ISZERO PUSH2 0x1E4 JUMPI DUP1 DUP3 ADD MLOAD DUP2 DUP5 ADD MSTORE PUSH1 0x20 DUP2 ADD SWAP1 POP PUSH2 0x1C9 JUMP JUMPDEST PUSH1 0x0 DUP5 DUP5 ADD MSTORE POP POP POP POP JUMP JUMPDEST PUSH1 0x0 PUSH1 0x1F NOT PUSH1 0x1F DUP4 ADD AND SWAP1 POP SWAP2 SWAP1 POP JUMP JUMPDEST PUSH1 0x0 PUSH2 0x20C DUP3 PUSH2 0x1AA JUMP JUMPDEST PUSH2 0x216 DUP2 DUP6 PUSH2 0x1B5 JUMP JUMPDEST SWAP4 POP PUSH2 0x226 DUP2 DUP6 PUSH1 0x20 DUP7 ADD PUSH2 0x1C6 JUMP JUMPDEST PUSH2 0x22F DUP2 PUSH2 0x1F0 JUMP JUMPDEST DUP5 ADD SWAP2 POP POP SWAP3 SWAP2 POP POP JUMP JUMPDEST PUSH1 0x0 PUSH1 0x20 DUP3 ADD SWAP1 POP DUP2 DUP2 SUB PUSH1 0x0 DUP4 ADD MSTORE PUSH2 0x254 DUP2 DUP5 PUSH2 0x201 JUMP JUMPDEST SWAP1 POP SWAP3 SWAP2 POP POP JUMP JUMPDEST PUSH1 0x0 DUP2 ISZERO ISZERO SWAP1 POP SWAP2 SWAP1 POP JUMP JUMPDEST PUSH2 0x271 DUP2 PUSH2 0x25C JUMP JUMPDEST DUP3 MSTORE POP POP JUMP JUMPDEST PUSH1 0x0 PUSH1 0x20 DUP3 ADD SWAP1 POP PUSH2 0x28C PUSH1 0x0 DUP4 ADD DUP5 PUSH2 0x268 JUMP JUMPDEST SWAP3 SWAP2 POP POP JUMP JUMPDEST PUSH1 0x0 DUP2 SWAP1 POP SWAP2 SWAP1 POP JUMP JUMPDEST PUSH2 0x2A5 DUP2 PUSH2 0x292 JUMP JUMPDEST DUP3 MSTORE POP POP JUMP JUMPDEST PUSH1 0x0 PUSH1 0x20 DUP3 ADD SWAP1 POP PUSH2 0x2C0 PUSH1 0x0 DUP4 ADD DUP5 PUSH2 0x29C JUMP JUMPDEST SWAP3 SWAP2 POP POP JUMP JUMPDEST PUSH32 0x4E487B7100000000000000000000000000000000000000000000000000000000 PUSH1 0x0 MSTORE PUSH1 0x22 PUSH1 0x4 MSTORE PUSH1 0x24 PUSH1 0x0 REVERT JUMPDEST PUSH1 0x0 PUSH1 0x2 DUP3 DIV SWAP1 POP PUSH1 0x1 DUP3 AND DUP1 PUSH2 0x30D JUMPI PUSH1 0x7F DUP3 AND SWAP2 POP JUMPDEST PUSH1 0x20 DUP3 LT DUP2 SUB PUSH2 0x320 JUMPI PUSH2 0x31F PUSH2 0x2C6 JUMP JUMPDEST JUMPDEST POP SWAP2 SWAP1 POP JUMP INVALID LOG2 PUSH5 0x6970667358 0x22 SLT KECCAK256 DUP7 0xD3 SWAP11 DUP3 0xD1 PUSH4 0x2A34B477 DUP2 RETURNDATASIZE PUSH5 0xFB56ECC893 0xB8 LOG3 0xB8 SWAP5 PC BASEFEE SWAP16 0xCA 0x4F PUSH16 0xA760027964736F6C6343000813003300 "
				},
				"gasEstimates": {
					"creation": {
						"codeDepositCost": "172000",
						"executionCost": "214",
						"totalCost": "172214"
					},
					"external": {
						"boolValue()": "2493",
						"intValue()": "2407",
						"stringValue()": "infinite",
						"uintVlue()": "2473"
					}
				},
				"methodIdentifiers": {
					"boolValue()": "93af578d",
					"intValue()": "0c4dae88",
					"stringValue()": "7dc93929",
					"uintVlue()": "93b212fa"
				}
			},
			"storageLayout": {
				"storage": [
					{
						"astId": 3,
						"contract": "contracts/1-data-types.sol:DataTypes",
						"label": "intValue",
						"offset": 0,
						"slot": "0",
						"type": "t_int256"
					},
					{
						"astId": 5,
						"contract": "contracts/1-data-types.sol:DataTypes",
						"label": "uintVlue",
						"offset": 0,
						"slot": "1",
						"type": "t_uint256"
					},
					{
						"astId": 7,
						"contract": "contracts/1-data-types.sol:DataTypes",
						"label": "stringValue",
						"offset": 0,
						"slot": "2",
						"type": "t_string_storage"
					},
					{
						"astId": 9,
						"contract": "contracts/1-data-types.sol:DataTypes",
						"label": "boolValue",
						"offset": 0,
						"slot": "3",
						"type": "t_bool"
					}
				],
				"types": {
					"t_bool": {
						"encoding": "inplace",
						"label": "bool",
						"numberOfBytes": "1"
					},
					"t_int256": {
						"encoding": "inplace",
						"label": "int256",
						"numberOfBytes": "32"
					},
					"t_string_storage": {
						"encoding": "bytes",
						"label": "string",
						"numberOfBytes": "32"
					},
					"t_uint256": {
						"encoding": "inplace",
						"label": "uint256",
						"numberOfBytes": "32"
					}
				}
			},
			"userdoc": {
				"kind": "user",
				"methods": {},
				"version": 1
			}
		}
	}
}