{
	"contracts/12-Insurance-record.sol": {
		"InsuracneRecord": {
			"abi": [
				{
					"inputs": [],
					"stateMutability": "nonpayable",
					"type": "constructor"
				},
				{
					"inputs": [
						{
							"internalType": "address",
							"name": "to",
							"type": "address"
						},
						{
							"internalType": "string",
							"name": "name",
							"type": "string"
						},
						{
							"internalType": "uint256",
							"name": "amount",
							"type": "uint256"
						}
					],
					"name": "addRecord",
					"outputs": [],
					"stateMutability": "nonpayable",
					"type": "function"
				},
				{
					"inputs": [],
					"name": "getAllRecords",
					"outputs": [
						{
							"components": [
								{
									"internalType": "address",
									"name": "to",
									"type": "address"
								},
								{
									"internalType": "string",
									"name": "name",
									"type": "string"
								},
								{
									"internalType": "uint256",
									"name": "amount",
									"type": "uint256"
								}
							],
							"internalType": "struct InsuracneRecord.Records[]",
							"name": "",
							"type": "tuple[]"
						}
					],
					"stateMutability": "view",
					"type": "function"
				},
				{
					"inputs": [],
					"name": "getRecordsByAddress",
					"outputs": [
						{
							"components": [
								{
									"internalType": "address",
									"name": "to",
									"type": "address"
								},
								{
									"internalType": "string",
									"name": "name",
									"type": "string"
								},
								{
									"internalType": "uint256",
									"name": "amount",
									"type": "uint256"
								}
							],
							"internalType": "struct InsuracneRecord.Records[]",
							"name": "",
							"type": "tuple[]"
						}
					],
					"stateMutability": "view",
					"type": "function"
				}
			],
			"devdoc": {
				"kind": "dev",
				"methods": {},
				"version": 1
			},
			"evm": {
				"assembly": "    /* \"contracts/12-Insurance-record.sol\":56:896  contract InsuracneRecord{... */\n  mstore(0x40, 0x80)\n    /* \"contracts/12-Insurance-record.sol\":106:155  constructor() {... */\n  callvalue\n  dup1\n  iszero\n  tag_1\n  jumpi\n  0x00\n  dup1\n  revert\ntag_1:\n  pop\n    /* \"contracts/12-Insurance-record.sol\":138:148  msg.sender */\n  caller\n    /* \"contracts/12-Insurance-record.sol\":130:135  owner */\n  0x00\n  dup1\n    /* \"contracts/12-Insurance-record.sol\":130:148  owner = msg.sender */\n  0x0100\n  exp\n  dup2\n  sload\n  dup2\n  0xffffffffffffffffffffffffffffffffffffffff\n  mul\n  not\n  and\n  swap1\n  dup4\n  0xffffffffffffffffffffffffffffffffffffffff\n  and\n  mul\n  or\n  swap1\n  sstore\n  pop\n    /* \"contracts/12-Insurance-record.sol\":56:896  contract InsuracneRecord{... */\n  dataSize(sub_0)\n  dup1\n  dataOffset(sub_0)\n  0x00\n  codecopy\n  0x00\n  return\nstop\n\nsub_0: assembly {\n        /* \"contracts/12-Insurance-record.sol\":56:896  contract InsuracneRecord{... */\n      mstore(0x40, 0x80)\n      callvalue\n      dup1\n      iszero\n      tag_1\n      jumpi\n      0x00\n      dup1\n      revert\n    tag_1:\n      pop\n      jumpi(tag_2, lt(calldatasize, 0x04))\n      shr(0xe0, calldataload(0x00))\n      dup1\n      0x1afed255\n      eq\n      tag_3\n      jumpi\n      dup1\n      0x9fab879e\n      eq\n      tag_4\n      jumpi\n      dup1\n      0xa7f9fe72\n      eq\n      tag_5\n      jumpi\n    tag_2:\n      0x00\n      dup1\n      revert\n        /* \"contracts/12-Insurance-record.sol\":779:893  function getRecordsByAddress() public view returns(Records[] memory){... */\n    tag_3:\n      tag_6\n      tag_7\n      jump\t// in\n    tag_6:\n      mload(0x40)\n      tag_8\n      swap2\n      swap1\n      tag_9\n      jump\t// in\n    tag_8:\n      mload(0x40)\n      dup1\n      swap2\n      sub\n      swap1\n      return\n        /* \"contracts/12-Insurance-record.sol\":429:662  function addRecord(address to, string memory name, uint amount) public onlyOwner {... */\n    tag_4:\n      tag_10\n      0x04\n      dup1\n      calldatasize\n      sub\n      dup2\n      add\n      swap1\n      tag_11\n      swap2\n      swap1\n      tag_12\n      jump\t// in\n    tag_11:\n      tag_13\n      jump\t// in\n    tag_10:\n      stop\n        /* \"contracts/12-Insurance-record.sol\":669:773  function getAllRecords() public onlyOwner view returns(Records[] memory) {... */\n    tag_5:\n      tag_14\n      tag_15\n      jump\t// in\n    tag_14:\n      mload(0x40)\n      tag_16\n      swap2\n      swap1\n      tag_9\n      jump\t// in\n    tag_16:\n      mload(0x40)\n      dup1\n      swap2\n      sub\n      swap1\n      return\n        /* \"contracts/12-Insurance-record.sol\":779:893  function getRecordsByAddress() public view returns(Records[] memory){... */\n    tag_7:\n        /* \"contracts/12-Insurance-record.sol\":830:846  Records[] memory */\n      0x60\n        /* \"contracts/12-Insurance-record.sol\":864:874  recordsMap */\n      0x02\n        /* \"contracts/12-Insurance-record.sol\":864:886  recordsMap[msg.sender] */\n      0x00\n        /* \"contracts/12-Insurance-record.sol\":875:885  msg.sender */\n      caller\n        /* \"contracts/12-Insurance-record.sol\":864:886  recordsMap[msg.sender] */\n      0xffffffffffffffffffffffffffffffffffffffff\n      and\n      0xffffffffffffffffffffffffffffffffffffffff\n      and\n      dup2\n      mstore\n      0x20\n      add\n      swap1\n      dup2\n      mstore\n      0x20\n      add\n      0x00\n      keccak256\n        /* \"contracts/12-Insurance-record.sol\":857:886  return recordsMap[msg.sender] */\n      dup1\n      sload\n      dup1\n      0x20\n      mul\n      0x20\n      add\n      mload(0x40)\n      swap1\n      dup2\n      add\n      0x40\n      mstore\n      dup1\n      swap3\n      swap2\n      swap1\n      dup2\n      dup2\n      mstore\n      0x20\n      add\n      0x00\n      swap1\n    tag_18:\n      dup3\n      dup3\n      lt\n      iszero\n      tag_19\n      jumpi\n      dup4\n      dup3\n      swap1\n      0x00\n      mstore\n      keccak256(0x00, 0x20)\n      swap1\n      0x03\n      mul\n      add\n      mload(0x40)\n      dup1\n      0x60\n      add\n      0x40\n      mstore\n      swap1\n      dup2\n      0x00\n      dup3\n      add\n      0x00\n      swap1\n      sload\n      swap1\n      0x0100\n      exp\n      swap1\n      div\n      0xffffffffffffffffffffffffffffffffffffffff\n      and\n      0xffffffffffffffffffffffffffffffffffffffff\n      and\n      0xffffffffffffffffffffffffffffffffffffffff\n      and\n      dup2\n      mstore\n      0x20\n      add\n      0x01\n      dup3\n      add\n      dup1\n      sload\n      tag_21\n      swap1\n      tag_22\n      jump\t// in\n    tag_21:\n      dup1\n      0x1f\n      add\n      0x20\n      dup1\n      swap2\n      div\n      mul\n      0x20\n      add\n      mload(0x40)\n      swap1\n      dup2\n      add\n      0x40\n      mstore\n      dup1\n      swap3\n      swap2\n      swap1\n      dup2\n      dup2\n      mstore\n      0x20\n      add\n      dup3\n      dup1\n      sload\n      tag_23\n      swap1\n      tag_22\n      jump\t// in\n    tag_23:\n      dup1\n      iszero\n      tag_24\n      jumpi\n      dup1\n      0x1f\n      lt\n      tag_25\n      jumpi\n      0x0100\n      dup1\n      dup4\n      sload\n      div\n      mul\n      dup4\n      mstore\n      swap2\n      0x20\n      add\n      swap2\n      jump(tag_24)\n    tag_25:\n      dup3\n      add\n      swap2\n      swap1\n      0x00\n      mstore\n      keccak256(0x00, 0x20)\n      swap1\n    tag_26:\n      dup2\n      sload\n      dup2\n      mstore\n      swap1\n      0x01\n      add\n      swap1\n      0x20\n      add\n      dup1\n      dup4\n      gt\n      tag_26\n      jumpi\n      dup3\n      swap1\n      sub\n      0x1f\n      and\n      dup3\n      add\n      swap2\n    tag_24:\n      pop\n      pop\n      pop\n      pop\n      pop\n      dup2\n      mstore\n      0x20\n      add\n      0x02\n      dup3\n      add\n      sload\n      dup2\n      mstore\n      pop\n      pop\n      dup2\n      mstore\n      0x20\n      add\n      swap1\n      0x01\n      add\n      swap1\n      jump(tag_18)\n    tag_19:\n      pop\n      pop\n      pop\n      pop\n      swap1\n      pop\n        /* \"contracts/12-Insurance-record.sol\":779:893  function getRecordsByAddress() public view returns(Records[] memory){... */\n      swap1\n      jump\t// out\n        /* \"contracts/12-Insurance-record.sol\":429:662  function addRecord(address to, string memory name, uint amount) public onlyOwner {... */\n    tag_13:\n        /* \"contracts/12-Insurance-record.sol\":211:216  owner */\n      0x00\n      dup1\n      sload\n      swap1\n      0x0100\n      exp\n      swap1\n      div\n      0xffffffffffffffffffffffffffffffffffffffff\n      and\n        /* \"contracts/12-Insurance-record.sol\":197:216  msg.sender == owner */\n      0xffffffffffffffffffffffffffffffffffffffff\n      and\n        /* \"contracts/12-Insurance-record.sol\":197:207  msg.sender */\n      caller\n        /* \"contracts/12-Insurance-record.sol\":197:216  msg.sender == owner */\n      0xffffffffffffffffffffffffffffffffffffffff\n      and\n      eq\n        /* \"contracts/12-Insurance-record.sol\":189:238  require(msg.sender == owner, \"You are not owner\") */\n      tag_28\n      jumpi\n      mload(0x40)\n      0x08c379a000000000000000000000000000000000000000000000000000000000\n      dup2\n      mstore\n      0x04\n      add\n      tag_29\n      swap1\n      tag_30\n      jump\t// in\n    tag_29:\n      mload(0x40)\n      dup1\n      swap2\n      sub\n      swap1\n      revert\n    tag_28:\n        /* \"contracts/12-Insurance-record.sol\":520:527  records */\n      0x01\n        /* \"contracts/12-Insurance-record.sol\":546:569  Records(to,name,amount) */\n      mload(0x40)\n      dup1\n      0x60\n      add\n      0x40\n      mstore\n      dup1\n        /* \"contracts/12-Insurance-record.sol\":554:556  to */\n      dup6\n        /* \"contracts/12-Insurance-record.sol\":546:569  Records(to,name,amount) */\n      0xffffffffffffffffffffffffffffffffffffffff\n      and\n      dup2\n      mstore\n      0x20\n      add\n        /* \"contracts/12-Insurance-record.sol\":557:561  name */\n      dup5\n        /* \"contracts/12-Insurance-record.sol\":546:569  Records(to,name,amount) */\n      dup2\n      mstore\n      0x20\n      add\n        /* \"contracts/12-Insurance-record.sol\":562:568  amount */\n      dup4\n        /* \"contracts/12-Insurance-record.sol\":546:569  Records(to,name,amount) */\n      dup2\n      mstore\n      pop\n        /* \"contracts/12-Insurance-record.sol\":520:579  records.push(... */\n      swap1\n      dup1\n      0x01\n      dup2\n      sload\n      add\n      dup1\n      dup3\n      sstore\n      dup1\n      swap2\n      pop\n      pop\n      0x01\n      swap1\n      sub\n      swap1\n      0x00\n      mstore\n      keccak256(0x00, 0x20)\n      swap1\n      0x03\n      mul\n      add\n      0x00\n      swap1\n      swap2\n      swap1\n      swap2\n      swap1\n      swap2\n      pop\n      0x00\n      dup3\n      add\n      mload\n      dup2\n      0x00\n      add\n      exp(0x0100, 0x00)\n      dup2\n      sload\n      dup2\n      0xffffffffffffffffffffffffffffffffffffffff\n      mul\n      not\n      and\n      swap1\n      dup4\n      0xffffffffffffffffffffffffffffffffffffffff\n      and\n      mul\n      or\n      swap1\n      sstore\n      pop\n      0x20\n      dup3\n      add\n      mload\n      dup2\n      0x01\n      add\n      swap1\n      dup2\n      tag_33\n      swap2\n      swap1\n      tag_34\n      jump\t// in\n    tag_33:\n      pop\n      0x40\n      dup3\n      add\n      mload\n      dup2\n      0x02\n      add\n      sstore\n      pop\n      pop\n        /* \"contracts/12-Insurance-record.sol\":589:599  recordsMap */\n      0x02\n        /* \"contracts/12-Insurance-record.sol\":589:603  recordsMap[to] */\n      0x00\n        /* \"contracts/12-Insurance-record.sol\":600:602  to */\n      dup5\n        /* \"contracts/12-Insurance-record.sol\":589:603  recordsMap[to] */\n      0xffffffffffffffffffffffffffffffffffffffff\n      and\n      0xffffffffffffffffffffffffffffffffffffffff\n      and\n      dup2\n      mstore\n      0x20\n      add\n      swap1\n      dup2\n      mstore\n      0x20\n      add\n      0x00\n      keccak256\n        /* \"contracts/12-Insurance-record.sol\":622:645  Records(to,name,amount) */\n      mload(0x40)\n      dup1\n      0x60\n      add\n      0x40\n      mstore\n      dup1\n        /* \"contracts/12-Insurance-record.sol\":630:632  to */\n      dup6\n        /* \"contracts/12-Insurance-record.sol\":622:645  Records(to,name,amount) */\n      0xffffffffffffffffffffffffffffffffffffffff\n      and\n      dup2\n      mstore\n      0x20\n      add\n        /* \"contracts/12-Insurance-record.sol\":633:637  name */\n      dup5\n        /* \"contracts/12-Insurance-record.sol\":622:645  Records(to,name,amount) */\n      dup2\n      mstore\n      0x20\n      add\n        /* \"contracts/12-Insurance-record.sol\":638:644  amount */\n      dup4\n        /* \"contracts/12-Insurance-record.sol\":622:645  Records(to,name,amount) */\n      dup2\n      mstore\n      pop\n        /* \"contracts/12-Insurance-record.sol\":589:655  recordsMap[to].push(... */\n      swap1\n      dup1\n      0x01\n      dup2\n      sload\n      add\n      dup1\n      dup3\n      sstore\n      dup1\n      swap2\n      pop\n      pop\n      0x01\n      swap1\n      sub\n      swap1\n      0x00\n      mstore\n      keccak256(0x00, 0x20)\n      swap1\n      0x03\n      mul\n      add\n      0x00\n      swap1\n      swap2\n      swap1\n      swap2\n      swap1\n      swap2\n      pop\n      0x00\n      dup3\n      add\n      mload\n      dup2\n      0x00\n      add\n      exp(0x0100, 0x00)\n      dup2\n      sload\n      dup2\n      0xffffffffffffffffffffffffffffffffffffffff\n      mul\n      not\n      and\n      swap1\n      dup4\n      0xffffffffffffffffffffffffffffffffffffffff\n      and\n      mul\n      or\n      swap1\n      sstore\n      pop\n      0x20\n      dup3\n      add\n      mload\n      dup2\n      0x01\n      add\n      swap1\n      dup2\n      tag_36\n      swap2\n      swap1\n      tag_34\n      jump\t// in\n    tag_36:\n      pop\n      0x40\n      dup3\n      add\n      mload\n      dup2\n      0x02\n      add\n      sstore\n      pop\n      pop\n        /* \"contracts/12-Insurance-record.sol\":429:662  function addRecord(address to, string memory name, uint amount) public onlyOwner {... */\n      pop\n      pop\n      pop\n      jump\t// out\n        /* \"contracts/12-Insurance-record.sol\":669:773  function getAllRecords() public onlyOwner view returns(Records[] memory) {... */\n    tag_15:\n        /* \"contracts/12-Insurance-record.sol\":724:740  Records[] memory */\n      0x60\n        /* \"contracts/12-Insurance-record.sol\":211:216  owner */\n      0x00\n      dup1\n      sload\n      swap1\n      0x0100\n      exp\n      swap1\n      div\n      0xffffffffffffffffffffffffffffffffffffffff\n      and\n        /* \"contracts/12-Insurance-record.sol\":197:216  msg.sender == owner */\n      0xffffffffffffffffffffffffffffffffffffffff\n      and\n        /* \"contracts/12-Insurance-record.sol\":197:207  msg.sender */\n      caller\n        /* \"contracts/12-Insurance-record.sol\":197:216  msg.sender == owner */\n      0xffffffffffffffffffffffffffffffffffffffff\n      and\n      eq\n        /* \"contracts/12-Insurance-record.sol\":189:238  require(msg.sender == owner, \"You are not owner\") */\n      tag_38\n      jumpi\n      mload(0x40)\n      0x08c379a000000000000000000000000000000000000000000000000000000000\n      dup2\n      mstore\n      0x04\n      add\n      tag_39\n      swap1\n      tag_30\n      jump\t// in\n    tag_39:\n      mload(0x40)\n      dup1\n      swap2\n      sub\n      swap1\n      revert\n    tag_38:\n        /* \"contracts/12-Insurance-record.sol\":759:766  records */\n      0x01\n        /* \"contracts/12-Insurance-record.sol\":752:766  return records */\n      dup1\n      sload\n      dup1\n      0x20\n      mul\n      0x20\n      add\n      mload(0x40)\n      swap1\n      dup2\n      add\n      0x40\n      mstore\n      dup1\n      swap3\n      swap2\n      swap1\n      dup2\n      dup2\n      mstore\n      0x20\n      add\n      0x00\n      swap1\n    tag_41:\n      dup3\n      dup3\n      lt\n      iszero\n      tag_42\n      jumpi\n      dup4\n      dup3\n      swap1\n      0x00\n      mstore\n      keccak256(0x00, 0x20)\n      swap1\n      0x03\n      mul\n      add\n      mload(0x40)\n      dup1\n      0x60\n      add\n      0x40\n      mstore\n      swap1\n      dup2\n      0x00\n      dup3\n      add\n      0x00\n      swap1\n      sload\n      swap1\n      0x0100\n      exp\n      swap1\n      div\n      0xffffffffffffffffffffffffffffffffffffffff\n      and\n      0xffffffffffffffffffffffffffffffffffffffff\n      and\n      0xffffffffffffffffffffffffffffffffffffffff\n      and\n      dup2\n      mstore\n      0x20\n      add\n      0x01\n      dup3\n      add\n      dup1\n      sload\n      tag_44\n      swap1\n      tag_22\n      jump\t// in\n    tag_44:\n      dup1\n      0x1f\n      add\n      0x20\n      dup1\n      swap2\n      div\n      mul\n      0x20\n      add\n      mload(0x40)\n      swap1\n      dup2\n      add\n      0x40\n      mstore\n      dup1\n      swap3\n      swap2\n      swap1\n      dup2\n      dup2\n      mstore\n      0x20\n      add\n      dup3\n      dup1\n      sload\n      tag_45\n      swap1\n      tag_22\n      jump\t// in\n    tag_45:\n      dup1\n      iszero\n      tag_46\n      jumpi\n      dup1\n      0x1f\n      lt\n      tag_47\n      jumpi\n      0x0100\n      dup1\n      dup4\n      sload\n      div\n      mul\n      dup4\n      mstore\n      swap2\n      0x20\n      add\n      swap2\n      jump(tag_46)\n    tag_47:\n      dup3\n      add\n      swap2\n      swap1\n      0x00\n      mstore\n      keccak256(0x00, 0x20)\n      swap1\n    tag_48:\n      dup2\n      sload\n      dup2\n      mstore\n      swap1\n      0x01\n      add\n      swap1\n      0x20\n      add\n      dup1\n      dup4\n      gt\n      tag_48\n      jumpi\n      dup3\n      swap1\n      sub\n      0x1f\n      and\n      dup3\n      add\n      swap2\n    tag_46:\n      pop\n      pop\n      pop\n      pop\n      pop\n      dup2\n      mstore\n      0x20\n      add\n      0x02\n      dup3\n      add\n      sload\n      dup2\n      mstore\n      pop\n      pop\n      dup2\n      mstore\n      0x20\n      add\n      swap1\n      0x01\n      add\n      swap1\n      jump(tag_41)\n    tag_42:\n      pop\n      pop\n      pop\n      pop\n      swap1\n      pop\n        /* \"contracts/12-Insurance-record.sol\":669:773  function getAllRecords() public onlyOwner view returns(Records[] memory) {... */\n      swap1\n      jump\t// out\n        /* \"#utility.yul\":7:144   */\n    tag_49:\n        /* \"#utility.yul\":97:103   */\n      0x00\n        /* \"#utility.yul\":131:136   */\n      dup2\n        /* \"#utility.yul\":125:137   */\n      mload\n        /* \"#utility.yul\":115:137   */\n      swap1\n      pop\n        /* \"#utility.yul\":7:144   */\n      swap2\n      swap1\n      pop\n      jump\t// out\n        /* \"#utility.yul\":150:357   */\n    tag_50:\n        /* \"#utility.yul\":272:283   */\n      0x00\n        /* \"#utility.yul\":306:312   */\n      dup3\n        /* \"#utility.yul\":301:304   */\n      dup3\n        /* \"#utility.yul\":294:313   */\n      mstore\n        /* \"#utility.yul\":346:350   */\n      0x20\n        /* \"#utility.yul\":341:344   */\n      dup3\n        /* \"#utility.yul\":337:351   */\n      add\n        /* \"#utility.yul\":322:351   */\n      swap1\n      pop\n        /* \"#utility.yul\":150:357   */\n      swap3\n      swap2\n      pop\n      pop\n      jump\t// out\n        /* \"#utility.yul\":363:518   */\n    tag_51:\n        /* \"#utility.yul\":453:457   */\n      0x00\n        /* \"#utility.yul\":476:479   */\n      dup2\n        /* \"#utility.yul\":468:479   */\n      swap1\n      pop\n        /* \"#utility.yul\":506:510   */\n      0x20\n        /* \"#utility.yul\":501:504   */\n      dup3\n        /* \"#utility.yul\":497:511   */\n      add\n        /* \"#utility.yul\":489:511   */\n      swap1\n      pop\n        /* \"#utility.yul\":363:518   */\n      swap2\n      swap1\n      pop\n      jump\t// out\n        /* \"#utility.yul\":524:650   */\n    tag_52:\n        /* \"#utility.yul\":561:568   */\n      0x00\n        /* \"#utility.yul\":601:643   */\n      0xffffffffffffffffffffffffffffffffffffffff\n        /* \"#utility.yul\":594:599   */\n      dup3\n        /* \"#utility.yul\":590:644   */\n      and\n        /* \"#utility.yul\":579:644   */\n      swap1\n      pop\n        /* \"#utility.yul\":524:650   */\n      swap2\n      swap1\n      pop\n      jump\t// out\n        /* \"#utility.yul\":656:752   */\n    tag_53:\n        /* \"#utility.yul\":693:700   */\n      0x00\n        /* \"#utility.yul\":722:746   */\n      tag_107\n        /* \"#utility.yul\":740:745   */\n      dup3\n        /* \"#utility.yul\":722:746   */\n      tag_52\n      jump\t// in\n    tag_107:\n        /* \"#utility.yul\":711:746   */\n      swap1\n      pop\n        /* \"#utility.yul\":656:752   */\n      swap2\n      swap1\n      pop\n      jump\t// out\n        /* \"#utility.yul\":758:866   */\n    tag_54:\n        /* \"#utility.yul\":835:859   */\n      tag_109\n        /* \"#utility.yul\":853:858   */\n      dup2\n        /* \"#utility.yul\":835:859   */\n      tag_53\n      jump\t// in\n    tag_109:\n        /* \"#utility.yul\":830:833   */\n      dup3\n        /* \"#utility.yul\":823:860   */\n      mstore\n        /* \"#utility.yul\":758:866   */\n      pop\n      pop\n      jump\t// out\n        /* \"#utility.yul\":872:971   */\n    tag_55:\n        /* \"#utility.yul\":924:930   */\n      0x00\n        /* \"#utility.yul\":958:963   */\n      dup2\n        /* \"#utility.yul\":952:964   */\n      mload\n        /* \"#utility.yul\":942:964   */\n      swap1\n      pop\n        /* \"#utility.yul\":872:971   */\n      swap2\n      swap1\n      pop\n      jump\t// out\n        /* \"#utility.yul\":977:1136   */\n    tag_56:\n        /* \"#utility.yul\":1051:1062   */\n      0x00\n        /* \"#utility.yul\":1085:1091   */\n      dup3\n        /* \"#utility.yul\":1080:1083   */\n      dup3\n        /* \"#utility.yul\":1073:1092   */\n      mstore\n        /* \"#utility.yul\":1125:1129   */\n      0x20\n        /* \"#utility.yul\":1120:1123   */\n      dup3\n        /* \"#utility.yul\":1116:1130   */\n      add\n        /* \"#utility.yul\":1101:1130   */\n      swap1\n      pop\n        /* \"#utility.yul\":977:1136   */\n      swap3\n      swap2\n      pop\n      pop\n      jump\t// out\n        /* \"#utility.yul\":1142:1388   */\n    tag_57:\n        /* \"#utility.yul\":1223:1224   */\n      0x00\n        /* \"#utility.yul\":1233:1346   */\n    tag_113:\n        /* \"#utility.yul\":1247:1253   */\n      dup4\n        /* \"#utility.yul\":1244:1245   */\n      dup2\n        /* \"#utility.yul\":1241:1254   */\n      lt\n        /* \"#utility.yul\":1233:1346   */\n      iszero\n      tag_115\n      jumpi\n        /* \"#utility.yul\":1332:1333   */\n      dup1\n        /* \"#utility.yul\":1327:1330   */\n      dup3\n        /* \"#utility.yul\":1323:1334   */\n      add\n        /* \"#utility.yul\":1317:1335   */\n      mload\n        /* \"#utility.yul\":1313:1314   */\n      dup2\n        /* \"#utility.yul\":1308:1311   */\n      dup5\n        /* \"#utility.yul\":1304:1315   */\n      add\n        /* \"#utility.yul\":1297:1336   */\n      mstore\n        /* \"#utility.yul\":1269:1271   */\n      0x20\n        /* \"#utility.yul\":1266:1267   */\n      dup2\n        /* \"#utility.yul\":1262:1272   */\n      add\n        /* \"#utility.yul\":1257:1272   */\n      swap1\n      pop\n        /* \"#utility.yul\":1233:1346   */\n      jump(tag_113)\n    tag_115:\n        /* \"#utility.yul\":1380:1381   */\n      0x00\n        /* \"#utility.yul\":1371:1377   */\n      dup5\n        /* \"#utility.yul\":1366:1369   */\n      dup5\n        /* \"#utility.yul\":1362:1378   */\n      add\n        /* \"#utility.yul\":1355:1382   */\n      mstore\n        /* \"#utility.yul\":1204:1388   */\n      pop\n        /* \"#utility.yul\":1142:1388   */\n      pop\n      pop\n      pop\n      jump\t// out\n        /* \"#utility.yul\":1394:1496   */\n    tag_58:\n        /* \"#utility.yul\":1435:1441   */\n      0x00\n        /* \"#utility.yul\":1486:1488   */\n      0x1f\n        /* \"#utility.yul\":1482:1489   */\n      not\n        /* \"#utility.yul\":1477:1479   */\n      0x1f\n        /* \"#utility.yul\":1470:1475   */\n      dup4\n        /* \"#utility.yul\":1466:1480   */\n      add\n        /* \"#utility.yul\":1462:1490   */\n      and\n        /* \"#utility.yul\":1452:1490   */\n      swap1\n      pop\n        /* \"#utility.yul\":1394:1496   */\n      swap2\n      swap1\n      pop\n      jump\t// out\n        /* \"#utility.yul\":1502:1859   */\n    tag_59:\n        /* \"#utility.yul\":1580:1583   */\n      0x00\n        /* \"#utility.yul\":1608:1647   */\n      tag_118\n        /* \"#utility.yul\":1641:1646   */\n      dup3\n        /* \"#utility.yul\":1608:1647   */\n      tag_55\n      jump\t// in\n    tag_118:\n        /* \"#utility.yul\":1663:1724   */\n      tag_119\n        /* \"#utility.yul\":1717:1723   */\n      dup2\n        /* \"#utility.yul\":1712:1715   */\n      dup6\n        /* \"#utility.yul\":1663:1724   */\n      tag_56\n      jump\t// in\n    tag_119:\n        /* \"#utility.yul\":1656:1724   */\n      swap4\n      pop\n        /* \"#utility.yul\":1733:1798   */\n      tag_120\n        /* \"#utility.yul\":1791:1797   */\n      dup2\n        /* \"#utility.yul\":1786:1789   */\n      dup6\n        /* \"#utility.yul\":1779:1783   */\n      0x20\n        /* \"#utility.yul\":1772:1777   */\n      dup7\n        /* \"#utility.yul\":1768:1784   */\n      add\n        /* \"#utility.yul\":1733:1798   */\n      tag_57\n      jump\t// in\n    tag_120:\n        /* \"#utility.yul\":1823:1852   */\n      tag_121\n        /* \"#utility.yul\":1845:1851   */\n      dup2\n        /* \"#utility.yul\":1823:1852   */\n      tag_58\n      jump\t// in\n    tag_121:\n        /* \"#utility.yul\":1818:1821   */\n      dup5\n        /* \"#utility.yul\":1814:1853   */\n      add\n        /* \"#utility.yul\":1807:1853   */\n      swap2\n      pop\n        /* \"#utility.yul\":1584:1859   */\n      pop\n        /* \"#utility.yul\":1502:1859   */\n      swap3\n      swap2\n      pop\n      pop\n      jump\t// out\n        /* \"#utility.yul\":1865:1942   */\n    tag_60:\n        /* \"#utility.yul\":1902:1909   */\n      0x00\n        /* \"#utility.yul\":1931:1936   */\n      dup2\n        /* \"#utility.yul\":1920:1936   */\n      swap1\n      pop\n        /* \"#utility.yul\":1865:1942   */\n      swap2\n      swap1\n      pop\n      jump\t// out\n        /* \"#utility.yul\":1948:2056   */\n    tag_61:\n        /* \"#utility.yul\":2025:2049   */\n      tag_124\n        /* \"#utility.yul\":2043:2048   */\n      dup2\n        /* \"#utility.yul\":2025:2049   */\n      tag_60\n      jump\t// in\n    tag_124:\n        /* \"#utility.yul\":2020:2023   */\n      dup3\n        /* \"#utility.yul\":2013:2050   */\n      mstore\n        /* \"#utility.yul\":1948:2056   */\n      pop\n      pop\n      jump\t// out\n        /* \"#utility.yul\":2134:2900   */\n    tag_62:\n        /* \"#utility.yul\":2239:2242   */\n      0x00\n        /* \"#utility.yul\":2275:2279   */\n      0x60\n        /* \"#utility.yul\":2270:2273   */\n      dup4\n        /* \"#utility.yul\":2266:2280   */\n      add\n        /* \"#utility.yul\":2360:2364   */\n      0x00\n        /* \"#utility.yul\":2353:2358   */\n      dup4\n        /* \"#utility.yul\":2349:2365   */\n      add\n        /* \"#utility.yul\":2343:2366   */\n      mload\n        /* \"#utility.yul\":2379:2442   */\n      tag_126\n        /* \"#utility.yul\":2436:2440   */\n      0x00\n        /* \"#utility.yul\":2431:2434   */\n      dup7\n        /* \"#utility.yul\":2427:2441   */\n      add\n        /* \"#utility.yul\":2413:2425   */\n      dup3\n        /* \"#utility.yul\":2379:2442   */\n      tag_54\n      jump\t// in\n    tag_126:\n        /* \"#utility.yul\":2290:2452   */\n      pop\n        /* \"#utility.yul\":2534:2538   */\n      0x20\n        /* \"#utility.yul\":2527:2532   */\n      dup4\n        /* \"#utility.yul\":2523:2539   */\n      add\n        /* \"#utility.yul\":2517:2540   */\n      mload\n        /* \"#utility.yul\":2587:2590   */\n      dup5\n        /* \"#utility.yul\":2581:2585   */\n      dup3\n        /* \"#utility.yul\":2577:2591   */\n      sub\n        /* \"#utility.yul\":2570:2574   */\n      0x20\n        /* \"#utility.yul\":2565:2568   */\n      dup7\n        /* \"#utility.yul\":2561:2575   */\n      add\n        /* \"#utility.yul\":2554:2592   */\n      mstore\n        /* \"#utility.yul\":2613:2686   */\n      tag_127\n        /* \"#utility.yul\":2681:2685   */\n      dup3\n        /* \"#utility.yul\":2667:2679   */\n      dup3\n        /* \"#utility.yul\":2613:2686   */\n      tag_59\n      jump\t// in\n    tag_127:\n        /* \"#utility.yul\":2605:2686   */\n      swap2\n      pop\n        /* \"#utility.yul\":2462:2697   */\n      pop\n        /* \"#utility.yul\":2781:2785   */\n      0x40\n        /* \"#utility.yul\":2774:2779   */\n      dup4\n        /* \"#utility.yul\":2770:2786   */\n      add\n        /* \"#utility.yul\":2764:2787   */\n      mload\n        /* \"#utility.yul\":2800:2863   */\n      tag_128\n        /* \"#utility.yul\":2857:2861   */\n      0x40\n        /* \"#utility.yul\":2852:2855   */\n      dup7\n        /* \"#utility.yul\":2848:2862   */\n      add\n        /* \"#utility.yul\":2834:2846   */\n      dup3\n        /* \"#utility.yul\":2800:2863   */\n      tag_61\n      jump\t// in\n    tag_128:\n        /* \"#utility.yul\":2707:2873   */\n      pop\n        /* \"#utility.yul\":2890:2894   */\n      dup1\n        /* \"#utility.yul\":2883:2894   */\n      swap2\n      pop\n        /* \"#utility.yul\":2244:2900   */\n      pop\n        /* \"#utility.yul\":2134:2900   */\n      swap3\n      swap2\n      pop\n      pop\n      jump\t// out\n        /* \"#utility.yul\":2906:3154   */\n    tag_63:\n        /* \"#utility.yul\":3021:3031   */\n      0x00\n        /* \"#utility.yul\":3056:3148   */\n      tag_130\n        /* \"#utility.yul\":3144:3147   */\n      dup4\n        /* \"#utility.yul\":3136:3142   */\n      dup4\n        /* \"#utility.yul\":3056:3148   */\n      tag_62\n      jump\t// in\n    tag_130:\n        /* \"#utility.yul\":3042:3148   */\n      swap1\n      pop\n        /* \"#utility.yul\":2906:3154   */\n      swap3\n      swap2\n      pop\n      pop\n      jump\t// out\n        /* \"#utility.yul\":3160:3296   */\n    tag_64:\n        /* \"#utility.yul\":3253:3257   */\n      0x00\n        /* \"#utility.yul\":3285:3289   */\n      0x20\n        /* \"#utility.yul\":3280:3283   */\n      dup3\n        /* \"#utility.yul\":3276:3290   */\n      add\n        /* \"#utility.yul\":3268:3290   */\n      swap1\n      pop\n        /* \"#utility.yul\":3160:3296   */\n      swap2\n      swap1\n      pop\n      jump\t// out\n        /* \"#utility.yul\":3378:4473   */\n    tag_65:\n        /* \"#utility.yul\":3543:3546   */\n      0x00\n        /* \"#utility.yul\":3572:3649   */\n      tag_133\n        /* \"#utility.yul\":3643:3648   */\n      dup3\n        /* \"#utility.yul\":3572:3649   */\n      tag_49\n      jump\t// in\n    tag_133:\n        /* \"#utility.yul\":3665:3774   */\n      tag_134\n        /* \"#utility.yul\":3767:3773   */\n      dup2\n        /* \"#utility.yul\":3762:3765   */\n      dup6\n        /* \"#utility.yul\":3665:3774   */\n      tag_50\n      jump\t// in\n    tag_134:\n        /* \"#utility.yul\":3658:3774   */\n      swap4\n      pop\n        /* \"#utility.yul\":3800:3803   */\n      dup4\n        /* \"#utility.yul\":3845:3849   */\n      0x20\n        /* \"#utility.yul\":3837:3843   */\n      dup3\n        /* \"#utility.yul\":3833:3850   */\n      mul\n        /* \"#utility.yul\":3828:3831   */\n      dup6\n        /* \"#utility.yul\":3824:3851   */\n      add\n        /* \"#utility.yul\":3875:3954   */\n      tag_135\n        /* \"#utility.yul\":3948:3953   */\n      dup6\n        /* \"#utility.yul\":3875:3954   */\n      tag_51\n      jump\t// in\n    tag_135:\n        /* \"#utility.yul\":3977:3984   */\n      dup1\n        /* \"#utility.yul\":4008:4009   */\n      0x00\n        /* \"#utility.yul\":3993:4428   */\n    tag_136:\n        /* \"#utility.yul\":4018:4024   */\n      dup6\n        /* \"#utility.yul\":4015:4016   */\n      dup2\n        /* \"#utility.yul\":4012:4025   */\n      lt\n        /* \"#utility.yul\":3993:4428   */\n      iszero\n      tag_138\n      jumpi\n        /* \"#utility.yul\":4089:4098   */\n      dup5\n        /* \"#utility.yul\":4083:4087   */\n      dup5\n        /* \"#utility.yul\":4079:4099   */\n      sub\n        /* \"#utility.yul\":4074:4077   */\n      dup10\n        /* \"#utility.yul\":4067:4100   */\n      mstore\n        /* \"#utility.yul\":4140:4146   */\n      dup2\n        /* \"#utility.yul\":4134:4147   */\n      mload\n        /* \"#utility.yul\":4168:4278   */\n      tag_139\n        /* \"#utility.yul\":4273:4277   */\n      dup6\n        /* \"#utility.yul\":4258:4271   */\n      dup3\n        /* \"#utility.yul\":4168:4278   */\n      tag_63\n      jump\t// in\n    tag_139:\n        /* \"#utility.yul\":4160:4278   */\n      swap5\n      pop\n        /* \"#utility.yul\":4301:4384   */\n      tag_140\n        /* \"#utility.yul\":4377:4383   */\n      dup4\n        /* \"#utility.yul\":4301:4384   */\n      tag_64\n      jump\t// in\n    tag_140:\n        /* \"#utility.yul\":4291:4384   */\n      swap3\n      pop\n        /* \"#utility.yul\":4413:4417   */\n      0x20\n        /* \"#utility.yul\":4408:4411   */\n      dup11\n        /* \"#utility.yul\":4404:4418   */\n      add\n        /* \"#utility.yul\":4397:4418   */\n      swap10\n      pop\n        /* \"#utility.yul\":4053:4428   */\n      pop\n        /* \"#utility.yul\":4040:4041   */\n      0x01\n        /* \"#utility.yul\":4037:4038   */\n      dup2\n        /* \"#utility.yul\":4033:4042   */\n      add\n        /* \"#utility.yul\":4028:4042   */\n      swap1\n      pop\n        /* \"#utility.yul\":3993:4428   */\n      jump(tag_136)\n    tag_138:\n        /* \"#utility.yul\":3997:4011   */\n      pop\n        /* \"#utility.yul\":4444:4448   */\n      dup3\n        /* \"#utility.yul\":4437:4448   */\n      swap8\n      pop\n        /* \"#utility.yul\":4464:4467   */\n      dup8\n        /* \"#utility.yul\":4457:4467   */\n      swap6\n      pop\n        /* \"#utility.yul\":3548:4473   */\n      pop\n      pop\n      pop\n      pop\n      pop\n        /* \"#utility.yul\":3378:4473   */\n      swap3\n      swap2\n      pop\n      pop\n      jump\t// out\n        /* \"#utility.yul\":4479:4944   */\n    tag_9:\n        /* \"#utility.yul\":4668:4672   */\n      0x00\n        /* \"#utility.yul\":4706:4708   */\n      0x20\n        /* \"#utility.yul\":4695:4704   */\n      dup3\n        /* \"#utility.yul\":4691:4709   */\n      add\n        /* \"#utility.yul\":4683:4709   */\n      swap1\n      pop\n        /* \"#utility.yul\":4755:4764   */\n      dup2\n        /* \"#utility.yul\":4749:4753   */\n      dup2\n        /* \"#utility.yul\":4745:4765   */\n      sub\n        /* \"#utility.yul\":4741:4742   */\n      0x00\n        /* \"#utility.yul\":4730:4739   */\n      dup4\n        /* \"#utility.yul\":4726:4743   */\n      add\n        /* \"#utility.yul\":4719:4766   */\n      mstore\n        /* \"#utility.yul\":4783:4937   */\n      tag_142\n        /* \"#utility.yul\":4932:4936   */\n      dup2\n        /* \"#utility.yul\":4923:4929   */\n      dup5\n        /* \"#utility.yul\":4783:4937   */\n      tag_65\n      jump\t// in\n    tag_142:\n        /* \"#utility.yul\":4775:4937   */\n      swap1\n      pop\n        /* \"#utility.yul\":4479:4944   */\n      swap3\n      swap2\n      pop\n      pop\n      jump\t// out\n        /* \"#utility.yul\":4950:5025   */\n    tag_66:\n        /* \"#utility.yul\":4983:4989   */\n      0x00\n        /* \"#utility.yul\":5016:5018   */\n      0x40\n        /* \"#utility.yul\":5010:5019   */\n      mload\n        /* \"#utility.yul\":5000:5019   */\n      swap1\n      pop\n        /* \"#utility.yul\":4950:5025   */\n      swap1\n      jump\t// out\n        /* \"#utility.yul\":5031:5148   */\n    tag_67:\n        /* \"#utility.yul\":5140:5141   */\n      0x00\n        /* \"#utility.yul\":5137:5138   */\n      dup1\n        /* \"#utility.yul\":5130:5142   */\n      revert\n        /* \"#utility.yul\":5154:5271   */\n    tag_68:\n        /* \"#utility.yul\":5263:5264   */\n      0x00\n        /* \"#utility.yul\":5260:5261   */\n      dup1\n        /* \"#utility.yul\":5253:5265   */\n      revert\n        /* \"#utility.yul\":5277:5399   */\n    tag_69:\n        /* \"#utility.yul\":5350:5374   */\n      tag_147\n        /* \"#utility.yul\":5368:5373   */\n      dup2\n        /* \"#utility.yul\":5350:5374   */\n      tag_53\n      jump\t// in\n    tag_147:\n        /* \"#utility.yul\":5343:5348   */\n      dup2\n        /* \"#utility.yul\":5340:5375   */\n      eq\n        /* \"#utility.yul\":5330:5393   */\n      tag_148\n      jumpi\n        /* \"#utility.yul\":5389:5390   */\n      0x00\n        /* \"#utility.yul\":5386:5387   */\n      dup1\n        /* \"#utility.yul\":5379:5391   */\n      revert\n        /* \"#utility.yul\":5330:5393   */\n    tag_148:\n        /* \"#utility.yul\":5277:5399   */\n      pop\n      jump\t// out\n        /* \"#utility.yul\":5405:5544   */\n    tag_70:\n        /* \"#utility.yul\":5451:5456   */\n      0x00\n        /* \"#utility.yul\":5489:5495   */\n      dup2\n        /* \"#utility.yul\":5476:5496   */\n      calldataload\n        /* \"#utility.yul\":5467:5496   */\n      swap1\n      pop\n        /* \"#utility.yul\":5505:5538   */\n      tag_150\n        /* \"#utility.yul\":5532:5537   */\n      dup2\n        /* \"#utility.yul\":5505:5538   */\n      tag_69\n      jump\t// in\n    tag_150:\n        /* \"#utility.yul\":5405:5544   */\n      swap3\n      swap2\n      pop\n      pop\n      jump\t// out\n        /* \"#utility.yul\":5550:5667   */\n    tag_71:\n        /* \"#utility.yul\":5659:5660   */\n      0x00\n        /* \"#utility.yul\":5656:5657   */\n      dup1\n        /* \"#utility.yul\":5649:5661   */\n      revert\n        /* \"#utility.yul\":5673:5790   */\n    tag_72:\n        /* \"#utility.yul\":5782:5783   */\n      0x00\n        /* \"#utility.yul\":5779:5780   */\n      dup1\n        /* \"#utility.yul\":5772:5784   */\n      revert\n        /* \"#utility.yul\":5796:5976   */\n    tag_73:\n        /* \"#utility.yul\":5844:5921   */\n      0x4e487b7100000000000000000000000000000000000000000000000000000000\n        /* \"#utility.yul\":5841:5842   */\n      0x00\n        /* \"#utility.yul\":5834:5922   */\n      mstore\n        /* \"#utility.yul\":5941:5945   */\n      0x41\n        /* \"#utility.yul\":5938:5939   */\n      0x04\n        /* \"#utility.yul\":5931:5946   */\n      mstore\n        /* \"#utility.yul\":5965:5969   */\n      0x24\n        /* \"#utility.yul\":5962:5963   */\n      0x00\n        /* \"#utility.yul\":5955:5970   */\n      revert\n        /* \"#utility.yul\":5982:6263   */\n    tag_74:\n        /* \"#utility.yul\":6065:6092   */\n      tag_155\n        /* \"#utility.yul\":6087:6091   */\n      dup3\n        /* \"#utility.yul\":6065:6092   */\n      tag_58\n      jump\t// in\n    tag_155:\n        /* \"#utility.yul\":6057:6063   */\n      dup2\n        /* \"#utility.yul\":6053:6093   */\n      add\n        /* \"#utility.yul\":6195:6201   */\n      dup2\n        /* \"#utility.yul\":6183:6193   */\n      dup2\n        /* \"#utility.yul\":6180:6202   */\n      lt\n        /* \"#utility.yul\":6159:6177   */\n      0xffffffffffffffff\n        /* \"#utility.yul\":6147:6157   */\n      dup3\n        /* \"#utility.yul\":6144:6178   */\n      gt\n        /* \"#utility.yul\":6141:6203   */\n      or\n        /* \"#utility.yul\":6138:6226   */\n      iszero\n      tag_156\n      jumpi\n        /* \"#utility.yul\":6206:6224   */\n      tag_157\n      tag_73\n      jump\t// in\n    tag_157:\n        /* \"#utility.yul\":6138:6226   */\n    tag_156:\n        /* \"#utility.yul\":6246:6256   */\n      dup1\n        /* \"#utility.yul\":6242:6244   */\n      0x40\n        /* \"#utility.yul\":6235:6257   */\n      mstore\n        /* \"#utility.yul\":6025:6263   */\n      pop\n        /* \"#utility.yul\":5982:6263   */\n      pop\n      pop\n      jump\t// out\n        /* \"#utility.yul\":6269:6398   */\n    tag_75:\n        /* \"#utility.yul\":6303:6309   */\n      0x00\n        /* \"#utility.yul\":6330:6350   */\n      tag_159\n      tag_66\n      jump\t// in\n    tag_159:\n        /* \"#utility.yul\":6320:6350   */\n      swap1\n      pop\n        /* \"#utility.yul\":6359:6392   */\n      tag_160\n        /* \"#utility.yul\":6387:6391   */\n      dup3\n        /* \"#utility.yul\":6379:6385   */\n      dup3\n        /* \"#utility.yul\":6359:6392   */\n      tag_74\n      jump\t// in\n    tag_160:\n        /* \"#utility.yul\":6269:6398   */\n      swap2\n      swap1\n      pop\n      jump\t// out\n        /* \"#utility.yul\":6404:6712   */\n    tag_76:\n        /* \"#utility.yul\":6466:6470   */\n      0x00\n        /* \"#utility.yul\":6556:6574   */\n      0xffffffffffffffff\n        /* \"#utility.yul\":6548:6554   */\n      dup3\n        /* \"#utility.yul\":6545:6575   */\n      gt\n        /* \"#utility.yul\":6542:6598   */\n      iszero\n      tag_162\n      jumpi\n        /* \"#utility.yul\":6578:6596   */\n      tag_163\n      tag_73\n      jump\t// in\n    tag_163:\n        /* \"#utility.yul\":6542:6598   */\n    tag_162:\n        /* \"#utility.yul\":6616:6645   */\n      tag_164\n        /* \"#utility.yul\":6638:6644   */\n      dup3\n        /* \"#utility.yul\":6616:6645   */\n      tag_58\n      jump\t// in\n    tag_164:\n        /* \"#utility.yul\":6608:6645   */\n      swap1\n      pop\n        /* \"#utility.yul\":6700:6704   */\n      0x20\n        /* \"#utility.yul\":6694:6698   */\n      dup2\n        /* \"#utility.yul\":6690:6705   */\n      add\n        /* \"#utility.yul\":6682:6705   */\n      swap1\n      pop\n        /* \"#utility.yul\":6404:6712   */\n      swap2\n      swap1\n      pop\n      jump\t// out\n        /* \"#utility.yul\":6718:6864   */\n    tag_77:\n        /* \"#utility.yul\":6815:6821   */\n      dup3\n        /* \"#utility.yul\":6810:6813   */\n      dup2\n        /* \"#utility.yul\":6805:6808   */\n      dup4\n        /* \"#utility.yul\":6792:6822   */\n      calldatacopy\n        /* \"#utility.yul\":6856:6857   */\n      0x00\n        /* \"#utility.yul\":6847:6853   */\n      dup4\n        /* \"#utility.yul\":6842:6845   */\n      dup4\n        /* \"#utility.yul\":6838:6854   */\n      add\n        /* \"#utility.yul\":6831:6858   */\n      mstore\n        /* \"#utility.yul\":6718:6864   */\n      pop\n      pop\n      pop\n      jump\t// out\n        /* \"#utility.yul\":6870:7295   */\n    tag_78:\n        /* \"#utility.yul\":6948:6953   */\n      0x00\n        /* \"#utility.yul\":6973:7039   */\n      tag_167\n        /* \"#utility.yul\":6989:7038   */\n      tag_168\n        /* \"#utility.yul\":7031:7037   */\n      dup5\n        /* \"#utility.yul\":6989:7038   */\n      tag_76\n      jump\t// in\n    tag_168:\n        /* \"#utility.yul\":6973:7039   */\n      tag_75\n      jump\t// in\n    tag_167:\n        /* \"#utility.yul\":6964:7039   */\n      swap1\n      pop\n        /* \"#utility.yul\":7062:7068   */\n      dup3\n        /* \"#utility.yul\":7055:7060   */\n      dup2\n        /* \"#utility.yul\":7048:7069   */\n      mstore\n        /* \"#utility.yul\":7100:7104   */\n      0x20\n        /* \"#utility.yul\":7093:7098   */\n      dup2\n        /* \"#utility.yul\":7089:7105   */\n      add\n        /* \"#utility.yul\":7138:7141   */\n      dup5\n        /* \"#utility.yul\":7129:7135   */\n      dup5\n        /* \"#utility.yul\":7124:7127   */\n      dup5\n        /* \"#utility.yul\":7120:7136   */\n      add\n        /* \"#utility.yul\":7117:7142   */\n      gt\n        /* \"#utility.yul\":7114:7226   */\n      iszero\n      tag_169\n      jumpi\n        /* \"#utility.yul\":7145:7224   */\n      tag_170\n      tag_72\n      jump\t// in\n    tag_170:\n        /* \"#utility.yul\":7114:7226   */\n    tag_169:\n        /* \"#utility.yul\":7235:7289   */\n      tag_171\n        /* \"#utility.yul\":7282:7288   */\n      dup5\n        /* \"#utility.yul\":7277:7280   */\n      dup3\n        /* \"#utility.yul\":7272:7275   */\n      dup6\n        /* \"#utility.yul\":7235:7289   */\n      tag_77\n      jump\t// in\n    tag_171:\n        /* \"#utility.yul\":6954:7295   */\n      pop\n        /* \"#utility.yul\":6870:7295   */\n      swap4\n      swap3\n      pop\n      pop\n      pop\n      jump\t// out\n        /* \"#utility.yul\":7315:7655   */\n    tag_79:\n        /* \"#utility.yul\":7371:7376   */\n      0x00\n        /* \"#utility.yul\":7420:7423   */\n      dup3\n        /* \"#utility.yul\":7413:7417   */\n      0x1f\n        /* \"#utility.yul\":7405:7411   */\n      dup4\n        /* \"#utility.yul\":7401:7418   */\n      add\n        /* \"#utility.yul\":7397:7424   */\n      slt\n        /* \"#utility.yul\":7387:7509   */\n      tag_173\n      jumpi\n        /* \"#utility.yul\":7428:7507   */\n      tag_174\n      tag_71\n      jump\t// in\n    tag_174:\n        /* \"#utility.yul\":7387:7509   */\n    tag_173:\n        /* \"#utility.yul\":7545:7551   */\n      dup2\n        /* \"#utility.yul\":7532:7552   */\n      calldataload\n        /* \"#utility.yul\":7570:7649   */\n      tag_175\n        /* \"#utility.yul\":7645:7648   */\n      dup5\n        /* \"#utility.yul\":7637:7643   */\n      dup3\n        /* \"#utility.yul\":7630:7634   */\n      0x20\n        /* \"#utility.yul\":7622:7628   */\n      dup7\n        /* \"#utility.yul\":7618:7635   */\n      add\n        /* \"#utility.yul\":7570:7649   */\n      tag_78\n      jump\t// in\n    tag_175:\n        /* \"#utility.yul\":7561:7649   */\n      swap2\n      pop\n        /* \"#utility.yul\":7377:7655   */\n      pop\n        /* \"#utility.yul\":7315:7655   */\n      swap3\n      swap2\n      pop\n      pop\n      jump\t// out\n        /* \"#utility.yul\":7661:7783   */\n    tag_80:\n        /* \"#utility.yul\":7734:7758   */\n      tag_177\n        /* \"#utility.yul\":7752:7757   */\n      dup2\n        /* \"#utility.yul\":7734:7758   */\n      tag_60\n      jump\t// in\n    tag_177:\n        /* \"#utility.yul\":7727:7732   */\n      dup2\n        /* \"#utility.yul\":7724:7759   */\n      eq\n        /* \"#utility.yul\":7714:7777   */\n      tag_178\n      jumpi\n        /* \"#utility.yul\":7773:7774   */\n      0x00\n        /* \"#utility.yul\":7770:7771   */\n      dup1\n        /* \"#utility.yul\":7763:7775   */\n      revert\n        /* \"#utility.yul\":7714:7777   */\n    tag_178:\n        /* \"#utility.yul\":7661:7783   */\n      pop\n      jump\t// out\n        /* \"#utility.yul\":7789:7928   */\n    tag_81:\n        /* \"#utility.yul\":7835:7840   */\n      0x00\n        /* \"#utility.yul\":7873:7879   */\n      dup2\n        /* \"#utility.yul\":7860:7880   */\n      calldataload\n        /* \"#utility.yul\":7851:7880   */\n      swap1\n      pop\n        /* \"#utility.yul\":7889:7922   */\n      tag_180\n        /* \"#utility.yul\":7916:7921   */\n      dup2\n        /* \"#utility.yul\":7889:7922   */\n      tag_80\n      jump\t// in\n    tag_180:\n        /* \"#utility.yul\":7789:7928   */\n      swap3\n      swap2\n      pop\n      pop\n      jump\t// out\n        /* \"#utility.yul\":7934:8733   */\n    tag_12:\n        /* \"#utility.yul\":8021:8027   */\n      0x00\n        /* \"#utility.yul\":8029:8035   */\n      dup1\n        /* \"#utility.yul\":8037:8043   */\n      0x00\n        /* \"#utility.yul\":8086:8088   */\n      0x60\n        /* \"#utility.yul\":8074:8083   */\n      dup5\n        /* \"#utility.yul\":8065:8072   */\n      dup7\n        /* \"#utility.yul\":8061:8084   */\n      sub\n        /* \"#utility.yul\":8057:8089   */\n      slt\n        /* \"#utility.yul\":8054:8173   */\n      iszero\n      tag_182\n      jumpi\n        /* \"#utility.yul\":8092:8171   */\n      tag_183\n      tag_67\n      jump\t// in\n    tag_183:\n        /* \"#utility.yul\":8054:8173   */\n    tag_182:\n        /* \"#utility.yul\":8212:8213   */\n      0x00\n        /* \"#utility.yul\":8237:8290   */\n      tag_184\n        /* \"#utility.yul\":8282:8289   */\n      dup7\n        /* \"#utility.yul\":8273:8279   */\n      dup3\n        /* \"#utility.yul\":8262:8271   */\n      dup8\n        /* \"#utility.yul\":8258:8280   */\n      add\n        /* \"#utility.yul\":8237:8290   */\n      tag_70\n      jump\t// in\n    tag_184:\n        /* \"#utility.yul\":8227:8290   */\n      swap4\n      pop\n        /* \"#utility.yul\":8183:8300   */\n      pop\n        /* \"#utility.yul\":8367:8369   */\n      0x20\n        /* \"#utility.yul\":8356:8365   */\n      dup5\n        /* \"#utility.yul\":8352:8370   */\n      add\n        /* \"#utility.yul\":8339:8371   */\n      calldataload\n        /* \"#utility.yul\":8398:8416   */\n      0xffffffffffffffff\n        /* \"#utility.yul\":8390:8396   */\n      dup2\n        /* \"#utility.yul\":8387:8417   */\n      gt\n        /* \"#utility.yul\":8384:8501   */\n      iszero\n      tag_185\n      jumpi\n        /* \"#utility.yul\":8420:8499   */\n      tag_186\n      tag_68\n      jump\t// in\n    tag_186:\n        /* \"#utility.yul\":8384:8501   */\n    tag_185:\n        /* \"#utility.yul\":8525:8588   */\n      tag_187\n        /* \"#utility.yul\":8580:8587   */\n      dup7\n        /* \"#utility.yul\":8571:8577   */\n      dup3\n        /* \"#utility.yul\":8560:8569   */\n      dup8\n        /* \"#utility.yul\":8556:8578   */\n      add\n        /* \"#utility.yul\":8525:8588   */\n      tag_79\n      jump\t// in\n    tag_187:\n        /* \"#utility.yul\":8515:8588   */\n      swap3\n      pop\n        /* \"#utility.yul\":8310:8598   */\n      pop\n        /* \"#utility.yul\":8637:8639   */\n      0x40\n        /* \"#utility.yul\":8663:8716   */\n      tag_188\n        /* \"#utility.yul\":8708:8715   */\n      dup7\n        /* \"#utility.yul\":8699:8705   */\n      dup3\n        /* \"#utility.yul\":8688:8697   */\n      dup8\n        /* \"#utility.yul\":8684:8706   */\n      add\n        /* \"#utility.yul\":8663:8716   */\n      tag_81\n      jump\t// in\n    tag_188:\n        /* \"#utility.yul\":8653:8716   */\n      swap2\n      pop\n        /* \"#utility.yul\":8608:8726   */\n      pop\n        /* \"#utility.yul\":7934:8733   */\n      swap3\n      pop\n      swap3\n      pop\n      swap3\n      jump\t// out\n        /* \"#utility.yul\":8739:8919   */\n    tag_82:\n        /* \"#utility.yul\":8787:8864   */\n      0x4e487b7100000000000000000000000000000000000000000000000000000000\n        /* \"#utility.yul\":8784:8785   */\n      0x00\n        /* \"#utility.yul\":8777:8865   */\n      mstore\n        /* \"#utility.yul\":8884:8888   */\n      0x22\n        /* \"#utility.yul\":8881:8882   */\n      0x04\n        /* \"#utility.yul\":8874:8889   */\n      mstore\n        /* \"#utility.yul\":8908:8912   */\n      0x24\n        /* \"#utility.yul\":8905:8906   */\n      0x00\n        /* \"#utility.yul\":8898:8913   */\n      revert\n        /* \"#utility.yul\":8925:9245   */\n    tag_22:\n        /* \"#utility.yul\":8969:8975   */\n      0x00\n        /* \"#utility.yul\":9006:9007   */\n      0x02\n        /* \"#utility.yul\":9000:9004   */\n      dup3\n        /* \"#utility.yul\":8996:9008   */\n      div\n        /* \"#utility.yul\":8986:9008   */\n      swap1\n      pop\n        /* \"#utility.yul\":9053:9054   */\n      0x01\n        /* \"#utility.yul\":9047:9051   */\n      dup3\n        /* \"#utility.yul\":9043:9055   */\n      and\n        /* \"#utility.yul\":9074:9092   */\n      dup1\n        /* \"#utility.yul\":9064:9145   */\n      tag_191\n      jumpi\n        /* \"#utility.yul\":9130:9134   */\n      0x7f\n        /* \"#utility.yul\":9122:9128   */\n      dup3\n        /* \"#utility.yul\":9118:9135   */\n      and\n        /* \"#utility.yul\":9108:9135   */\n      swap2\n      pop\n        /* \"#utility.yul\":9064:9145   */\n    tag_191:\n        /* \"#utility.yul\":9192:9194   */\n      0x20\n        /* \"#utility.yul\":9184:9190   */\n      dup3\n        /* \"#utility.yul\":9181:9195   */\n      lt\n        /* \"#utility.yul\":9161:9179   */\n      dup2\n        /* \"#utility.yul\":9158:9196   */\n      sub\n        /* \"#utility.yul\":9155:9239   */\n      tag_192\n      jumpi\n        /* \"#utility.yul\":9211:9229   */\n      tag_193\n      tag_82\n      jump\t// in\n    tag_193:\n        /* \"#utility.yul\":9155:9239   */\n    tag_192:\n        /* \"#utility.yul\":8976:9245   */\n      pop\n        /* \"#utility.yul\":8925:9245   */\n      swap2\n      swap1\n      pop\n      jump\t// out\n        /* \"#utility.yul\":9251:9420   */\n    tag_83:\n        /* \"#utility.yul\":9335:9346   */\n      0x00\n        /* \"#utility.yul\":9369:9375   */\n      dup3\n        /* \"#utility.yul\":9364:9367   */\n      dup3\n        /* \"#utility.yul\":9357:9376   */\n      mstore\n        /* \"#utility.yul\":9409:9413   */\n      0x20\n        /* \"#utility.yul\":9404:9407   */\n      dup3\n        /* \"#utility.yul\":9400:9414   */\n      add\n        /* \"#utility.yul\":9385:9414   */\n      swap1\n      pop\n        /* \"#utility.yul\":9251:9420   */\n      swap3\n      swap2\n      pop\n      pop\n      jump\t// out\n        /* \"#utility.yul\":9426:9593   */\n    tag_84:\n        /* \"#utility.yul\":9566:9585   */\n      0x596f7520617265206e6f74206f776e6572000000000000000000000000000000\n        /* \"#utility.yul\":9562:9563   */\n      0x00\n        /* \"#utility.yul\":9554:9560   */\n      dup3\n        /* \"#utility.yul\":9550:9564   */\n      add\n        /* \"#utility.yul\":9543:9586   */\n      mstore\n        /* \"#utility.yul\":9426:9593   */\n      pop\n      jump\t// out\n        /* \"#utility.yul\":9599:9965   */\n    tag_85:\n        /* \"#utility.yul\":9741:9744   */\n      0x00\n        /* \"#utility.yul\":9762:9829   */\n      tag_197\n        /* \"#utility.yul\":9826:9828   */\n      0x11\n        /* \"#utility.yul\":9821:9824   */\n      dup4\n        /* \"#utility.yul\":9762:9829   */\n      tag_83\n      jump\t// in\n    tag_197:\n        /* \"#utility.yul\":9755:9829   */\n      swap2\n      pop\n        /* \"#utility.yul\":9838:9931   */\n      tag_198\n        /* \"#utility.yul\":9927:9930   */\n      dup3\n        /* \"#utility.yul\":9838:9931   */\n      tag_84\n      jump\t// in\n    tag_198:\n        /* \"#utility.yul\":9956:9958   */\n      0x20\n        /* \"#utility.yul\":9951:9954   */\n      dup3\n        /* \"#utility.yul\":9947:9959   */\n      add\n        /* \"#utility.yul\":9940:9959   */\n      swap1\n      pop\n        /* \"#utility.yul\":9599:9965   */\n      swap2\n      swap1\n      pop\n      jump\t// out\n        /* \"#utility.yul\":9971:10390   */\n    tag_30:\n        /* \"#utility.yul\":10137:10141   */\n      0x00\n        /* \"#utility.yul\":10175:10177   */\n      0x20\n        /* \"#utility.yul\":10164:10173   */\n      dup3\n        /* \"#utility.yul\":10160:10178   */\n      add\n        /* \"#utility.yul\":10152:10178   */\n      swap1\n      pop\n        /* \"#utility.yul\":10224:10233   */\n      dup2\n        /* \"#utility.yul\":10218:10222   */\n      dup2\n        /* \"#utility.yul\":10214:10234   */\n      sub\n        /* \"#utility.yul\":10210:10211   */\n      0x00\n        /* \"#utility.yul\":10199:10208   */\n      dup4\n        /* \"#utility.yul\":10195:10212   */\n      add\n        /* \"#utility.yul\":10188:10235   */\n      mstore\n        /* \"#utility.yul\":10252:10383   */\n      tag_200\n        /* \"#utility.yul\":10378:10382   */\n      dup2\n        /* \"#utility.yul\":10252:10383   */\n      tag_85\n      jump\t// in\n    tag_200:\n        /* \"#utility.yul\":10244:10383   */\n      swap1\n      pop\n        /* \"#utility.yul\":9971:10390   */\n      swap2\n      swap1\n      pop\n      jump\t// out\n        /* \"#utility.yul\":10396:10537   */\n    tag_86:\n        /* \"#utility.yul\":10445:10449   */\n      0x00\n        /* \"#utility.yul\":10468:10471   */\n      dup2\n        /* \"#utility.yul\":10460:10471   */\n      swap1\n      pop\n        /* \"#utility.yul\":10491:10494   */\n      dup2\n        /* \"#utility.yul\":10488:10489   */\n      0x00\n        /* \"#utility.yul\":10481:10495   */\n      mstore\n        /* \"#utility.yul\":10525:10529   */\n      0x20\n        /* \"#utility.yul\":10522:10523   */\n      0x00\n        /* \"#utility.yul\":10512:10530   */\n      keccak256\n        /* \"#utility.yul\":10504:10530   */\n      swap1\n      pop\n        /* \"#utility.yul\":10396:10537   */\n      swap2\n      swap1\n      pop\n      jump\t// out\n        /* \"#utility.yul\":10543:10636   */\n    tag_87:\n        /* \"#utility.yul\":10580:10586   */\n      0x00\n        /* \"#utility.yul\":10627:10629   */\n      0x20\n        /* \"#utility.yul\":10622:10624   */\n      0x1f\n        /* \"#utility.yul\":10615:10620   */\n      dup4\n        /* \"#utility.yul\":10611:10625   */\n      add\n        /* \"#utility.yul\":10607:10630   */\n      div\n        /* \"#utility.yul\":10597:10630   */\n      swap1\n      pop\n        /* \"#utility.yul\":10543:10636   */\n      swap2\n      swap1\n      pop\n      jump\t// out\n        /* \"#utility.yul\":10642:10749   */\n    tag_88:\n        /* \"#utility.yul\":10686:10694   */\n      0x00\n        /* \"#utility.yul\":10736:10741   */\n      dup3\n        /* \"#utility.yul\":10730:10734   */\n      dup3\n        /* \"#utility.yul\":10726:10742   */\n      shl\n        /* \"#utility.yul\":10705:10742   */\n      swap1\n      pop\n        /* \"#utility.yul\":10642:10749   */\n      swap3\n      swap2\n      pop\n      pop\n      jump\t// out\n        /* \"#utility.yul\":10755:11148   */\n    tag_89:\n        /* \"#utility.yul\":10824:10830   */\n      0x00\n        /* \"#utility.yul\":10874:10875   */\n      0x08\n        /* \"#utility.yul\":10862:10872   */\n      dup4\n        /* \"#utility.yul\":10858:10876   */\n      mul\n        /* \"#utility.yul\":10897:10994   */\n      tag_205\n        /* \"#utility.yul\":10927:10993   */\n      0xffffffffffffffffffffffffffffffffffffffffffffffffffffffffffffffff\n        /* \"#utility.yul\":10916:10925   */\n      dup3\n        /* \"#utility.yul\":10897:10994   */\n      tag_88\n      jump\t// in\n    tag_205:\n        /* \"#utility.yul\":11015:11054   */\n      tag_206\n        /* \"#utility.yul\":11045:11053   */\n      dup7\n        /* \"#utility.yul\":11034:11043   */\n      dup4\n        /* \"#utility.yul\":11015:11054   */\n      tag_88\n      jump\t// in\n    tag_206:\n        /* \"#utility.yul\":11003:11054   */\n      swap6\n      pop\n        /* \"#utility.yul\":11087:11091   */\n      dup1\n        /* \"#utility.yul\":11083:11092   */\n      not\n        /* \"#utility.yul\":11076:11081   */\n      dup5\n        /* \"#utility.yul\":11072:11093   */\n      and\n        /* \"#utility.yul\":11063:11093   */\n      swap4\n      pop\n        /* \"#utility.yul\":11136:11140   */\n      dup1\n        /* \"#utility.yul\":11126:11134   */\n      dup7\n        /* \"#utility.yul\":11122:11141   */\n      and\n        /* \"#utility.yul\":11115:11120   */\n      dup5\n        /* \"#utility.yul\":11112:11142   */\n      or\n        /* \"#utility.yul\":11102:11142   */\n      swap3\n      pop\n        /* \"#utility.yul\":10831:11148   */\n      pop\n      pop\n        /* \"#utility.yul\":10755:11148   */\n      swap4\n      swap3\n      pop\n      pop\n      pop\n      jump\t// out\n        /* \"#utility.yul\":11154:11214   */\n    tag_90:\n        /* \"#utility.yul\":11182:11185   */\n      0x00\n        /* \"#utility.yul\":11203:11208   */\n      dup2\n        /* \"#utility.yul\":11196:11208   */\n      swap1\n      pop\n        /* \"#utility.yul\":11154:11214   */\n      swap2\n      swap1\n      pop\n      jump\t// out\n        /* \"#utility.yul\":11220:11362   */\n    tag_91:\n        /* \"#utility.yul\":11270:11279   */\n      0x00\n        /* \"#utility.yul\":11303:11356   */\n      tag_209\n        /* \"#utility.yul\":11321:11355   */\n      tag_210\n        /* \"#utility.yul\":11330:11354   */\n      tag_211\n        /* \"#utility.yul\":11348:11353   */\n      dup5\n        /* \"#utility.yul\":11330:11354   */\n      tag_60\n      jump\t// in\n    tag_211:\n        /* \"#utility.yul\":11321:11355   */\n      tag_90\n      jump\t// in\n    tag_210:\n        /* \"#utility.yul\":11303:11356   */\n      tag_60\n      jump\t// in\n    tag_209:\n        /* \"#utility.yul\":11290:11356   */\n      swap1\n      pop\n        /* \"#utility.yul\":11220:11362   */\n      swap2\n      swap1\n      pop\n      jump\t// out\n        /* \"#utility.yul\":11368:11443   */\n    tag_92:\n        /* \"#utility.yul\":11411:11414   */\n      0x00\n        /* \"#utility.yul\":11432:11437   */\n      dup2\n        /* \"#utility.yul\":11425:11437   */\n      swap1\n      pop\n        /* \"#utility.yul\":11368:11443   */\n      swap2\n      swap1\n      pop\n      jump\t// out\n        /* \"#utility.yul\":11449:11718   */\n    tag_93:\n        /* \"#utility.yul\":11559:11598   */\n      tag_214\n        /* \"#utility.yul\":11590:11597   */\n      dup4\n        /* \"#utility.yul\":11559:11598   */\n      tag_91\n      jump\t// in\n    tag_214:\n        /* \"#utility.yul\":11620:11711   */\n      tag_215\n        /* \"#utility.yul\":11669:11710   */\n      tag_216\n        /* \"#utility.yul\":11693:11709   */\n      dup3\n        /* \"#utility.yul\":11669:11710   */\n      tag_92\n      jump\t// in\n    tag_216:\n        /* \"#utility.yul\":11661:11667   */\n      dup5\n        /* \"#utility.yul\":11654:11658   */\n      dup5\n        /* \"#utility.yul\":11648:11659   */\n      sload\n        /* \"#utility.yul\":11620:11711   */\n      tag_89\n      jump\t// in\n    tag_215:\n        /* \"#utility.yul\":11614:11618   */\n      dup3\n        /* \"#utility.yul\":11607:11712   */\n      sstore\n        /* \"#utility.yul\":11525:11718   */\n      pop\n        /* \"#utility.yul\":11449:11718   */\n      pop\n      pop\n      pop\n      jump\t// out\n        /* \"#utility.yul\":11724:11797   */\n    tag_94:\n        /* \"#utility.yul\":11769:11772   */\n      0x00\n        /* \"#utility.yul\":11724:11797   */\n      swap1\n      jump\t// out\n        /* \"#utility.yul\":11803:11992   */\n    tag_95:\n        /* \"#utility.yul\":11880:11912   */\n      tag_219\n      tag_94\n      jump\t// in\n    tag_219:\n        /* \"#utility.yul\":11921:11986   */\n      tag_220\n        /* \"#utility.yul\":11979:11985   */\n      dup2\n        /* \"#utility.yul\":11971:11977   */\n      dup5\n        /* \"#utility.yul\":11965:11969   */\n      dup5\n        /* \"#utility.yul\":11921:11986   */\n      tag_93\n      jump\t// in\n    tag_220:\n        /* \"#utility.yul\":11856:11992   */\n      pop\n        /* \"#utility.yul\":11803:11992   */\n      pop\n      pop\n      jump\t// out\n        /* \"#utility.yul\":11998:12184   */\n    tag_96:\n        /* \"#utility.yul\":12058:12178   */\n    tag_222:\n        /* \"#utility.yul\":12075:12078   */\n      dup2\n        /* \"#utility.yul\":12068:12073   */\n      dup2\n        /* \"#utility.yul\":12065:12079   */\n      lt\n        /* \"#utility.yul\":12058:12178   */\n      iszero\n      tag_224\n      jumpi\n        /* \"#utility.yul\":12129:12168   */\n      tag_225\n        /* \"#utility.yul\":12166:12167   */\n      0x00\n        /* \"#utility.yul\":12159:12164   */\n      dup3\n        /* \"#utility.yul\":12129:12168   */\n      tag_95\n      jump\t// in\n    tag_225:\n        /* \"#utility.yul\":12102:12103   */\n      0x01\n        /* \"#utility.yul\":12095:12100   */\n      dup2\n        /* \"#utility.yul\":12091:12104   */\n      add\n        /* \"#utility.yul\":12082:12104   */\n      swap1\n      pop\n        /* \"#utility.yul\":12058:12178   */\n      jump(tag_222)\n    tag_224:\n        /* \"#utility.yul\":11998:12184   */\n      pop\n      pop\n      jump\t// out\n        /* \"#utility.yul\":12190:12733   */\n    tag_97:\n        /* \"#utility.yul\":12291:12293   */\n      0x1f\n        /* \"#utility.yul\":12286:12289   */\n      dup3\n        /* \"#utility.yul\":12283:12294   */\n      gt\n        /* \"#utility.yul\":12280:12726   */\n      iszero\n      tag_227\n      jumpi\n        /* \"#utility.yul\":12325:12363   */\n      tag_228\n        /* \"#utility.yul\":12357:12362   */\n      dup2\n        /* \"#utility.yul\":12325:12363   */\n      tag_86\n      jump\t// in\n    tag_228:\n        /* \"#utility.yul\":12409:12438   */\n      tag_229\n        /* \"#utility.yul\":12427:12437   */\n      dup5\n        /* \"#utility.yul\":12409:12438   */\n      tag_87\n      jump\t// in\n    tag_229:\n        /* \"#utility.yul\":12399:12407   */\n      dup2\n        /* \"#utility.yul\":12395:12439   */\n      add\n        /* \"#utility.yul\":12592:12594   */\n      0x20\n        /* \"#utility.yul\":12580:12590   */\n      dup6\n        /* \"#utility.yul\":12577:12595   */\n      lt\n        /* \"#utility.yul\":12574:12623   */\n      iszero\n      tag_230\n      jumpi\n        /* \"#utility.yul\":12613:12621   */\n      dup2\n        /* \"#utility.yul\":12598:12621   */\n      swap1\n      pop\n        /* \"#utility.yul\":12574:12623   */\n    tag_230:\n        /* \"#utility.yul\":12636:12716   */\n      tag_231\n        /* \"#utility.yul\":12692:12714   */\n      tag_232\n        /* \"#utility.yul\":12710:12713   */\n      dup6\n        /* \"#utility.yul\":12692:12714   */\n      tag_87\n      jump\t// in\n    tag_232:\n        /* \"#utility.yul\":12682:12690   */\n      dup4\n        /* \"#utility.yul\":12678:12715   */\n      add\n        /* \"#utility.yul\":12665:12676   */\n      dup3\n        /* \"#utility.yul\":12636:12716   */\n      tag_96\n      jump\t// in\n    tag_231:\n        /* \"#utility.yul\":12295:12726   */\n      pop\n      pop\n        /* \"#utility.yul\":12280:12726   */\n    tag_227:\n        /* \"#utility.yul\":12190:12733   */\n      pop\n      pop\n      pop\n      jump\t// out\n        /* \"#utility.yul\":12739:12856   */\n    tag_98:\n        /* \"#utility.yul\":12793:12801   */\n      0x00\n        /* \"#utility.yul\":12843:12848   */\n      dup3\n        /* \"#utility.yul\":12837:12841   */\n      dup3\n        /* \"#utility.yul\":12833:12849   */\n      shr\n        /* \"#utility.yul\":12812:12849   */\n      swap1\n      pop\n        /* \"#utility.yul\":12739:12856   */\n      swap3\n      swap2\n      pop\n      pop\n      jump\t// out\n        /* \"#utility.yul\":12862:13031   */\n    tag_99:\n        /* \"#utility.yul\":12906:12912   */\n      0x00\n        /* \"#utility.yul\":12939:12990   */\n      tag_235\n        /* \"#utility.yul\":12987:12988   */\n      0x00\n        /* \"#utility.yul\":12983:12989   */\n      not\n        /* \"#utility.yul\":12975:12980   */\n      dup5\n        /* \"#utility.yul\":12972:12973   */\n      0x08\n        /* \"#utility.yul\":12968:12981   */\n      mul\n        /* \"#utility.yul\":12939:12990   */\n      tag_98\n      jump\t// in\n    tag_235:\n        /* \"#utility.yul\":12935:12991   */\n      not\n        /* \"#utility.yul\":13020:13024   */\n      dup1\n        /* \"#utility.yul\":13014:13018   */\n      dup4\n        /* \"#utility.yul\":13010:13025   */\n      and\n        /* \"#utility.yul\":13000:13025   */\n      swap2\n      pop\n        /* \"#utility.yul\":12913:13031   */\n      pop\n        /* \"#utility.yul\":12862:13031   */\n      swap3\n      swap2\n      pop\n      pop\n      jump\t// out\n        /* \"#utility.yul\":13036:13331   */\n    tag_100:\n        /* \"#utility.yul\":13112:13116   */\n      0x00\n        /* \"#utility.yul\":13258:13287   */\n      tag_237\n        /* \"#utility.yul\":13283:13286   */\n      dup4\n        /* \"#utility.yul\":13277:13281   */\n      dup4\n        /* \"#utility.yul\":13258:13287   */\n      tag_99\n      jump\t// in\n    tag_237:\n        /* \"#utility.yul\":13250:13287   */\n      swap2\n      pop\n        /* \"#utility.yul\":13320:13323   */\n      dup3\n        /* \"#utility.yul\":13317:13318   */\n      0x02\n        /* \"#utility.yul\":13313:13324   */\n      mul\n        /* \"#utility.yul\":13307:13311   */\n      dup3\n        /* \"#utility.yul\":13304:13325   */\n      or\n        /* \"#utility.yul\":13296:13325   */\n      swap1\n      pop\n        /* \"#utility.yul\":13036:13331   */\n      swap3\n      swap2\n      pop\n      pop\n      jump\t// out\n        /* \"#utility.yul\":13336:14731   */\n    tag_34:\n        /* \"#utility.yul\":13453:13490   */\n      tag_239\n        /* \"#utility.yul\":13486:13489   */\n      dup3\n        /* \"#utility.yul\":13453:13490   */\n      tag_55\n      jump\t// in\n    tag_239:\n        /* \"#utility.yul\":13555:13573   */\n      0xffffffffffffffff\n        /* \"#utility.yul\":13547:13553   */\n      dup2\n        /* \"#utility.yul\":13544:13574   */\n      gt\n        /* \"#utility.yul\":13541:13597   */\n      iszero\n      tag_240\n      jumpi\n        /* \"#utility.yul\":13577:13595   */\n      tag_241\n      tag_73\n      jump\t// in\n    tag_241:\n        /* \"#utility.yul\":13541:13597   */\n    tag_240:\n        /* \"#utility.yul\":13621:13659   */\n      tag_242\n        /* \"#utility.yul\":13653:13657   */\n      dup3\n        /* \"#utility.yul\":13647:13658   */\n      sload\n        /* \"#utility.yul\":13621:13659   */\n      tag_22\n      jump\t// in\n    tag_242:\n        /* \"#utility.yul\":13706:13773   */\n      tag_243\n        /* \"#utility.yul\":13766:13772   */\n      dup3\n        /* \"#utility.yul\":13758:13764   */\n      dup3\n        /* \"#utility.yul\":13752:13756   */\n      dup6\n        /* \"#utility.yul\":13706:13773   */\n      tag_97\n      jump\t// in\n    tag_243:\n        /* \"#utility.yul\":13800:13801   */\n      0x00\n        /* \"#utility.yul\":13824:13828   */\n      0x20\n        /* \"#utility.yul\":13811:13828   */\n      swap1\n      pop\n        /* \"#utility.yul\":13856:13858   */\n      0x1f\n        /* \"#utility.yul\":13848:13854   */\n      dup4\n        /* \"#utility.yul\":13845:13859   */\n      gt\n        /* \"#utility.yul\":13873:13874   */\n      0x01\n        /* \"#utility.yul\":13868:14486   */\n      dup2\n      eq\n      tag_245\n      jumpi\n        /* \"#utility.yul\":14530:14531   */\n      0x00\n        /* \"#utility.yul\":14547:14553   */\n      dup5\n        /* \"#utility.yul\":14544:14621   */\n      iszero\n      tag_246\n      jumpi\n        /* \"#utility.yul\":14596:14605   */\n      dup3\n        /* \"#utility.yul\":14591:14594   */\n      dup8\n        /* \"#utility.yul\":14587:14606   */\n      add\n        /* \"#utility.yul\":14581:14607   */\n      mload\n        /* \"#utility.yul\":14572:14607   */\n      swap1\n      pop\n        /* \"#utility.yul\":14544:14621   */\n    tag_246:\n        /* \"#utility.yul\":14647:14714   */\n      tag_247\n        /* \"#utility.yul\":14707:14713   */\n      dup6\n        /* \"#utility.yul\":14700:14705   */\n      dup3\n        /* \"#utility.yul\":14647:14714   */\n      tag_100\n      jump\t// in\n    tag_247:\n        /* \"#utility.yul\":14641:14645   */\n      dup7\n        /* \"#utility.yul\":14634:14715   */\n      sstore\n        /* \"#utility.yul\":14503:14725   */\n      pop\n        /* \"#utility.yul\":13838:14725   */\n      jump(tag_244)\n        /* \"#utility.yul\":13868:14486   */\n    tag_245:\n        /* \"#utility.yul\":13920:13924   */\n      0x1f\n        /* \"#utility.yul\":13916:13925   */\n      not\n        /* \"#utility.yul\":13908:13914   */\n      dup5\n        /* \"#utility.yul\":13904:13926   */\n      and\n        /* \"#utility.yul\":13954:13991   */\n      tag_248\n        /* \"#utility.yul\":13986:13990   */\n      dup7\n        /* \"#utility.yul\":13954:13991   */\n      tag_86\n      jump\t// in\n    tag_248:\n        /* \"#utility.yul\":14013:14014   */\n      0x00\n        /* \"#utility.yul\":14027:14235   */\n    tag_249:\n        /* \"#utility.yul\":14041:14048   */\n      dup3\n        /* \"#utility.yul\":14038:14039   */\n      dup2\n        /* \"#utility.yul\":14035:14049   */\n      lt\n        /* \"#utility.yul\":14027:14235   */\n      iszero\n      tag_251\n      jumpi\n        /* \"#utility.yul\":14120:14129   */\n      dup5\n        /* \"#utility.yul\":14115:14118   */\n      dup10\n        /* \"#utility.yul\":14111:14130   */\n      add\n        /* \"#utility.yul\":14105:14131   */\n      mload\n        /* \"#utility.yul\":14097:14103   */\n      dup3\n        /* \"#utility.yul\":14090:14132   */\n      sstore\n        /* \"#utility.yul\":14171:14172   */\n      0x01\n        /* \"#utility.yul\":14163:14169   */\n      dup3\n        /* \"#utility.yul\":14159:14173   */\n      add\n        /* \"#utility.yul\":14149:14173   */\n      swap2\n      pop\n        /* \"#utility.yul\":14218:14220   */\n      0x20\n        /* \"#utility.yul\":14207:14216   */\n      dup6\n        /* \"#utility.yul\":14203:14221   */\n      add\n        /* \"#utility.yul\":14190:14221   */\n      swap5\n      pop\n        /* \"#utility.yul\":14064:14068   */\n      0x20\n        /* \"#utility.yul\":14061:14062   */\n      dup2\n        /* \"#utility.yul\":14057:14069   */\n      add\n        /* \"#utility.yul\":14052:14069   */\n      swap1\n      pop\n        /* \"#utility.yul\":14027:14235   */\n      jump(tag_249)\n    tag_251:\n        /* \"#utility.yul\":14263:14269   */\n      dup7\n        /* \"#utility.yul\":14254:14261   */\n      dup4\n        /* \"#utility.yul\":14251:14270   */\n      lt\n        /* \"#utility.yul\":14248:14427   */\n      iszero\n      tag_252\n      jumpi\n        /* \"#utility.yul\":14321:14330   */\n      dup5\n        /* \"#utility.yul\":14316:14319   */\n      dup10\n        /* \"#utility.yul\":14312:14331   */\n      add\n        /* \"#utility.yul\":14306:14332   */\n      mload\n        /* \"#utility.yul\":14364:14412   */\n      tag_253\n        /* \"#utility.yul\":14406:14410   */\n      0x1f\n        /* \"#utility.yul\":14398:14404   */\n      dup10\n        /* \"#utility.yul\":14394:14411   */\n      and\n        /* \"#utility.yul\":14383:14392   */\n      dup3\n        /* \"#utility.yul\":14364:14412   */\n      tag_99\n      jump\t// in\n    tag_253:\n        /* \"#utility.yul\":14356:14362   */\n      dup4\n        /* \"#utility.yul\":14349:14413   */\n      sstore\n        /* \"#utility.yul\":14271:14427   */\n      pop\n        /* \"#utility.yul\":14248:14427   */\n    tag_252:\n        /* \"#utility.yul\":14473:14474   */\n      0x01\n        /* \"#utility.yul\":14469:14470   */\n      0x02\n        /* \"#utility.yul\":14461:14467   */\n      dup9\n        /* \"#utility.yul\":14457:14471   */\n      mul\n        /* \"#utility.yul\":14453:14475   */\n      add\n        /* \"#utility.yul\":14447:14451   */\n      dup9\n        /* \"#utility.yul\":14440:14476   */\n      sstore\n        /* \"#utility.yul\":13875:14486   */\n      pop\n      pop\n      pop\n        /* \"#utility.yul\":13838:14725   */\n    tag_244:\n      pop\n        /* \"#utility.yul\":13428:14731   */\n      pop\n      pop\n      pop\n        /* \"#utility.yul\":13336:14731   */\n      pop\n      pop\n      jump\t// out\n\n    auxdata: 0xa2646970667358221220811fce6c5ef0e5a2fbd55afaa66140c1b2e14cec86e759c63335b2c942646af264736f6c63430008130033\n}\n",
				"bytecode": {
					"linkReferences": {},
					"object": "608060405234801561001057600080fd5b50336000806101000a81548173ffffffffffffffffffffffffffffffffffffffff021916908373ffffffffffffffffffffffffffffffffffffffff160217905550610e24806100606000396000f3fe608060405234801561001057600080fd5b50600436106100415760003560e01c80631afed255146100465780639fab879e14610064578063a7f9fe7214610080575b600080fd5b61004e61009e565b60405161005b9190610861565b60405180910390f35b61007e60048036038101906100799190610a24565b61022c565b005b610088610486565b6040516100959190610861565b60405180910390f35b6060600260003373ffffffffffffffffffffffffffffffffffffffff1673ffffffffffffffffffffffffffffffffffffffff168152602001908152602001600020805480602002602001604051908101604052809291908181526020016000905b8282101561022357838290600052602060002090600302016040518060600160405290816000820160009054906101000a900473ffffffffffffffffffffffffffffffffffffffff1673ffffffffffffffffffffffffffffffffffffffff1673ffffffffffffffffffffffffffffffffffffffff16815260200160018201805461018890610ac2565b80601f01602080910402602001604051908101604052809291908181526020018280546101b490610ac2565b80156102015780601f106101d657610100808354040283529160200191610201565b820191906000526020600020905b8154815290600101906020018083116101e457829003601f168201915b50505050508152602001600282015481525050815260200190600101906100ff565b50505050905090565b60008054906101000a900473ffffffffffffffffffffffffffffffffffffffff1673ffffffffffffffffffffffffffffffffffffffff163373ffffffffffffffffffffffffffffffffffffffff16146102ba576040517f08c379a00000000000000000000000000000000000000000000000000000000081526004016102b190610b50565b60405180910390fd5b600160405180606001604052808573ffffffffffffffffffffffffffffffffffffffff16815260200184815260200183815250908060018154018082558091505060019003906000526020600020906003020160009091909190915060008201518160000160006101000a81548173ffffffffffffffffffffffffffffffffffffffff021916908373ffffffffffffffffffffffffffffffffffffffff16021790555060208201518160010190816103729190610d1c565b50604082015181600201555050600260008473ffffffffffffffffffffffffffffffffffffffff1673ffffffffffffffffffffffffffffffffffffffff16815260200190815260200160002060405180606001604052808573ffffffffffffffffffffffffffffffffffffffff16815260200184815260200183815250908060018154018082558091505060019003906000526020600020906003020160009091909190915060008201518160000160006101000a81548173ffffffffffffffffffffffffffffffffffffffff021916908373ffffffffffffffffffffffffffffffffffffffff16021790555060208201518160010190816104749190610d1c565b50604082015181600201555050505050565b606060008054906101000a900473ffffffffffffffffffffffffffffffffffffffff1673ffffffffffffffffffffffffffffffffffffffff163373ffffffffffffffffffffffffffffffffffffffff1614610516576040517f08c379a000000000000000000000000000000000000000000000000000000000815260040161050d90610b50565b60405180910390fd5b6001805480602002602001604051908101604052809291908181526020016000905b8282101561065c57838290600052602060002090600302016040518060600160405290816000820160009054906101000a900473ffffffffffffffffffffffffffffffffffffffff1673ffffffffffffffffffffffffffffffffffffffff1673ffffffffffffffffffffffffffffffffffffffff1681526020016001820180546105c190610ac2565b80601f01602080910402602001604051908101604052809291908181526020018280546105ed90610ac2565b801561063a5780601f1061060f5761010080835404028352916020019161063a565b820191906000526020600020905b81548152906001019060200180831161061d57829003601f168201915b5050505050815260200160028201548152505081526020019060010190610538565b50505050905090565b600081519050919050565b600082825260208201905092915050565b6000819050602082019050919050565b600073ffffffffffffffffffffffffffffffffffffffff82169050919050565b60006106bc82610691565b9050919050565b6106cc816106b1565b82525050565b600081519050919050565b600082825260208201905092915050565b60005b8381101561070c5780820151818401526020810190506106f1565b60008484015250505050565b6000601f19601f8301169050919050565b6000610734826106d2565b61073e81856106dd565b935061074e8185602086016106ee565b61075781610718565b840191505092915050565b6000819050919050565b61077581610762565b82525050565b600060608301600083015161079360008601826106c3565b50602083015184820360208601526107ab8282610729565b91505060408301516107c0604086018261076c565b508091505092915050565b60006107d7838361077b565b905092915050565b6000602082019050919050565b60006107f782610665565b6108018185610670565b93508360208202850161081385610681565b8060005b8581101561084f578484038952815161083085826107cb565b945061083b836107df565b925060208a01995050600181019050610817565b50829750879550505050505092915050565b6000602082019050818103600083015261087b81846107ec565b905092915050565b6000604051905090565b600080fd5b600080fd5b6108a0816106b1565b81146108ab57600080fd5b50565b6000813590506108bd81610897565b92915050565b600080fd5b600080fd5b7f4e487b7100000000000000000000000000000000000000000000000000000000600052604160045260246000fd5b61090582610718565b810181811067ffffffffffffffff82111715610924576109236108cd565b5b80604052505050565b6000610937610883565b905061094382826108fc565b919050565b600067ffffffffffffffff821115610963576109626108cd565b5b61096c82610718565b9050602081019050919050565b82818337600083830152505050565b600061099b61099684610948565b61092d565b9050828152602081018484840111156109b7576109b66108c8565b5b6109c2848285610979565b509392505050565b600082601f8301126109df576109de6108c3565b5b81356109ef848260208601610988565b91505092915050565b610a0181610762565b8114610a0c57600080fd5b50565b600081359050610a1e816109f8565b92915050565b600080600060608486031215610a3d57610a3c61088d565b5b6000610a4b868287016108ae565b935050602084013567ffffffffffffffff811115610a6c57610a6b610892565b5b610a78868287016109ca565b9250506040610a8986828701610a0f565b9150509250925092565b7f4e487b7100000000000000000000000000000000000000000000000000000000600052602260045260246000fd5b60006002820490506001821680610ada57607f821691505b602082108103610aed57610aec610a93565b5b50919050565b600082825260208201905092915050565b7f596f7520617265206e6f74206f776e6572000000000000000000000000000000600082015250565b6000610b3a601183610af3565b9150610b4582610b04565b602082019050919050565b60006020820190508181036000830152610b6981610b2d565b9050919050565b60008190508160005260206000209050919050565b60006020601f8301049050919050565b600082821b905092915050565b600060088302610bd27fffffffffffffffffffffffffffffffffffffffffffffffffffffffffffffffff82610b95565b610bdc8683610b95565b95508019841693508086168417925050509392505050565b6000819050919050565b6000610c19610c14610c0f84610762565b610bf4565b610762565b9050919050565b6000819050919050565b610c3383610bfe565b610c47610c3f82610c20565b848454610ba2565b825550505050565b600090565b610c5c610c4f565b610c67818484610c2a565b505050565b5b81811015610c8b57610c80600082610c54565b600181019050610c6d565b5050565b601f821115610cd057610ca181610b70565b610caa84610b85565b81016020851015610cb9578190505b610ccd610cc585610b85565b830182610c6c565b50505b505050565b600082821c905092915050565b6000610cf360001984600802610cd5565b1980831691505092915050565b6000610d0c8383610ce2565b9150826002028217905092915050565b610d25826106d2565b67ffffffffffffffff811115610d3e57610d3d6108cd565b5b610d488254610ac2565b610d53828285610c8f565b600060209050601f831160018114610d865760008415610d74578287015190505b610d7e8582610d00565b865550610de6565b601f198416610d9486610b70565b60005b82811015610dbc57848901518255600182019150602085019450602081019050610d97565b86831015610dd95784890151610dd5601f891682610ce2565b8355505b6001600288020188555050505b50505050505056fea2646970667358221220811fce6c5ef0e5a2fbd55afaa66140c1b2e14cec86e759c63335b2c942646af264736f6c63430008130033",
					"opcodes": "PUSH1 0x80 PUSH1 0x40 MSTORE CALLVALUE DUP1 ISZERO PUSH2 0x10 JUMPI PUSH1 0x0 DUP1 REVERT JUMPDEST POP CALLER PUSH1 0x0 DUP1 PUSH2 0x100 EXP DUP2 SLOAD DUP2 PUSH20 0xFFFFFFFFFFFFFFFFFFFFFFFFFFFFFFFFFFFFFFFF MUL NOT AND SWAP1 DUP4 PUSH20 0xFFFFFFFFFFFFFFFFFFFFFFFFFFFFFFFFFFFFFFFF AND MUL OR SWAP1 SSTORE POP PUSH2 0xE24 DUP1 PUSH2 0x60 PUSH1 0x0 CODECOPY PUSH1 0x0 RETURN INVALID PUSH1 0x80 PUSH1 0x40 MSTORE CALLVALUE DUP1 ISZERO PUSH2 0x10 JUMPI PUSH1 0x0 DUP1 REVERT JUMPDEST POP PUSH1 0x4 CALLDATASIZE LT PUSH2 0x41 JUMPI PUSH1 0x0 CALLDATALOAD PUSH1 0xE0 SHR DUP1 PUSH4 0x1AFED255 EQ PUSH2 0x46 JUMPI DUP1 PUSH4 0x9FAB879E EQ PUSH2 0x64 JUMPI DUP1 PUSH4 0xA7F9FE72 EQ PUSH2 0x80 JUMPI JUMPDEST PUSH1 0x0 DUP1 REVERT JUMPDEST PUSH2 0x4E PUSH2 0x9E JUMP JUMPDEST PUSH1 0x40 MLOAD PUSH2 0x5B SWAP2 SWAP1 PUSH2 0x861 JUMP JUMPDEST PUSH1 0x40 MLOAD DUP1 SWAP2 SUB SWAP1 RETURN JUMPDEST PUSH2 0x7E PUSH1 0x4 DUP1 CALLDATASIZE SUB DUP2 ADD SWAP1 PUSH2 0x79 SWAP2 SWAP1 PUSH2 0xA24 JUMP JUMPDEST PUSH2 0x22C JUMP JUMPDEST STOP JUMPDEST PUSH2 0x88 PUSH2 0x486 JUMP JUMPDEST PUSH1 0x40 MLOAD PUSH2 0x95 SWAP2 SWAP1 PUSH2 0x861 JUMP JUMPDEST PUSH1 0x40 MLOAD DUP1 SWAP2 SUB SWAP1 RETURN JUMPDEST PUSH1 0x60 PUSH1 0x2 PUSH1 0x0 CALLER PUSH20 0xFFFFFFFFFFFFFFFFFFFFFFFFFFFFFFFFFFFFFFFF AND PUSH20 0xFFFFFFFFFFFFFFFFFFFFFFFFFFFFFFFFFFFFFFFF AND DUP2 MSTORE PUSH1 0x20 ADD SWAP1 DUP2 MSTORE PUSH1 0x20 ADD PUSH1 0x0 KECCAK256 DUP1 SLOAD DUP1 PUSH1 0x20 MUL PUSH1 0x20 ADD PUSH1 0x40 MLOAD SWAP1 DUP2 ADD PUSH1 0x40 MSTORE DUP1 SWAP3 SWAP2 SWAP1 DUP2 DUP2 MSTORE PUSH1 0x20 ADD PUSH1 0x0 SWAP1 JUMPDEST DUP3 DUP3 LT ISZERO PUSH2 0x223 JUMPI DUP4 DUP3 SWAP1 PUSH1 0x0 MSTORE PUSH1 0x20 PUSH1 0x0 KECCAK256 SWAP1 PUSH1 0x3 MUL ADD PUSH1 0x40 MLOAD DUP1 PUSH1 0x60 ADD PUSH1 0x40 MSTORE SWAP1 DUP2 PUSH1 0x0 DUP3 ADD PUSH1 0x0 SWAP1 SLOAD SWAP1 PUSH2 0x100 EXP SWAP1 DIV PUSH20 0xFFFFFFFFFFFFFFFFFFFFFFFFFFFFFFFFFFFFFFFF AND PUSH20 0xFFFFFFFFFFFFFFFFFFFFFFFFFFFFFFFFFFFFFFFF AND PUSH20 0xFFFFFFFFFFFFFFFFFFFFFFFFFFFFFFFFFFFFFFFF AND DUP2 MSTORE PUSH1 0x20 ADD PUSH1 0x1 DUP3 ADD DUP1 SLOAD PUSH2 0x188 SWAP1 PUSH2 0xAC2 JUMP JUMPDEST DUP1 PUSH1 0x1F ADD PUSH1 0x20 DUP1 SWAP2 DIV MUL PUSH1 0x20 ADD PUSH1 0x40 MLOAD SWAP1 DUP2 ADD PUSH1 0x40 MSTORE DUP1 SWAP3 SWAP2 SWAP1 DUP2 DUP2 MSTORE PUSH1 0x20 ADD DUP3 DUP1 SLOAD PUSH2 0x1B4 SWAP1 PUSH2 0xAC2 JUMP JUMPDEST DUP1 ISZERO PUSH2 0x201 JUMPI DUP1 PUSH1 0x1F LT PUSH2 0x1D6 JUMPI PUSH2 0x100 DUP1 DUP4 SLOAD DIV MUL DUP4 MSTORE SWAP2 PUSH1 0x20 ADD SWAP2 PUSH2 0x201 JUMP JUMPDEST DUP3 ADD SWAP2 SWAP1 PUSH1 0x0 MSTORE PUSH1 0x20 PUSH1 0x0 KECCAK256 SWAP1 JUMPDEST DUP2 SLOAD DUP2 MSTORE SWAP1 PUSH1 0x1 ADD SWAP1 PUSH1 0x20 ADD DUP1 DUP4 GT PUSH2 0x1E4 JUMPI DUP3 SWAP1 SUB PUSH1 0x1F AND DUP3 ADD SWAP2 JUMPDEST POP POP POP POP POP DUP2 MSTORE PUSH1 0x20 ADD PUSH1 0x2 DUP3 ADD SLOAD DUP2 MSTORE POP POP DUP2 MSTORE PUSH1 0x20 ADD SWAP1 PUSH1 0x1 ADD SWAP1 PUSH2 0xFF JUMP JUMPDEST POP POP POP POP SWAP1 POP SWAP1 JUMP JUMPDEST PUSH1 0x0 DUP1 SLOAD SWAP1 PUSH2 0x100 EXP SWAP1 DIV PUSH20 0xFFFFFFFFFFFFFFFFFFFFFFFFFFFFFFFFFFFFFFFF AND PUSH20 0xFFFFFFFFFFFFFFFFFFFFFFFFFFFFFFFFFFFFFFFF AND CALLER PUSH20 0xFFFFFFFFFFFFFFFFFFFFFFFFFFFFFFFFFFFFFFFF AND EQ PUSH2 0x2BA JUMPI PUSH1 0x40 MLOAD PUSH32 0x8C379A000000000000000000000000000000000000000000000000000000000 DUP2 MSTORE PUSH1 0x4 ADD PUSH2 0x2B1 SWAP1 PUSH2 0xB50 JUMP JUMPDEST PUSH1 0x40 MLOAD DUP1 SWAP2 SUB SWAP1 REVERT JUMPDEST PUSH1 0x1 PUSH1 0x40 MLOAD DUP1 PUSH1 0x60 ADD PUSH1 0x40 MSTORE DUP1 DUP6 PUSH20 0xFFFFFFFFFFFFFFFFFFFFFFFFFFFFFFFFFFFFFFFF AND DUP2 MSTORE PUSH1 0x20 ADD DUP5 DUP2 MSTORE PUSH1 0x20 ADD DUP4 DUP2 MSTORE POP SWAP1 DUP1 PUSH1 0x1 DUP2 SLOAD ADD DUP1 DUP3 SSTORE DUP1 SWAP2 POP POP PUSH1 0x1 SWAP1 SUB SWAP1 PUSH1 0x0 MSTORE PUSH1 0x20 PUSH1 0x0 KECCAK256 SWAP1 PUSH1 0x3 MUL ADD PUSH1 0x0 SWAP1 SWAP2 SWAP1 SWAP2 SWAP1 SWAP2 POP PUSH1 0x0 DUP3 ADD MLOAD DUP2 PUSH1 0x0 ADD PUSH1 0x0 PUSH2 0x100 EXP DUP2 SLOAD DUP2 PUSH20 0xFFFFFFFFFFFFFFFFFFFFFFFFFFFFFFFFFFFFFFFF MUL NOT AND SWAP1 DUP4 PUSH20 0xFFFFFFFFFFFFFFFFFFFFFFFFFFFFFFFFFFFFFFFF AND MUL OR SWAP1 SSTORE POP PUSH1 0x20 DUP3 ADD MLOAD DUP2 PUSH1 0x1 ADD SWAP1 DUP2 PUSH2 0x372 SWAP2 SWAP1 PUSH2 0xD1C JUMP JUMPDEST POP PUSH1 0x40 DUP3 ADD MLOAD DUP2 PUSH1 0x2 ADD SSTORE POP POP PUSH1 0x2 PUSH1 0x0 DUP5 PUSH20 0xFFFFFFFFFFFFFFFFFFFFFFFFFFFFFFFFFFFFFFFF AND PUSH20 0xFFFFFFFFFFFFFFFFFFFFFFFFFFFFFFFFFFFFFFFF AND DUP2 MSTORE PUSH1 0x20 ADD SWAP1 DUP2 MSTORE PUSH1 0x20 ADD PUSH1 0x0 KECCAK256 PUSH1 0x40 MLOAD DUP1 PUSH1 0x60 ADD PUSH1 0x40 MSTORE DUP1 DUP6 PUSH20 0xFFFFFFFFFFFFFFFFFFFFFFFFFFFFFFFFFFFFFFFF AND DUP2 MSTORE PUSH1 0x20 ADD DUP5 DUP2 MSTORE PUSH1 0x20 ADD DUP4 DUP2 MSTORE POP SWAP1 DUP1 PUSH1 0x1 DUP2 SLOAD ADD DUP1 DUP3 SSTORE DUP1 SWAP2 POP POP PUSH1 0x1 SWAP1 SUB SWAP1 PUSH1 0x0 MSTORE PUSH1 0x20 PUSH1 0x0 KECCAK256 SWAP1 PUSH1 0x3 MUL ADD PUSH1 0x0 SWAP1 SWAP2 SWAP1 SWAP2 SWAP1 SWAP2 POP PUSH1 0x0 DUP3 ADD MLOAD DUP2 PUSH1 0x0 ADD PUSH1 0x0 PUSH2 0x100 EXP DUP2 SLOAD DUP2 PUSH20 0xFFFFFFFFFFFFFFFFFFFFFFFFFFFFFFFFFFFFFFFF MUL NOT AND SWAP1 DUP4 PUSH20 0xFFFFFFFFFFFFFFFFFFFFFFFFFFFFFFFFFFFFFFFF AND MUL OR SWAP1 SSTORE POP PUSH1 0x20 DUP3 ADD MLOAD DUP2 PUSH1 0x1 ADD SWAP1 DUP2 PUSH2 0x474 SWAP2 SWAP1 PUSH2 0xD1C JUMP JUMPDEST POP PUSH1 0x40 DUP3 ADD MLOAD DUP2 PUSH1 0x2 ADD SSTORE POP POP POP POP POP JUMP JUMPDEST PUSH1 0x60 PUSH1 0x0 DUP1 SLOAD SWAP1 PUSH2 0x100 EXP SWAP1 DIV PUSH20 0xFFFFFFFFFFFFFFFFFFFFFFFFFFFFFFFFFFFFFFFF AND PUSH20 0xFFFFFFFFFFFFFFFFFFFFFFFFFFFFFFFFFFFFFFFF AND CALLER PUSH20 0xFFFFFFFFFFFFFFFFFFFFFFFFFFFFFFFFFFFFFFFF AND EQ PUSH2 0x516 JUMPI PUSH1 0x40 MLOAD PUSH32 0x8C379A000000000000000000000000000000000000000000000000000000000 DUP2 MSTORE PUSH1 0x4 ADD PUSH2 0x50D SWAP1 PUSH2 0xB50 JUMP JUMPDEST PUSH1 0x40 MLOAD DUP1 SWAP2 SUB SWAP1 REVERT JUMPDEST PUSH1 0x1 DUP1 SLOAD DUP1 PUSH1 0x20 MUL PUSH1 0x20 ADD PUSH1 0x40 MLOAD SWAP1 DUP2 ADD PUSH1 0x40 MSTORE DUP1 SWAP3 SWAP2 SWAP1 DUP2 DUP2 MSTORE PUSH1 0x20 ADD PUSH1 0x0 SWAP1 JUMPDEST DUP3 DUP3 LT ISZERO PUSH2 0x65C JUMPI DUP4 DUP3 SWAP1 PUSH1 0x0 MSTORE PUSH1 0x20 PUSH1 0x0 KECCAK256 SWAP1 PUSH1 0x3 MUL ADD PUSH1 0x40 MLOAD DUP1 PUSH1 0x60 ADD PUSH1 0x40 MSTORE SWAP1 DUP2 PUSH1 0x0 DUP3 ADD PUSH1 0x0 SWAP1 SLOAD SWAP1 PUSH2 0x100 EXP SWAP1 DIV PUSH20 0xFFFFFFFFFFFFFFFFFFFFFFFFFFFFFFFFFFFFFFFF AND PUSH20 0xFFFFFFFFFFFFFFFFFFFFFFFFFFFFFFFFFFFFFFFF AND PUSH20 0xFFFFFFFFFFFFFFFFFFFFFFFFFFFFFFFFFFFFFFFF AND DUP2 MSTORE PUSH1 0x20 ADD PUSH1 0x1 DUP3 ADD DUP1 SLOAD PUSH2 0x5C1 SWAP1 PUSH2 0xAC2 JUMP JUMPDEST DUP1 PUSH1 0x1F ADD PUSH1 0x20 DUP1 SWAP2 DIV MUL PUSH1 0x20 ADD PUSH1 0x40 MLOAD SWAP1 DUP2 ADD PUSH1 0x40 MSTORE DUP1 SWAP3 SWAP2 SWAP1 DUP2 DUP2 MSTORE PUSH1 0x20 ADD DUP3 DUP1 SLOAD PUSH2 0x5ED SWAP1 PUSH2 0xAC2 JUMP JUMPDEST DUP1 ISZERO PUSH2 0x63A JUMPI DUP1 PUSH1 0x1F LT PUSH2 0x60F JUMPI PUSH2 0x100 DUP1 DUP4 SLOAD DIV MUL DUP4 MSTORE SWAP2 PUSH1 0x20 ADD SWAP2 PUSH2 0x63A JUMP JUMPDEST DUP3 ADD SWAP2 SWAP1 PUSH1 0x0 MSTORE PUSH1 0x20 PUSH1 0x0 KECCAK256 SWAP1 JUMPDEST DUP2 SLOAD DUP2 MSTORE SWAP1 PUSH1 0x1 ADD SWAP1 PUSH1 0x20 ADD DUP1 DUP4 GT PUSH2 0x61D JUMPI DUP3 SWAP1 SUB PUSH1 0x1F AND DUP3 ADD SWAP2 JUMPDEST POP POP POP POP POP DUP2 MSTORE PUSH1 0x20 ADD PUSH1 0x2 DUP3 ADD SLOAD DUP2 MSTORE POP POP DUP2 MSTORE PUSH1 0x20 ADD SWAP1 PUSH1 0x1 ADD SWAP1 PUSH2 0x538 JUMP JUMPDEST POP POP POP POP SWAP1 POP SWAP1 JUMP JUMPDEST PUSH1 0x0 DUP2 MLOAD SWAP1 POP SWAP2 SWAP1 POP JUMP JUMPDEST PUSH1 0x0 DUP3 DUP3 MSTORE PUSH1 0x20 DUP3 ADD SWAP1 POP SWAP3 SWAP2 POP POP JUMP JUMPDEST PUSH1 0x0 DUP2 SWAP1 POP PUSH1 0x20 DUP3 ADD SWAP1 POP SWAP2 SWAP1 POP JUMP JUMPDEST PUSH1 0x0 PUSH20 0xFFFFFFFFFFFFFFFFFFFFFFFFFFFFFFFFFFFFFFFF DUP3 AND SWAP1 POP SWAP2 SWAP1 POP JUMP JUMPDEST PUSH1 0x0 PUSH2 0x6BC DUP3 PUSH2 0x691 JUMP JUMPDEST SWAP1 POP SWAP2 SWAP1 POP JUMP JUMPDEST PUSH2 0x6CC DUP2 PUSH2 0x6B1 JUMP JUMPDEST DUP3 MSTORE POP POP JUMP JUMPDEST PUSH1 0x0 DUP2 MLOAD SWAP1 POP SWAP2 SWAP1 POP JUMP JUMPDEST PUSH1 0x0 DUP3 DUP3 MSTORE PUSH1 0x20 DUP3 ADD SWAP1 POP SWAP3 SWAP2 POP POP JUMP JUMPDEST PUSH1 0x0 JUMPDEST DUP4 DUP2 LT ISZERO PUSH2 0x70C JUMPI DUP1 DUP3 ADD MLOAD DUP2 DUP5 ADD MSTORE PUSH1 0x20 DUP2 ADD SWAP1 POP PUSH2 0x6F1 JUMP JUMPDEST PUSH1 0x0 DUP5 DUP5 ADD MSTORE POP POP POP POP JUMP JUMPDEST PUSH1 0x0 PUSH1 0x1F NOT PUSH1 0x1F DUP4 ADD AND SWAP1 POP SWAP2 SWAP1 POP JUMP JUMPDEST PUSH1 0x0 PUSH2 0x734 DUP3 PUSH2 0x6D2 JUMP JUMPDEST PUSH2 0x73E DUP2 DUP6 PUSH2 0x6DD JUMP JUMPDEST SWAP4 POP PUSH2 0x74E DUP2 DUP6 PUSH1 0x20 DUP7 ADD PUSH2 0x6EE JUMP JUMPDEST PUSH2 0x757 DUP2 PUSH2 0x718 JUMP JUMPDEST DUP5 ADD SWAP2 POP POP SWAP3 SWAP2 POP POP JUMP JUMPDEST PUSH1 0x0 DUP2 SWAP1 POP SWAP2 SWAP1 POP JUMP JUMPDEST PUSH2 0x775 DUP2 PUSH2 0x762 JUMP JUMPDEST DUP3 MSTORE POP POP JUMP JUMPDEST PUSH1 0x0 PUSH1 0x60 DUP4 ADD PUSH1 0x0 DUP4 ADD MLOAD PUSH2 0x793 PUSH1 0x0 DUP7 ADD DUP3 PUSH2 0x6C3 JUMP JUMPDEST POP PUSH1 0x20 DUP4 ADD MLOAD DUP5 DUP3 SUB PUSH1 0x20 DUP7 ADD MSTORE PUSH2 0x7AB DUP3 DUP3 PUSH2 0x729 JUMP JUMPDEST SWAP2 POP POP PUSH1 0x40 DUP4 ADD MLOAD PUSH2 0x7C0 PUSH1 0x40 DUP7 ADD DUP3 PUSH2 0x76C JUMP JUMPDEST POP DUP1 SWAP2 POP POP SWAP3 SWAP2 POP POP JUMP JUMPDEST PUSH1 0x0 PUSH2 0x7D7 DUP4 DUP4 PUSH2 0x77B JUMP JUMPDEST SWAP1 POP SWAP3 SWAP2 POP POP JUMP JUMPDEST PUSH1 0x0 PUSH1 0x20 DUP3 ADD SWAP1 POP SWAP2 SWAP1 POP JUMP JUMPDEST PUSH1 0x0 PUSH2 0x7F7 DUP3 PUSH2 0x665 JUMP JUMPDEST PUSH2 0x801 DUP2 DUP6 PUSH2 0x670 JUMP JUMPDEST SWAP4 POP DUP4 PUSH1 0x20 DUP3 MUL DUP6 ADD PUSH2 0x813 DUP6 PUSH2 0x681 JUMP JUMPDEST DUP1 PUSH1 0x0 JUMPDEST DUP6 DUP2 LT ISZERO PUSH2 0x84F JUMPI DUP5 DUP5 SUB DUP10 MSTORE DUP2 MLOAD PUSH2 0x830 DUP6 DUP3 PUSH2 0x7CB JUMP JUMPDEST SWAP5 POP PUSH2 0x83B DUP4 PUSH2 0x7DF JUMP JUMPDEST SWAP3 POP PUSH1 0x20 DUP11 ADD SWAP10 POP POP PUSH1 0x1 DUP2 ADD SWAP1 POP PUSH2 0x817 JUMP JUMPDEST POP DUP3 SWAP8 POP DUP8 SWAP6 POP POP POP POP POP POP SWAP3 SWAP2 POP POP JUMP JUMPDEST PUSH1 0x0 PUSH1 0x20 DUP3 ADD SWAP1 POP DUP2 DUP2 SUB PUSH1 0x0 DUP4 ADD MSTORE PUSH2 0x87B DUP2 DUP5 PUSH2 0x7EC JUMP JUMPDEST SWAP1 POP SWAP3 SWAP2 POP POP JUMP JUMPDEST PUSH1 0x0 PUSH1 0x40 MLOAD SWAP1 POP SWAP1 JUMP JUMPDEST PUSH1 0x0 DUP1 REVERT JUMPDEST PUSH1 0x0 DUP1 REVERT JUMPDEST PUSH2 0x8A0 DUP2 PUSH2 0x6B1 JUMP JUMPDEST DUP2 EQ PUSH2 0x8AB JUMPI PUSH1 0x0 DUP1 REVERT JUMPDEST POP JUMP JUMPDEST PUSH1 0x0 DUP2 CALLDATALOAD SWAP1 POP PUSH2 0x8BD DUP2 PUSH2 0x897 JUMP JUMPDEST SWAP3 SWAP2 POP POP JUMP JUMPDEST PUSH1 0x0 DUP1 REVERT JUMPDEST PUSH1 0x0 DUP1 REVERT JUMPDEST PUSH32 0x4E487B7100000000000000000000000000000000000000000000000000000000 PUSH1 0x0 MSTORE PUSH1 0x41 PUSH1 0x4 MSTORE PUSH1 0x24 PUSH1 0x0 REVERT JUMPDEST PUSH2 0x905 DUP3 PUSH2 0x718 JUMP JUMPDEST DUP2 ADD DUP2 DUP2 LT PUSH8 0xFFFFFFFFFFFFFFFF DUP3 GT OR ISZERO PUSH2 0x924 JUMPI PUSH2 0x923 PUSH2 0x8CD JUMP JUMPDEST JUMPDEST DUP1 PUSH1 0x40 MSTORE POP POP POP JUMP JUMPDEST PUSH1 0x0 PUSH2 0x937 PUSH2 0x883 JUMP JUMPDEST SWAP1 POP PUSH2 0x943 DUP3 DUP3 PUSH2 0x8FC JUMP JUMPDEST SWAP2 SWAP1 POP JUMP JUMPDEST PUSH1 0x0 PUSH8 0xFFFFFFFFFFFFFFFF DUP3 GT ISZERO PUSH2 0x963 JUMPI PUSH2 0x962 PUSH2 0x8CD JUMP JUMPDEST JUMPDEST PUSH2 0x96C DUP3 PUSH2 0x718 JUMP JUMPDEST SWAP1 POP PUSH1 0x20 DUP2 ADD SWAP1 POP SWAP2 SWAP1 POP JUMP JUMPDEST DUP3 DUP2 DUP4 CALLDATACOPY PUSH1 0x0 DUP4 DUP4 ADD MSTORE POP POP POP JUMP JUMPDEST PUSH1 0x0 PUSH2 0x99B PUSH2 0x996 DUP5 PUSH2 0x948 JUMP JUMPDEST PUSH2 0x92D JUMP JUMPDEST SWAP1 POP DUP3 DUP2 MSTORE PUSH1 0x20 DUP2 ADD DUP5 DUP5 DUP5 ADD GT ISZERO PUSH2 0x9B7 JUMPI PUSH2 0x9B6 PUSH2 0x8C8 JUMP JUMPDEST JUMPDEST PUSH2 0x9C2 DUP5 DUP3 DUP6 PUSH2 0x979 JUMP JUMPDEST POP SWAP4 SWAP3 POP POP POP JUMP JUMPDEST PUSH1 0x0 DUP3 PUSH1 0x1F DUP4 ADD SLT PUSH2 0x9DF JUMPI PUSH2 0x9DE PUSH2 0x8C3 JUMP JUMPDEST JUMPDEST DUP2 CALLDATALOAD PUSH2 0x9EF DUP5 DUP3 PUSH1 0x20 DUP7 ADD PUSH2 0x988 JUMP JUMPDEST SWAP2 POP POP SWAP3 SWAP2 POP POP JUMP JUMPDEST PUSH2 0xA01 DUP2 PUSH2 0x762 JUMP JUMPDEST DUP2 EQ PUSH2 0xA0C JUMPI PUSH1 0x0 DUP1 REVERT JUMPDEST POP JUMP JUMPDEST PUSH1 0x0 DUP2 CALLDATALOAD SWAP1 POP PUSH2 0xA1E DUP2 PUSH2 0x9F8 JUMP JUMPDEST SWAP3 SWAP2 POP POP JUMP JUMPDEST PUSH1 0x0 DUP1 PUSH1 0x0 PUSH1 0x60 DUP5 DUP7 SUB SLT ISZERO PUSH2 0xA3D JUMPI PUSH2 0xA3C PUSH2 0x88D JUMP JUMPDEST JUMPDEST PUSH1 0x0 PUSH2 0xA4B DUP7 DUP3 DUP8 ADD PUSH2 0x8AE JUMP JUMPDEST SWAP4 POP POP PUSH1 0x20 DUP5 ADD CALLDATALOAD PUSH8 0xFFFFFFFFFFFFFFFF DUP2 GT ISZERO PUSH2 0xA6C JUMPI PUSH2 0xA6B PUSH2 0x892 JUMP JUMPDEST JUMPDEST PUSH2 0xA78 DUP7 DUP3 DUP8 ADD PUSH2 0x9CA JUMP JUMPDEST SWAP3 POP POP PUSH1 0x40 PUSH2 0xA89 DUP7 DUP3 DUP8 ADD PUSH2 0xA0F JUMP JUMPDEST SWAP2 POP POP SWAP3 POP SWAP3 POP SWAP3 JUMP JUMPDEST PUSH32 0x4E487B7100000000000000000000000000000000000000000000000000000000 PUSH1 0x0 MSTORE PUSH1 0x22 PUSH1 0x4 MSTORE PUSH1 0x24 PUSH1 0x0 REVERT JUMPDEST PUSH1 0x0 PUSH1 0x2 DUP3 DIV SWAP1 POP PUSH1 0x1 DUP3 AND DUP1 PUSH2 0xADA JUMPI PUSH1 0x7F DUP3 AND SWAP2 POP JUMPDEST PUSH1 0x20 DUP3 LT DUP2 SUB PUSH2 0xAED JUMPI PUSH2 0xAEC PUSH2 0xA93 JUMP JUMPDEST JUMPDEST POP SWAP2 SWAP1 POP JUMP JUMPDEST PUSH1 0x0 DUP3 DUP3 MSTORE PUSH1 0x20 DUP3 ADD SWAP1 POP SWAP3 SWAP2 POP POP JUMP JUMPDEST PUSH32 0x596F7520617265206E6F74206F776E6572000000000000000000000000000000 PUSH1 0x0 DUP3 ADD MSTORE POP JUMP JUMPDEST PUSH1 0x0 PUSH2 0xB3A PUSH1 0x11 DUP4 PUSH2 0xAF3 JUMP JUMPDEST SWAP2 POP PUSH2 0xB45 DUP3 PUSH2 0xB04 JUMP JUMPDEST PUSH1 0x20 DUP3 ADD SWAP1 POP SWAP2 SWAP1 POP JUMP JUMPDEST PUSH1 0x0 PUSH1 0x20 DUP3 ADD SWAP1 POP DUP2 DUP2 SUB PUSH1 0x0 DUP4 ADD MSTORE PUSH2 0xB69 DUP2 PUSH2 0xB2D JUMP JUMPDEST SWAP1 POP SWAP2 SWAP1 POP JUMP JUMPDEST PUSH1 0x0 DUP2 SWAP1 POP DUP2 PUSH1 0x0 MSTORE PUSH1 0x20 PUSH1 0x0 KECCAK256 SWAP1 POP SWAP2 SWAP1 POP JUMP JUMPDEST PUSH1 0x0 PUSH1 0x20 PUSH1 0x1F DUP4 ADD DIV SWAP1 POP SWAP2 SWAP1 POP JUMP JUMPDEST PUSH1 0x0 DUP3 DUP3 SHL SWAP1 POP SWAP3 SWAP2 POP POP JUMP JUMPDEST PUSH1 0x0 PUSH1 0x8 DUP4 MUL PUSH2 0xBD2 PUSH32 0xFFFFFFFFFFFFFFFFFFFFFFFFFFFFFFFFFFFFFFFFFFFFFFFFFFFFFFFFFFFFFFFF DUP3 PUSH2 0xB95 JUMP JUMPDEST PUSH2 0xBDC DUP7 DUP4 PUSH2 0xB95 JUMP JUMPDEST SWAP6 POP DUP1 NOT DUP5 AND SWAP4 POP DUP1 DUP7 AND DUP5 OR SWAP3 POP POP POP SWAP4 SWAP3 POP POP POP JUMP JUMPDEST PUSH1 0x0 DUP2 SWAP1 POP SWAP2 SWAP1 POP JUMP JUMPDEST PUSH1 0x0 PUSH2 0xC19 PUSH2 0xC14 PUSH2 0xC0F DUP5 PUSH2 0x762 JUMP JUMPDEST PUSH2 0xBF4 JUMP JUMPDEST PUSH2 0x762 JUMP JUMPDEST SWAP1 POP SWAP2 SWAP1 POP JUMP JUMPDEST PUSH1 0x0 DUP2 SWAP1 POP SWAP2 SWAP1 POP JUMP JUMPDEST PUSH2 0xC33 DUP4 PUSH2 0xBFE JUMP JUMPDEST PUSH2 0xC47 PUSH2 0xC3F DUP3 PUSH2 0xC20 JUMP JUMPDEST DUP5 DUP5 SLOAD PUSH2 0xBA2 JUMP JUMPDEST DUP3 SSTORE POP POP POP POP JUMP JUMPDEST PUSH1 0x0 SWAP1 JUMP JUMPDEST PUSH2 0xC5C PUSH2 0xC4F JUMP JUMPDEST PUSH2 0xC67 DUP2 DUP5 DUP5 PUSH2 0xC2A JUMP JUMPDEST POP POP POP JUMP JUMPDEST JUMPDEST DUP2 DUP2 LT ISZERO PUSH2 0xC8B JUMPI PUSH2 0xC80 PUSH1 0x0 DUP3 PUSH2 0xC54 JUMP JUMPDEST PUSH1 0x1 DUP2 ADD SWAP1 POP PUSH2 0xC6D JUMP JUMPDEST POP POP JUMP JUMPDEST PUSH1 0x1F DUP3 GT ISZERO PUSH2 0xCD0 JUMPI PUSH2 0xCA1 DUP2 PUSH2 0xB70 JUMP JUMPDEST PUSH2 0xCAA DUP5 PUSH2 0xB85 JUMP JUMPDEST DUP2 ADD PUSH1 0x20 DUP6 LT ISZERO PUSH2 0xCB9 JUMPI DUP2 SWAP1 POP JUMPDEST PUSH2 0xCCD PUSH2 0xCC5 DUP6 PUSH2 0xB85 JUMP JUMPDEST DUP4 ADD DUP3 PUSH2 0xC6C JUMP JUMPDEST POP POP JUMPDEST POP POP POP JUMP JUMPDEST PUSH1 0x0 DUP3 DUP3 SHR SWAP1 POP SWAP3 SWAP2 POP POP JUMP JUMPDEST PUSH1 0x0 PUSH2 0xCF3 PUSH1 0x0 NOT DUP5 PUSH1 0x8 MUL PUSH2 0xCD5 JUMP JUMPDEST NOT DUP1 DUP4 AND SWAP2 POP POP SWAP3 SWAP2 POP POP JUMP JUMPDEST PUSH1 0x0 PUSH2 0xD0C DUP4 DUP4 PUSH2 0xCE2 JUMP JUMPDEST SWAP2 POP DUP3 PUSH1 0x2 MUL DUP3 OR SWAP1 POP SWAP3 SWAP2 POP POP JUMP JUMPDEST PUSH2 0xD25 DUP3 PUSH2 0x6D2 JUMP JUMPDEST PUSH8 0xFFFFFFFFFFFFFFFF DUP2 GT ISZERO PUSH2 0xD3E JUMPI PUSH2 0xD3D PUSH2 0x8CD JUMP JUMPDEST JUMPDEST PUSH2 0xD48 DUP3 SLOAD PUSH2 0xAC2 JUMP JUMPDEST PUSH2 0xD53 DUP3 DUP3 DUP6 PUSH2 0xC8F JUMP JUMPDEST PUSH1 0x0 PUSH1 0x20 SWAP1 POP PUSH1 0x1F DUP4 GT PUSH1 0x1 DUP2 EQ PUSH2 0xD86 JUMPI PUSH1 0x0 DUP5 ISZERO PUSH2 0xD74 JUMPI DUP3 DUP8 ADD MLOAD SWAP1 POP JUMPDEST PUSH2 0xD7E DUP6 DUP3 PUSH2 0xD00 JUMP JUMPDEST DUP7 SSTORE POP PUSH2 0xDE6 JUMP JUMPDEST PUSH1 0x1F NOT DUP5 AND PUSH2 0xD94 DUP7 PUSH2 0xB70 JUMP JUMPDEST PUSH1 0x0 JUMPDEST DUP3 DUP2 LT ISZERO PUSH2 0xDBC JUMPI DUP5 DUP10 ADD MLOAD DUP3 SSTORE PUSH1 0x1 DUP3 ADD SWAP2 POP PUSH1 0x20 DUP6 ADD SWAP5 POP PUSH1 0x20 DUP2 ADD SWAP1 POP PUSH2 0xD97 JUMP JUMPDEST DUP7 DUP4 LT ISZERO PUSH2 0xDD9 JUMPI DUP5 DUP10 ADD MLOAD PUSH2 0xDD5 PUSH1 0x1F DUP10 AND DUP3 PUSH2 0xCE2 JUMP JUMPDEST DUP4 SSTORE POP JUMPDEST PUSH1 0x1 PUSH1 0x2 DUP9 MUL ADD DUP9 SSTORE POP POP POP JUMPDEST POP POP POP POP POP POP JUMP INVALID LOG2 PUSH5 0x6970667358 0x22 SLT KECCAK256 DUP2 0x1F 0xCE PUSH13 0x5EF0E5A2FBD55AFAA66140C1B2 0xE1 0x4C 0xEC DUP7 0xE7 MSIZE 0xC6 CALLER CALLDATALOAD 0xB2 0xC9 TIMESTAMP PUSH5 0x6AF264736F PUSH13 0x63430008130033000000000000 "
				},
				"gasEstimates": {
					"creation": {
						"codeDepositCost": "724000",
						"executionCost": "25026",
						"totalCost": "749026"
					},
					"external": {
						"addRecord(address,string,uint256)": "infinite",
						"getAllRecords()": "infinite",
						"getRecordsByAddress()": "infinite"
					}
				},
				"methodIdentifiers": {
					"addRecord(address,string,uint256)": "9fab879e",
					"getAllRecords()": "a7f9fe72",
					"getRecordsByAddress()": "1afed255"
				}
			},
			"storageLayout": {
				"storage": [
					{
						"astId": 3,
						"contract": "contracts/12-Insurance-record.sol:InsuracneRecord",
						"label": "owner",
						"offset": 0,
						"slot": "0",
						"type": "t_address"
					},
					{
						"astId": 35,
						"contract": "contracts/12-Insurance-record.sol:InsuracneRecord",
						"label": "records",
						"offset": 0,
						"slot": "1",
						"type": "t_array(t_struct(Records)31_storage)dyn_storage"
					},
					{
						"astId": 41,
						"contract": "contracts/12-Insurance-record.sol:InsuracneRecord",
						"label": "recordsMap",
						"offset": 0,
						"slot": "2",
						"type": "t_mapping(t_address,t_array(t_struct(Records)31_storage)dyn_storage)"
					}
				],
				"types": {
					"t_address": {
						"encoding": "inplace",
						"label": "address",
						"numberOfBytes": "20"
					},
					"t_array(t_struct(Records)31_storage)dyn_storage": {
						"base": "t_struct(Records)31_storage",
						"encoding": "dynamic_array",
						"label": "struct InsuracneRecord.Records[]",
						"numberOfBytes": "32"
					},
					"t_mapping(t_address,t_array(t_struct(Records)31_storage)dyn_storage)": {
						"encoding": "mapping",
						"key": "t_address",
						"label": "mapping(address => struct InsuracneRecord.Records[])",
						"numberOfBytes": "32",
						"value": "t_array(t_struct(Records)31_storage)dyn_storage"
					},
					"t_string_storage": {
						"encoding": "bytes",
						"label": "string",
						"numberOfBytes": "32"
					},
					"t_struct(Records)31_storage": {
						"encoding": "inplace",
						"label": "struct InsuracneRecord.Records",
						"members": [
							{
								"astId": 26,
								"contract": "contracts/12-Insurance-record.sol:InsuracneRecord",
								"label": "to",
								"offset": 0,
								"slot": "0",
								"type": "t_address"
							},
							{
								"astId": 28,
								"contract": "contracts/12-Insurance-record.sol:InsuracneRecord",
								"label": "name",
								"offset": 0,
								"slot": "1",
								"type": "t_string_storage"
							},
							{
								"astId": 30,
								"contract": "contracts/12-Insurance-record.sol:InsuracneRecord",
								"label": "amount",
								"offset": 0,
								"slot": "2",
								"type": "t_uint256"
							}
						],
						"numberOfBytes": "96"
					},
					"t_uint256": {
						"encoding": "inplace",
						"label": "uint256",
						"numberOfBytes": "32"
					}
				}
			},
			"userdoc": {
				"kind": "user",
				"methods": {},
				"version": 1
			}
		}
	}
}