{
	"contracts/ExampleUnit.sol": {
		"ExampleUnit": {
			"abi": [
				{
					"inputs": [],
					"name": "increamentInt",
					"outputs": [],
					"stateMutability": "nonpayable",
					"type": "function"
				},
				{
					"inputs": [],
					"name": "increamentMyUint",
					"outputs": [],
					"stateMutability": "nonpayable",
					"type": "function"
				},
				{
					"inputs": [],
					"name": "myInt",
					"outputs": [
						{
							"internalType": "int256",
							"name": "",
							"type": "int256"
						}
					],
					"stateMutability": "view",
					"type": "function"
				},
				{
					"inputs": [],
					"name": "myUint",
					"outputs": [
						{
							"internalType": "uint256",
							"name": "",
							"type": "uint256"
						}
					],
					"stateMutability": "view",
					"type": "function"
				},
				{
					"inputs": [
						{
							"internalType": "uint256",
							"name": "_myUint",
							"type": "uint256"
						}
					],
					"name": "setUnit",
					"outputs": [],
					"stateMutability": "nonpayable",
					"type": "function"
				},
				{
					"inputs": [],
					"name": "unit8",
					"outputs": [
						{
							"internalType": "uint8",
							"name": "",
							"type": "uint8"
						}
					],
					"stateMutability": "view",
					"type": "function"
				}
			],
			"devdoc": {
				"kind": "dev",
				"methods": {},
				"version": 1
			},
			"evm": {
				"assembly": "    /* \"contracts/ExampleUnit.sol\":56:472  contract ExampleUnit {... */\n  mstore(0x40, 0x80)\n    /* \"contracts/ExampleUnit.sol\":195:198  -10 */\n  0xfffffffffffffffffffffffffffffffffffffffffffffffffffffffffffffff6\n    /* \"contracts/ExampleUnit.sol\":176:198  int public myInt = -10 */\n  0x02\n  sstore\n    /* \"contracts/ExampleUnit.sol\":56:472  contract ExampleUnit {... */\n  callvalue\n  dup1\n  iszero\n  tag_1\n  jumpi\n  0x00\n  dup1\n  revert\ntag_1:\n  pop\n  dataSize(sub_0)\n  dup1\n  dataOffset(sub_0)\n  0x00\n  codecopy\n  0x00\n  return\nstop\n\nsub_0: assembly {\n        /* \"contracts/ExampleUnit.sol\":56:472  contract ExampleUnit {... */\n      mstore(0x40, 0x80)\n      callvalue\n      dup1\n      iszero\n      tag_1\n      jumpi\n      0x00\n      dup1\n      revert\n    tag_1:\n      pop\n      jumpi(tag_2, lt(calldatasize, 0x04))\n      shr(0xe0, calldataload(0x00))\n      dup1\n      0x06540f7e\n      eq\n      tag_3\n      jumpi\n      dup1\n      0x2cb777a6\n      eq\n      tag_4\n      jumpi\n      dup1\n      0x3f48d735\n      eq\n      tag_5\n      jumpi\n      dup1\n      0xaae07890\n      eq\n      tag_6\n      jumpi\n      dup1\n      0xe50bd323\n      eq\n      tag_7\n      jumpi\n      dup1\n      0xef5d4d41\n      eq\n      tag_8\n      jumpi\n    tag_2:\n      0x00\n      dup1\n      revert\n        /* \"contracts/ExampleUnit.sol\":83:104  uint256 public myUint */\n    tag_3:\n      tag_9\n      tag_10\n      jump\t// in\n    tag_9:\n      mload(0x40)\n      tag_11\n      swap2\n      swap1\n      tag_12\n      jump\t// in\n    tag_11:\n      mload(0x40)\n      dup1\n      swap2\n      sub\n      swap1\n      return\n        /* \"contracts/ExampleUnit.sol\":176:198  int public myInt = -10 */\n    tag_4:\n      tag_13\n      tag_14\n      jump\t// in\n    tag_13:\n      mload(0x40)\n      tag_15\n      swap2\n      swap1\n      tag_16\n      jump\t// in\n    tag_15:\n      mload(0x40)\n      dup1\n      swap2\n      sub\n      swap1\n      return\n        /* \"contracts/ExampleUnit.sol\":345:406  function increamentMyUint () public {... */\n    tag_5:\n      tag_17\n      tag_18\n      jump\t// in\n    tag_17:\n      stop\n        /* \"contracts/ExampleUnit.sol\":268:339  function setUnit(uint _myUint) public {... */\n    tag_6:\n      tag_19\n      0x04\n      dup1\n      calldatasize\n      sub\n      dup2\n      add\n      swap1\n      tag_20\n      swap2\n      swap1\n      tag_21\n      jump\t// in\n    tag_20:\n      tag_22\n      jump\t// in\n    tag_19:\n      stop\n        /* \"contracts/ExampleUnit.sol\":132:150  uint8 public unit8 */\n    tag_7:\n      tag_23\n      tag_24\n      jump\t// in\n    tag_23:\n      mload(0x40)\n      tag_25\n      swap2\n      swap1\n      tag_26\n      jump\t// in\n    tag_25:\n      mload(0x40)\n      dup1\n      swap2\n      sub\n      swap1\n      return\n        /* \"contracts/ExampleUnit.sol\":412:469  function increamentInt () public {... */\n    tag_8:\n      tag_27\n      tag_28\n      jump\t// in\n    tag_27:\n      stop\n        /* \"contracts/ExampleUnit.sol\":83:104  uint256 public myUint */\n    tag_10:\n      sload(0x00)\n      dup2\n      jump\t// out\n        /* \"contracts/ExampleUnit.sol\":176:198  int public myInt = -10 */\n    tag_14:\n      sload(0x02)\n      dup2\n      jump\t// out\n        /* \"contracts/ExampleUnit.sol\":345:406  function increamentMyUint () public {... */\n    tag_18:\n        /* \"contracts/ExampleUnit.sol\":391:397  myUint */\n      0x00\n      dup1\n        /* \"contracts/ExampleUnit.sol\":391:399  myUint++ */\n      dup2\n      sload\n      dup1\n      swap3\n      swap2\n      swap1\n      tag_30\n      swap1\n      tag_31\n      jump\t// in\n    tag_30:\n      swap2\n      swap1\n      pop\n      sstore\n      pop\n        /* \"contracts/ExampleUnit.sol\":345:406  function increamentMyUint () public {... */\n      jump\t// out\n        /* \"contracts/ExampleUnit.sol\":268:339  function setUnit(uint _myUint) public {... */\n    tag_22:\n        /* \"contracts/ExampleUnit.sol\":325:332  _myUint */\n      dup1\n        /* \"contracts/ExampleUnit.sol\":316:322  myUint */\n      0x00\n        /* \"contracts/ExampleUnit.sol\":316:332  myUint = _myUint */\n      dup2\n      swap1\n      sstore\n      pop\n        /* \"contracts/ExampleUnit.sol\":268:339  function setUnit(uint _myUint) public {... */\n      pop\n      jump\t// out\n        /* \"contracts/ExampleUnit.sol\":132:150  uint8 public unit8 */\n    tag_24:\n      0x01\n      0x00\n      swap1\n      sload\n      swap1\n      0x0100\n      exp\n      swap1\n      div\n      0xff\n      and\n      dup2\n      jump\t// out\n        /* \"contracts/ExampleUnit.sol\":412:469  function increamentInt () public {... */\n    tag_28:\n        /* \"contracts/ExampleUnit.sol\":455:460  myInt */\n      0x02\n      0x00\n        /* \"contracts/ExampleUnit.sol\":455:462  myInt++ */\n      dup2\n      sload\n      dup1\n      swap3\n      swap2\n      swap1\n      tag_34\n      swap1\n      tag_35\n      jump\t// in\n    tag_34:\n      swap2\n      swap1\n      pop\n      sstore\n      pop\n        /* \"contracts/ExampleUnit.sol\":412:469  function increamentInt () public {... */\n      jump\t// out\n        /* \"#utility.yul\":7:84   */\n    tag_36:\n        /* \"#utility.yul\":44:51   */\n      0x00\n        /* \"#utility.yul\":73:78   */\n      dup2\n        /* \"#utility.yul\":62:78   */\n      swap1\n      pop\n        /* \"#utility.yul\":7:84   */\n      swap2\n      swap1\n      pop\n      jump\t// out\n        /* \"#utility.yul\":90:208   */\n    tag_37:\n        /* \"#utility.yul\":177:201   */\n      tag_51\n        /* \"#utility.yul\":195:200   */\n      dup2\n        /* \"#utility.yul\":177:201   */\n      tag_36\n      jump\t// in\n    tag_51:\n        /* \"#utility.yul\":172:175   */\n      dup3\n        /* \"#utility.yul\":165:202   */\n      mstore\n        /* \"#utility.yul\":90:208   */\n      pop\n      pop\n      jump\t// out\n        /* \"#utility.yul\":214:436   */\n    tag_12:\n        /* \"#utility.yul\":307:311   */\n      0x00\n        /* \"#utility.yul\":345:347   */\n      0x20\n        /* \"#utility.yul\":334:343   */\n      dup3\n        /* \"#utility.yul\":330:348   */\n      add\n        /* \"#utility.yul\":322:348   */\n      swap1\n      pop\n        /* \"#utility.yul\":358:429   */\n      tag_53\n        /* \"#utility.yul\":426:427   */\n      0x00\n        /* \"#utility.yul\":415:424   */\n      dup4\n        /* \"#utility.yul\":411:428   */\n      add\n        /* \"#utility.yul\":402:408   */\n      dup5\n        /* \"#utility.yul\":358:429   */\n      tag_37\n      jump\t// in\n    tag_53:\n        /* \"#utility.yul\":214:436   */\n      swap3\n      swap2\n      pop\n      pop\n      jump\t// out\n        /* \"#utility.yul\":442:518   */\n    tag_38:\n        /* \"#utility.yul\":478:485   */\n      0x00\n        /* \"#utility.yul\":507:512   */\n      dup2\n        /* \"#utility.yul\":496:512   */\n      swap1\n      pop\n        /* \"#utility.yul\":442:518   */\n      swap2\n      swap1\n      pop\n      jump\t// out\n        /* \"#utility.yul\":524:639   */\n    tag_39:\n        /* \"#utility.yul\":609:632   */\n      tag_56\n        /* \"#utility.yul\":626:631   */\n      dup2\n        /* \"#utility.yul\":609:632   */\n      tag_38\n      jump\t// in\n    tag_56:\n        /* \"#utility.yul\":604:607   */\n      dup3\n        /* \"#utility.yul\":597:633   */\n      mstore\n        /* \"#utility.yul\":524:639   */\n      pop\n      pop\n      jump\t// out\n        /* \"#utility.yul\":645:863   */\n    tag_16:\n        /* \"#utility.yul\":736:740   */\n      0x00\n        /* \"#utility.yul\":774:776   */\n      0x20\n        /* \"#utility.yul\":763:772   */\n      dup3\n        /* \"#utility.yul\":759:777   */\n      add\n        /* \"#utility.yul\":751:777   */\n      swap1\n      pop\n        /* \"#utility.yul\":787:856   */\n      tag_58\n        /* \"#utility.yul\":853:854   */\n      0x00\n        /* \"#utility.yul\":842:851   */\n      dup4\n        /* \"#utility.yul\":838:855   */\n      add\n        /* \"#utility.yul\":829:835   */\n      dup5\n        /* \"#utility.yul\":787:856   */\n      tag_39\n      jump\t// in\n    tag_58:\n        /* \"#utility.yul\":645:863   */\n      swap3\n      swap2\n      pop\n      pop\n      jump\t// out\n        /* \"#utility.yul\":950:1067   */\n    tag_41:\n        /* \"#utility.yul\":1059:1060   */\n      0x00\n        /* \"#utility.yul\":1056:1057   */\n      dup1\n        /* \"#utility.yul\":1049:1061   */\n      revert\n        /* \"#utility.yul\":1196:1318   */\n    tag_43:\n        /* \"#utility.yul\":1269:1293   */\n      tag_63\n        /* \"#utility.yul\":1287:1292   */\n      dup2\n        /* \"#utility.yul\":1269:1293   */\n      tag_36\n      jump\t// in\n    tag_63:\n        /* \"#utility.yul\":1262:1267   */\n      dup2\n        /* \"#utility.yul\":1259:1294   */\n      eq\n        /* \"#utility.yul\":1249:1312   */\n      tag_64\n      jumpi\n        /* \"#utility.yul\":1308:1309   */\n      0x00\n        /* \"#utility.yul\":1305:1306   */\n      dup1\n        /* \"#utility.yul\":1298:1310   */\n      revert\n        /* \"#utility.yul\":1249:1312   */\n    tag_64:\n        /* \"#utility.yul\":1196:1318   */\n      pop\n      jump\t// out\n        /* \"#utility.yul\":1324:1463   */\n    tag_44:\n        /* \"#utility.yul\":1370:1375   */\n      0x00\n        /* \"#utility.yul\":1408:1414   */\n      dup2\n        /* \"#utility.yul\":1395:1415   */\n      calldataload\n        /* \"#utility.yul\":1386:1415   */\n      swap1\n      pop\n        /* \"#utility.yul\":1424:1457   */\n      tag_66\n        /* \"#utility.yul\":1451:1456   */\n      dup2\n        /* \"#utility.yul\":1424:1457   */\n      tag_43\n      jump\t// in\n    tag_66:\n        /* \"#utility.yul\":1324:1463   */\n      swap3\n      swap2\n      pop\n      pop\n      jump\t// out\n        /* \"#utility.yul\":1469:1798   */\n    tag_21:\n        /* \"#utility.yul\":1528:1534   */\n      0x00\n        /* \"#utility.yul\":1577:1579   */\n      0x20\n        /* \"#utility.yul\":1565:1574   */\n      dup3\n        /* \"#utility.yul\":1556:1563   */\n      dup5\n        /* \"#utility.yul\":1552:1575   */\n      sub\n        /* \"#utility.yul\":1548:1580   */\n      slt\n        /* \"#utility.yul\":1545:1664   */\n      iszero\n      tag_68\n      jumpi\n        /* \"#utility.yul\":1583:1662   */\n      tag_69\n      tag_41\n      jump\t// in\n    tag_69:\n        /* \"#utility.yul\":1545:1664   */\n    tag_68:\n        /* \"#utility.yul\":1703:1704   */\n      0x00\n        /* \"#utility.yul\":1728:1781   */\n      tag_70\n        /* \"#utility.yul\":1773:1780   */\n      dup5\n        /* \"#utility.yul\":1764:1770   */\n      dup3\n        /* \"#utility.yul\":1753:1762   */\n      dup6\n        /* \"#utility.yul\":1749:1771   */\n      add\n        /* \"#utility.yul\":1728:1781   */\n      tag_44\n      jump\t// in\n    tag_70:\n        /* \"#utility.yul\":1718:1781   */\n      swap2\n      pop\n        /* \"#utility.yul\":1674:1791   */\n      pop\n        /* \"#utility.yul\":1469:1798   */\n      swap3\n      swap2\n      pop\n      pop\n      jump\t// out\n        /* \"#utility.yul\":1804:1890   */\n    tag_45:\n        /* \"#utility.yul\":1839:1846   */\n      0x00\n        /* \"#utility.yul\":1879:1883   */\n      0xff\n        /* \"#utility.yul\":1872:1877   */\n      dup3\n        /* \"#utility.yul\":1868:1884   */\n      and\n        /* \"#utility.yul\":1857:1884   */\n      swap1\n      pop\n        /* \"#utility.yul\":1804:1890   */\n      swap2\n      swap1\n      pop\n      jump\t// out\n        /* \"#utility.yul\":1896:2008   */\n    tag_46:\n        /* \"#utility.yul\":1979:2001   */\n      tag_73\n        /* \"#utility.yul\":1995:2000   */\n      dup2\n        /* \"#utility.yul\":1979:2001   */\n      tag_45\n      jump\t// in\n    tag_73:\n        /* \"#utility.yul\":1974:1977   */\n      dup3\n        /* \"#utility.yul\":1967:2002   */\n      mstore\n        /* \"#utility.yul\":1896:2008   */\n      pop\n      pop\n      jump\t// out\n        /* \"#utility.yul\":2014:2228   */\n    tag_26:\n        /* \"#utility.yul\":2103:2107   */\n      0x00\n        /* \"#utility.yul\":2141:2143   */\n      0x20\n        /* \"#utility.yul\":2130:2139   */\n      dup3\n        /* \"#utility.yul\":2126:2144   */\n      add\n        /* \"#utility.yul\":2118:2144   */\n      swap1\n      pop\n        /* \"#utility.yul\":2154:2221   */\n      tag_75\n        /* \"#utility.yul\":2218:2219   */\n      0x00\n        /* \"#utility.yul\":2207:2216   */\n      dup4\n        /* \"#utility.yul\":2203:2220   */\n      add\n        /* \"#utility.yul\":2194:2200   */\n      dup5\n        /* \"#utility.yul\":2154:2221   */\n      tag_46\n      jump\t// in\n    tag_75:\n        /* \"#utility.yul\":2014:2228   */\n      swap3\n      swap2\n      pop\n      pop\n      jump\t// out\n        /* \"#utility.yul\":2234:2414   */\n    tag_47:\n        /* \"#utility.yul\":2282:2359   */\n      0x4e487b7100000000000000000000000000000000000000000000000000000000\n        /* \"#utility.yul\":2279:2280   */\n      0x00\n        /* \"#utility.yul\":2272:2360   */\n      mstore\n        /* \"#utility.yul\":2379:2383   */\n      0x11\n        /* \"#utility.yul\":2376:2377   */\n      0x04\n        /* \"#utility.yul\":2369:2384   */\n      mstore\n        /* \"#utility.yul\":2403:2407   */\n      0x24\n        /* \"#utility.yul\":2400:2401   */\n      0x00\n        /* \"#utility.yul\":2393:2408   */\n      revert\n        /* \"#utility.yul\":2420:2653   */\n    tag_31:\n        /* \"#utility.yul\":2459:2462   */\n      0x00\n        /* \"#utility.yul\":2482:2506   */\n      tag_78\n        /* \"#utility.yul\":2500:2505   */\n      dup3\n        /* \"#utility.yul\":2482:2506   */\n      tag_36\n      jump\t// in\n    tag_78:\n        /* \"#utility.yul\":2473:2506   */\n      swap2\n      pop\n        /* \"#utility.yul\":2528:2594   */\n      0xffffffffffffffffffffffffffffffffffffffffffffffffffffffffffffffff\n        /* \"#utility.yul\":2521:2526   */\n      dup3\n        /* \"#utility.yul\":2518:2595   */\n      sub\n        /* \"#utility.yul\":2515:2618   */\n      tag_79\n      jumpi\n        /* \"#utility.yul\":2598:2616   */\n      tag_80\n      tag_47\n      jump\t// in\n    tag_80:\n        /* \"#utility.yul\":2515:2618   */\n    tag_79:\n        /* \"#utility.yul\":2645:2646   */\n      0x01\n        /* \"#utility.yul\":2638:2643   */\n      dup3\n        /* \"#utility.yul\":2634:2647   */\n      add\n        /* \"#utility.yul\":2627:2647   */\n      swap1\n      pop\n        /* \"#utility.yul\":2420:2653   */\n      swap2\n      swap1\n      pop\n      jump\t// out\n        /* \"#utility.yul\":2659:2890   */\n    tag_35:\n        /* \"#utility.yul\":2697:2700   */\n      0x00\n        /* \"#utility.yul\":2720:2743   */\n      tag_82\n        /* \"#utility.yul\":2737:2742   */\n      dup3\n        /* \"#utility.yul\":2720:2743   */\n      tag_38\n      jump\t// in\n    tag_82:\n        /* \"#utility.yul\":2711:2743   */\n      swap2\n      pop\n        /* \"#utility.yul\":2765:2831   */\n      0x7fffffffffffffffffffffffffffffffffffffffffffffffffffffffffffffff\n        /* \"#utility.yul\":2758:2763   */\n      dup3\n        /* \"#utility.yul\":2755:2832   */\n      sub\n        /* \"#utility.yul\":2752:2855   */\n      tag_83\n      jumpi\n        /* \"#utility.yul\":2835:2853   */\n      tag_84\n      tag_47\n      jump\t// in\n    tag_84:\n        /* \"#utility.yul\":2752:2855   */\n    tag_83:\n        /* \"#utility.yul\":2882:2883   */\n      0x01\n        /* \"#utility.yul\":2875:2880   */\n      dup3\n        /* \"#utility.yul\":2871:2884   */\n      add\n        /* \"#utility.yul\":2864:2884   */\n      swap1\n      pop\n        /* \"#utility.yul\":2659:2890   */\n      swap2\n      swap1\n      pop\n      jump\t// out\n\n    auxdata: 0xa26469706673582212206d2329d6eace24c30917750ce53d41712ec9371cd72417b45057b6de476aea2464736f6c634300080e0033\n}\n",
				"bytecode": {
					"linkReferences": {},
					"object": "60806040527ffffffffffffffffffffffffffffffffffffffffffffffffffffffffffffffff660025534801561003457600080fd5b5061033f806100446000396000f3fe608060405234801561001057600080fd5b50600436106100625760003560e01c806306540f7e146100675780632cb777a6146100855780633f48d735146100a3578063aae07890146100ad578063e50bd323146100c9578063ef5d4d41146100e7575b600080fd5b61006f6100f1565b60405161007c9190610166565b60405180910390f35b61008d6100f7565b60405161009a919061019a565b60405180910390f35b6100ab6100fd565b005b6100c760048036038101906100c291906101e6565b610116565b005b6100d1610120565b6040516100de919061022f565b60405180910390f35b6100ef610133565b005b60005481565b60025481565b60008081548092919061010f90610279565b9190505550565b8060008190555050565b600160009054906101000a900460ff1681565b60026000815480929190610146906102c1565b9190505550565b6000819050919050565b6101608161014d565b82525050565b600060208201905061017b6000830184610157565b92915050565b6000819050919050565b61019481610181565b82525050565b60006020820190506101af600083018461018b565b92915050565b600080fd5b6101c38161014d565b81146101ce57600080fd5b50565b6000813590506101e0816101ba565b92915050565b6000602082840312156101fc576101fb6101b5565b5b600061020a848285016101d1565b91505092915050565b600060ff82169050919050565b61022981610213565b82525050565b60006020820190506102446000830184610220565b92915050565b7f4e487b7100000000000000000000000000000000000000000000000000000000600052601160045260246000fd5b60006102848261014d565b91507fffffffffffffffffffffffffffffffffffffffffffffffffffffffffffffffff82036102b6576102b561024a565b5b600182019050919050565b60006102cc82610181565b91507f7fffffffffffffffffffffffffffffffffffffffffffffffffffffffffffffff82036102fe576102fd61024a565b5b60018201905091905056fea26469706673582212206d2329d6eace24c30917750ce53d41712ec9371cd72417b45057b6de476aea2464736f6c634300080e0033",
					"opcodes": "PUSH1 0x80 PUSH1 0x40 MSTORE PUSH32 0xFFFFFFFFFFFFFFFFFFFFFFFFFFFFFFFFFFFFFFFFFFFFFFFFFFFFFFFFFFFFFFF6 PUSH1 0x2 SSTORE CALLVALUE DUP1 ISZERO PUSH2 0x34 JUMPI PUSH1 0x0 DUP1 REVERT JUMPDEST POP PUSH2 0x33F DUP1 PUSH2 0x44 PUSH1 0x0 CODECOPY PUSH1 0x0 RETURN INVALID PUSH1 0x80 PUSH1 0x40 MSTORE CALLVALUE DUP1 ISZERO PUSH2 0x10 JUMPI PUSH1 0x0 DUP1 REVERT JUMPDEST POP PUSH1 0x4 CALLDATASIZE LT PUSH2 0x62 JUMPI PUSH1 0x0 CALLDATALOAD PUSH1 0xE0 SHR DUP1 PUSH4 0x6540F7E EQ PUSH2 0x67 JUMPI DUP1 PUSH4 0x2CB777A6 EQ PUSH2 0x85 JUMPI DUP1 PUSH4 0x3F48D735 EQ PUSH2 0xA3 JUMPI DUP1 PUSH4 0xAAE07890 EQ PUSH2 0xAD JUMPI DUP1 PUSH4 0xE50BD323 EQ PUSH2 0xC9 JUMPI DUP1 PUSH4 0xEF5D4D41 EQ PUSH2 0xE7 JUMPI JUMPDEST PUSH1 0x0 DUP1 REVERT JUMPDEST PUSH2 0x6F PUSH2 0xF1 JUMP JUMPDEST PUSH1 0x40 MLOAD PUSH2 0x7C SWAP2 SWAP1 PUSH2 0x166 JUMP JUMPDEST PUSH1 0x40 MLOAD DUP1 SWAP2 SUB SWAP1 RETURN JUMPDEST PUSH2 0x8D PUSH2 0xF7 JUMP JUMPDEST PUSH1 0x40 MLOAD PUSH2 0x9A SWAP2 SWAP1 PUSH2 0x19A JUMP JUMPDEST PUSH1 0x40 MLOAD DUP1 SWAP2 SUB SWAP1 RETURN JUMPDEST PUSH2 0xAB PUSH2 0xFD JUMP JUMPDEST STOP JUMPDEST PUSH2 0xC7 PUSH1 0x4 DUP1 CALLDATASIZE SUB DUP2 ADD SWAP1 PUSH2 0xC2 SWAP2 SWAP1 PUSH2 0x1E6 JUMP JUMPDEST PUSH2 0x116 JUMP JUMPDEST STOP JUMPDEST PUSH2 0xD1 PUSH2 0x120 JUMP JUMPDEST PUSH1 0x40 MLOAD PUSH2 0xDE SWAP2 SWAP1 PUSH2 0x22F JUMP JUMPDEST PUSH1 0x40 MLOAD DUP1 SWAP2 SUB SWAP1 RETURN JUMPDEST PUSH2 0xEF PUSH2 0x133 JUMP JUMPDEST STOP JUMPDEST PUSH1 0x0 SLOAD DUP2 JUMP JUMPDEST PUSH1 0x2 SLOAD DUP2 JUMP JUMPDEST PUSH1 0x0 DUP1 DUP2 SLOAD DUP1 SWAP3 SWAP2 SWAP1 PUSH2 0x10F SWAP1 PUSH2 0x279 JUMP JUMPDEST SWAP2 SWAP1 POP SSTORE POP JUMP JUMPDEST DUP1 PUSH1 0x0 DUP2 SWAP1 SSTORE POP POP JUMP JUMPDEST PUSH1 0x1 PUSH1 0x0 SWAP1 SLOAD SWAP1 PUSH2 0x100 EXP SWAP1 DIV PUSH1 0xFF AND DUP2 JUMP JUMPDEST PUSH1 0x2 PUSH1 0x0 DUP2 SLOAD DUP1 SWAP3 SWAP2 SWAP1 PUSH2 0x146 SWAP1 PUSH2 0x2C1 JUMP JUMPDEST SWAP2 SWAP1 POP SSTORE POP JUMP JUMPDEST PUSH1 0x0 DUP2 SWAP1 POP SWAP2 SWAP1 POP JUMP JUMPDEST PUSH2 0x160 DUP2 PUSH2 0x14D JUMP JUMPDEST DUP3 MSTORE POP POP JUMP JUMPDEST PUSH1 0x0 PUSH1 0x20 DUP3 ADD SWAP1 POP PUSH2 0x17B PUSH1 0x0 DUP4 ADD DUP5 PUSH2 0x157 JUMP JUMPDEST SWAP3 SWAP2 POP POP JUMP JUMPDEST PUSH1 0x0 DUP2 SWAP1 POP SWAP2 SWAP1 POP JUMP JUMPDEST PUSH2 0x194 DUP2 PUSH2 0x181 JUMP JUMPDEST DUP3 MSTORE POP POP JUMP JUMPDEST PUSH1 0x0 PUSH1 0x20 DUP3 ADD SWAP1 POP PUSH2 0x1AF PUSH1 0x0 DUP4 ADD DUP5 PUSH2 0x18B JUMP JUMPDEST SWAP3 SWAP2 POP POP JUMP JUMPDEST PUSH1 0x0 DUP1 REVERT JUMPDEST PUSH2 0x1C3 DUP2 PUSH2 0x14D JUMP JUMPDEST DUP2 EQ PUSH2 0x1CE JUMPI PUSH1 0x0 DUP1 REVERT JUMPDEST POP JUMP JUMPDEST PUSH1 0x0 DUP2 CALLDATALOAD SWAP1 POP PUSH2 0x1E0 DUP2 PUSH2 0x1BA JUMP JUMPDEST SWAP3 SWAP2 POP POP JUMP JUMPDEST PUSH1 0x0 PUSH1 0x20 DUP3 DUP5 SUB SLT ISZERO PUSH2 0x1FC JUMPI PUSH2 0x1FB PUSH2 0x1B5 JUMP JUMPDEST JUMPDEST PUSH1 0x0 PUSH2 0x20A DUP5 DUP3 DUP6 ADD PUSH2 0x1D1 JUMP JUMPDEST SWAP2 POP POP SWAP3 SWAP2 POP POP JUMP JUMPDEST PUSH1 0x0 PUSH1 0xFF DUP3 AND SWAP1 POP SWAP2 SWAP1 POP JUMP JUMPDEST PUSH2 0x229 DUP2 PUSH2 0x213 JUMP JUMPDEST DUP3 MSTORE POP POP JUMP JUMPDEST PUSH1 0x0 PUSH1 0x20 DUP3 ADD SWAP1 POP PUSH2 0x244 PUSH1 0x0 DUP4 ADD DUP5 PUSH2 0x220 JUMP JUMPDEST SWAP3 SWAP2 POP POP JUMP JUMPDEST PUSH32 0x4E487B7100000000000000000000000000000000000000000000000000000000 PUSH1 0x0 MSTORE PUSH1 0x11 PUSH1 0x4 MSTORE PUSH1 0x24 PUSH1 0x0 REVERT JUMPDEST PUSH1 0x0 PUSH2 0x284 DUP3 PUSH2 0x14D JUMP JUMPDEST SWAP2 POP PUSH32 0xFFFFFFFFFFFFFFFFFFFFFFFFFFFFFFFFFFFFFFFFFFFFFFFFFFFFFFFFFFFFFFFF DUP3 SUB PUSH2 0x2B6 JUMPI PUSH2 0x2B5 PUSH2 0x24A JUMP JUMPDEST JUMPDEST PUSH1 0x1 DUP3 ADD SWAP1 POP SWAP2 SWAP1 POP JUMP JUMPDEST PUSH1 0x0 PUSH2 0x2CC DUP3 PUSH2 0x181 JUMP JUMPDEST SWAP2 POP PUSH32 0x7FFFFFFFFFFFFFFFFFFFFFFFFFFFFFFFFFFFFFFFFFFFFFFFFFFFFFFFFFFFFFFF DUP3 SUB PUSH2 0x2FE JUMPI PUSH2 0x2FD PUSH2 0x24A JUMP JUMPDEST JUMPDEST PUSH1 0x1 DUP3 ADD SWAP1 POP SWAP2 SWAP1 POP JUMP INVALID LOG2 PUSH5 0x6970667358 0x22 SLT KECCAK256 PUSH14 0x2329D6EACE24C30917750CE53D41 PUSH18 0x2EC9371CD72417B45057B6DE476AEA246473 PUSH16 0x6C634300080E00330000000000000000 "
				},
				"gasEstimates": {
					"creation": {
						"codeDepositCost": "166200",
						"executionCost": "22314",
						"totalCost": "188514"
					},
					"external": {
						"increamentInt()": "24589",
						"increamentMyUint()": "24523",
						"myInt()": "2429",
						"myUint()": "2407",
						"setUnit(uint256)": "22564",
						"unit8()": "2537"
					}
				},
				"methodIdentifiers": {
					"increamentInt()": "ef5d4d41",
					"increamentMyUint()": "3f48d735",
					"myInt()": "2cb777a6",
					"myUint()": "06540f7e",
					"setUnit(uint256)": "aae07890",
					"unit8()": "e50bd323"
				}
			},
			"storageLayout": {
				"storage": [
					{
						"astId": 3,
						"contract": "contracts/ExampleUnit.sol:ExampleUnit",
						"label": "myUint",
						"offset": 0,
						"slot": "0",
						"type": "t_uint256"
					},
					{
						"astId": 5,
						"contract": "contracts/ExampleUnit.sol:ExampleUnit",
						"label": "unit8",
						"offset": 0,
						"slot": "1",
						"type": "t_uint8"
					},
					{
						"astId": 9,
						"contract": "contracts/ExampleUnit.sol:ExampleUnit",
						"label": "myInt",
						"offset": 0,
						"slot": "2",
						"type": "t_int256"
					}
				],
				"types": {
					"t_int256": {
						"encoding": "inplace",
						"label": "int256",
						"numberOfBytes": "32"
					},
					"t_uint256": {
						"encoding": "inplace",
						"label": "uint256",
						"numberOfBytes": "32"
					},
					"t_uint8": {
						"encoding": "inplace",
						"label": "uint8",
						"numberOfBytes": "1"
					}
				}
			},
			"userdoc": {
				"kind": "user",
				"methods": {},
				"version": 1
			}
		}
	}
}